:020000040800F2
:10000000000003205D0600083122000833220008AA
:1000100035220008372200083922000800000000BD
:10002000000000000000000000000000B1720008A5
:100030003B2200080000000041730008D56B000857
:10004000AD060008AD060008AD060008AD060008C4
:10005000AD060008AD060008AD060008AD060008B4
:10006000AD060008AD060008AD060008AD060008A4
:10007000AD060008AD060008AD060008AD06000894
:10008000AD060008AD060008AD060008AD06000884
:10009000AD060008AD060008AD060008AD06000874
:1000A000AD060008AD060008AD060008AD06000864
:1000B000AD060008AD060008AD060008AD06000854
:1000C000AD060008AD060008AD060008AD06000844
:1000D000AD060008AD060008AD060008AD06000834
:1000E000AD060008AD060008AD060008AD06000824
:1000F000AD060008AD060008AD060008AD06000814
:10010000AD060008AD060008AD060008AD06000803
:10011000AD060008AD0600083D220008AD06000847
:10012000AD060008AD060008AD060008AD060008E3
:10013000AD060008AD060008AD060008AD060008D3
:10014000AD060008AD060008AD060008AD060008C3
:10015000AD060008AD060008AD060008AD060008B3
:10016000AD060008AD060008AD060008AD060008A3
:10017000AD060008AD060008AD060008000000004E
:10018000AD060008AD060008AD060008AD06000883
:10019000AD060008AD060008AD060008AD06000873
:0C01A00049220008AD06000855220008A6
:1001B00010B5054C237833B9044B13B10448AFF3A1
:1001C00000800123237010BD800300200000000088
:1001D0006037020808B5034B1BB103490348AFF36E
:1001E000008008BD00000000840300206037020882
:1001F00001F0FF01102A2BDB10F0070F08D010F8D8
:10020000013B013A8B422DD010F0070F42B3F6D1DB
:10021000F0B441EA012141EA014122F007047FF0F4
:1002200000070023F0E80256083C85EA010586EA4B
:10023000010685FA47F5A3FA87F586FA47F6A5FA87
:1002400087F68EB9EED1F0BC01F0FF0102F0070293
:1002500032B110F8013B013A83EA010313B1F8D13E
:100260000020704701387047002D06BF354603381F
:10027000073815F0010F07D1013015F4807F02BF58
:10028000013015F4C03F0130F0BC0138704700BFA9
:100290007BB972B90029BEBF00204FF0004106E0D3
:1002A00008BF00281CBF6FF000414FF0FF3000F086
:1002B000D3B9ADF1080C6DE904CE002909DB002BA0
:1002C0001ADB00F04DF8DDF804E0DDE9022304B0AC
:1002D0007047404261EB4101002B1BDB00F040F80E
:1002E000DDF804E0DDE9022304B0404261EB4101A6
:1002F000524263EB43037047524263EB430300F007
:100300002FF8DDF804E0DDE9022304B0404261EBA0
:1003100041017047524263EB430300F021F8DDF8DE
:1003200004E0DDE9022304B0524263EB430370476B
:1003300053B94AB9002908BF00281CBF4FF0FF314C
:100340004FF0FF3000F088B9ADF1080C6DE904CE34
:1003500000F006F8DDF804E0DDE9022304B07047A0
:100360002DE9F047089D8E4604468846002B4AD169
:100370008A42174662D9B2FA82F64EB1C6F120031C
:1003800001FA06F820FA03F3B74043EA0808B4403C
:100390004FEA174E1FFA87FCB8FBFEF1230C0EFB49
:1003A000118843EA084301FB0CF29A4209D9FB1871
:1003B00001F1FF3080F0EA809A4240F2E780023992
:1003C0003B449A1AA3B2B2FBFEF00EFB102243EAA2
:1003D000024300FB0CFC9C4509D9FB1800F1FF32DD
:1003E00080F0D6809C4540F2D3803B44023840EAFE
:1003F0000140A3EB0C0300211DB1F3400022C5E92D
:100400000032BDE8F0878B4205D90DB1C5E9000186
:1004100000210846F5E7B3FA83F1002946D1734578
:1004200002D3824200F20581841A6EEB030201209E
:100430009046002DE5D0C5E90048E2E7002A00F02B
:100440009080B2FA82F6002E40F0A4808A1A030C43
:100450004FEA174E80B2BCB20121B2FBFEFC0EFB8C
:100460001C2243EA024304FB0CF29A4207D9FB1810
:100470000CF1FF3802D29A4200F2E080C4469B1A87
:10048000B3FBFEF20EFB123340EA034302FB04F41B
:100490009C4207D9FB1802F1FF3002D29C4200F2C5
:1004A000CA8002461B1B42EA0C40A5E7C1F12006A8
:1004B0008B4022FA06F71F430EFA01F420FA06F3E6
:1004C0002EFA06FE4FEA1749234300FA01F81FFAF5
:1004D00087FCBEFBF9F01C0C09FB10EE44EA0E444D
:1004E00000FB0CFEA64502FA01F209D93C1900F105
:1004F000FF3A80F09C80A64540F2998002383C4447
:10050000A4EB0E041FFA83FEB4FBF9F309FB1344BA
:100510004EEA044403FB0CFCA44508D93C1903F142
:10052000FF3E80F08280A4457FD9023B3C4443EAF1
:100530000040A4EB0C04A0FB02EC64457346E146CA
:1005400062D35FD05DB1B8EB030264EB090404FA37
:1005500006F622FA01F31E43CC40C5E900640021EF
:100560004FE7B1FBF2FC010C41EA0E4180B240EAD8
:1005700001423B4638463C46B846BE462026B1FBC3
:10058000F7F1A2EB080241EA0C4166E7014618E7E1
:1005900010462CE7C6F120022EFA02F3B740B14014
:1005A00020FA02F24FEA174E0A43B3FBFEF8BCB240
:1005B0000EFB1833110C41EA034108FB04F9B0406B
:1005C00089454FEA104380B23ED9791808F1FF3CC3
:1005D00001D289451FD8A1EB0901B1FBFEF909FB46
:1005E00004F80EFB191192B242EA0142424529D2A7
:1005F000BA1809F1FF31C4D24245C2D2A9F10201B1
:100600003A44BEE7F0459DD2BEEB02036CEB070C0B
:100610000138E14696E7A7EB09094944A8F1020C25
:10062000B1FBFEF909FB04F8DBE773467FE75046B0
:1006300066E70846FDE63B44023A33E7ACF1020CBC
:100640003B441CE749469CE7A1EB0901C446B1FBCA
:10065000FEF909FB04F8C4E7704700BFDFF834D0A7
:10066000002103E00C4B5B58435004310B480C4B0A
:1006700042189A42F6D30B4A02E0002342F8043BA8
:10068000094B9A42F9D303F05FFE22F0FBFA01F026
:1006900063F8704700000320FCC804080000002035
:1006A0006401002080030020E03A0120FEE770474B
:1006B00008B500F0BBFDBDE8084000F03FBD00F00C
:1006C000B7BD704710B50421044621F0DEF820467E
:1006D00010BD000038B50C4B0C4C18800C4B822020
:1006E00019806368984740F6110398420AD1094D72
:1006F00023682C60822098472B688220DB6898470B
:10070000002038BD0120FCE7A60300204C0000209B
:10071000A4030020A80300204FF4A071F020FFF7ED
:10072000D9BF0000F7B5394D2B6804461B698220FC
:100730009847208000284ED02B680DF106025B6997
:1007400001A982209847324B1B78002B4BD0BDF873
:10075000062040F674639A423FD9ADF80630BDF8E2
:1007600006209B1A9BB20A2B42D90B22B3FBF2F351
:10077000284A1288934201D9013A93B2BDF8042065
:10078000254840F6B8318A4234D8C2F571620E323B
:10079000016892B20F25B2FBF5F2204D2D88AA42D6
:1007A00084BF05F1FF35AAB28A4215468EB22AD916
:1007B000921B91B21A4E3768BB42BAB28CBF9A1ADA
:1007C000D21A92B211440529C4BF05603360036890
:1007D00063803368A38003B0F0BDB32A9CBFB4220A
:1007E000ADF80620BBE7BDF80630A3F5B473B9E752
:1007F0000023C3E7C2F56D62083292B20E2A016887
:10080000C8D800252A46891A89B2D3E7A803002050
:10081000081D0020A4030020A0030020A603002040
:100820009C03002037B568460D461446FFF77AFF53
:10083000BDF8000030B1BDF802302B60BDF80430C7
:100840002360012003B030BD032821D8DFE800F089
:10085000020B12190F4B1A68B2FA82F252090421E4
:100860000D4804F0CDB90B4B5A68B2FA82F2520926
:100870000821F5E7074B9A68B2FA82F25209102173
:10088000EEE7044BDA68B2FA82F252092021E7E778
:10089000704700BFAC03002000100240032821D89D
:1008A000DFE800F0020B12190F4B1A68003A18BF6C
:1008B000012204210D4804F0A3B90B4B5A68003AF9
:1008C00018BF01220821F5E7074B9A68003A18BFC4
:1008D00001221021EEE7044BDA68003A18BF01222A
:1008E0002021E7E7704700BFAC0300200010024062
:1008F00003280DD8DFE800F00206080A04210548A5
:1009000004F083B90821FAE71021F8E72021F6E77F
:10091000704700BF0010024008B5032811D8DFE877
:1009200000F0020A0C0E0421074804F063F9431E8C
:100930005842584108BD0821F6E71021F4E720216C
:10094000F2E70020F3E700BF0010024070B5084D49
:1009500000240126E0B2FFF7DFFF18B12B68012B5E
:1009600018BF2E600134052C05F10405F2D170BDCD
:10097000AC030020012380F8781080F879307047AC
:100980007047002070470000034B4164003918BFD6
:1009900001211970704700BF9F2D01207047002072
:1009A0007047836B0BB10846184770474FF6FF70CE
:1009B0007047406803689B691847704770477047E5
:1009C0007047704710B5044600F048FD236803499E
:1009D000D3F890302046BDE810401847000000D002
:1009E00008B503680446D3F8843098472368204646
:1009F000DB6F984700F0ECF8236820465B6F984760
:100A0000292001F035F900F0E3F8236820465B6FF8
:100A10009847F8E710B5044609F042FA23682046E3
:100A2000D3F8BC30BDE81040184700F0FBBC00F024
:100A3000FFBC00F031BD00F0D1BC00F041BD00F0C2
:100A400049BD00F0D5BC08F059BC10B5842104465E
:100A500020F01BFF204610BD10B590F8341090F820
:100A600078400C4B8C421A7809D03AB90A4A0B49A3
:100A70001488088810800C8001221A7010BD002A8A
:100A8000FCD0054A05491488088810800C80002293
:100A9000F3E700BF982D0120942D0120962D012011
:100AA00070B50D46194635B9094B0A4A0A4840F255
:100AB000FF2121F027FEC0E90F52084B003A18BF72
:100AC00001221A700368BDE87040D3F890301847CF
:100AD00018380208503802089E3802089E2D01205E
:100AE00008B5094B1B888B4203D8084B1B889342DF
:100AF00005D9074B074A0848A32121F003FE074BFD
:100B00001980074B1A8008BD942D0120962D0120D5
:100B1000E3380208463902089E3802089A2D01205F
:100B20009C2D0120034690F87A0018B1586803689C
:100B30001B68184770470000012108B500220846CD
:100B400006F0D2F80A4B186028B90A4B0A4A282145
:100B50000A4821F0D7FD00220421012006F063F9A4
:100B6000074B186018B9074B034A2C21F0E708BD62
:100B7000C003002089390208D2390208013A02086C
:100B8000BC0300206B3A0208024B4FF0FF3118689B
:100B900006F0F4B8C0030020014B186806F01AB93B
:100BA000C0030020024B0021186806F0E7B800BF20
:100BB000C0030020FFF7F0BF03480449006800238A
:100BC0001A4606F06BB900BFBC03002004000020E9
:100BD00013B5084C00231A4601A9206806F08FF9C6
:100BE00020684FF0FF33002201A906F088F902B017
:100BF00010BD00BFBC03002003685B6C18470120D8
:100C0000704703689B6A1847FEE740F2EF30704771
:100C1000054B0360054B4FF08062C3F88820BFF39B
:100C20004F8FBFF36F8F70478044020800E100E0F0
:100C300010B504464FF45A61FFF7EAFF204620F052
:100C400024FE204610BD000082B0002301930E4B0D
:100C50001A6B42F400021A631A6B02F4000201924A
:100C6000019A1A6942F400021A611A6922F4000218
:100C70001A61064B064A1A61064A5A61064B4FF042
:100C800080629A6002B07047003802409C1E0020CB
:100C9000E90E0008090C000800E100E008B50A2888
:100CA00009D8DFE800F006100E0808080810101038
:100CB0001000022008BD054B054A0648902121F08E
:100CC00021FD0020F6E70120F4E700BFAD3A02085D
:100CD000C83A0208133B020838B50C46887FFFF774
:100CE000DDFFA58AE28A164B2169586342EA054274
:100CF0005A64628BD963521B1A642568082D0ED181
:100D00009A611A615862207F0E4A42EA0062DA61F3
:100D1000E2681A620C4A5961D9601A6038BD002233
:100D2000D8611A61E1680A0A480902F4784200F4BD
:100D3000FC600243C1F3C4010A439A63034AECE72F
:100D400000B002400900010001230200012303005A
:100D500008B50B280BD8DFE800F00612100A0A0AC3
:100D60000A0808080808022008BD0520FCE7054B12
:100D7000054A06486F2121F0C5FC0020F4E7012058
:100D8000F2E700BFAD3A02087B3B0208133B0208C2
:100D90002DE9F04191F81D800C464046FFF7D8FF41
:100DA000A77F05463846FFF7D3FF06463846FFF7CC
:100DB00075FFA18A628B444B521A1A649A61228B86
:100DC000521A1A61E28A586342EA01425A6421695E
:100DD0006268D963DA602068802828D0227F0FD823
:100DE000202867D0402865D004281AD0364B45EA21
:100DF000026545F40035B845DD6161D0334A44E011
:100E0000B0F5807F04D0B0F5007FEFD1304800E02E
:100E1000304840EA0262DA61E2681A625E62596151
:100E200032E045EA026242F40032DA61F6E7A06895
:100E3000021DDA62227F45EA026545F40035DD6174
:100E40005E625961017841B1012921D0224B234AC8
:100E500023484FF48D7121F055FCDA69418822F462
:100E60007F42013922F0100242EA0122DA610121B7
:100E7000154BDA6942F02002DA61DA699206FCD495
:100E800010229A600029B9D0164A1A60BDE8F08194
:100E9000B2F1FF01DA69408822F47F4200F1FF30AD
:100EA00022F0100242EA002242F0100218BF012193
:100EB000DA61DDE745EA0262034B42F40032B4E74F
:100EC00042F20132E1E700BF00B00240012301001D
:100ED000090002000A000200C53B0208DF3B0208CD
:100EE000133B020801230200024B1B685868036889
:100EF0005B691847A02D012070B5044625460A4BB2
:100F00000C30002660602672667245F8203B602235
:100F1000294609F01BF904F55A63EE6024359D4219
:100F2000FBD1204670BD00BF80440208034B1A6805
:100F3000D207FCD423229A60704700BF00B0024061
:100F40007047000030B50F4C2568ED07FCD4232511
:100F50000904A56041F001010225FF2B656361646E
:100F6000E0630AD00849656241EA0363E361074B25
:100F700022626061E060236030BDE561039BA36392
:100F8000034BF8E700B00240090001000100020035
:100F90000100030030B50E4C2568ED07FCD4232575
:100FA0001204A56042F001020225FF2B6563626412
:100FB000E063E16008D01B0643F00213E361054BD8
:100FC00065626061236030BD034BE3610123F9E793
:100FD00000B0024001000200020002FF30B50B4CDD
:100FE0002568ED07FCD4232512041B06A56043F4F5
:100FF0000033022542F0010265636264E063E16050
:10100000E361034B65626061236030BD00B0024064
:1010100001000200012070470C2070470C2303FBE5
:101020000100083070470C2303FB010008307047B3
:101030000120704740F2FC70704740F2FC7303FBE4
:1010400001000830704740F2FC7303FB01000830D8
:101050007047012070471020704700EB01100830E6
:10106000704700EB011008307047084601F0CABE17
:1010700010B5034B0360044607F095FE204610BDF3
:101080003845020810B50446FFF7F2FF2046142148
:1010900020F0FBFB204610BD10B5034B0360044657
:1010A00007F081FE204610BD0445020810B5044635
:1010B000FFF7F2FF204640F6040120F0E6FB204651
:1010C00010BD000010B5034B0360044607F06BFE33
:1010D000204610BDD044020810B50446FFF7F2FFC9
:1010E0002046182120F0D1FB204610BD10B5084B3A
:1010F0000360044600F50360FFF7BAFF04F12C001B
:10110000FFF7CAFF04F11400FFF7DCFF204610BD13
:101110006C45020808B50248FFF7E8FF08BD00BFAC
:101120009C12002010B50446FFF7E0FF204640F671
:10113000A41120F0AAFB204610BD00002DE9F341C8
:1011400001F002F9054601F003F9002401462346A7
:1011500028462246009411F005FB274B274A1A60C7
:10116000204602F02DF8264D264B274A27489A6044
:1011700011F060FA2B68BFF35B8FDB0735D428468C
:1011800020F085FB88B3224C224B236004F64806EE
:1011900004F1140004F12C0804F503676060C4F83E
:1011A0000880E760266107F0FFFD1B4B6361404646
:1011B00007F0FAFD194BE362384607F0F5FD184BCE
:1011C000C4F8303804F6440002F072FD224604F6FA
:1011D0004401304602F062FD304601F013FE114832
:1011E00021F0AEFA284620F05EFB0F4802B0BDE8C1
:1011F000F041FFF7E7BB00BF042E012048040020A8
:1012000098120020680400204C04002008000020F0
:101210009C1200206C450208D044020804450208D4
:101220003845020815110008C4030020704700006B
:101230000148FFF7D5BB00BFC403002070B5264EA0
:10124000264C274D274B23603046FFF755FE284696
:1012500016F08EFB24480EF095FF244B2448DC60EA
:1012600000224FF48071C3E9121222491A86C3E9A1
:101270001A12214983F85820C3E91E011F49C3F8F7
:1012800080101F491F480B60F021C3E90422C3E905
:101290000622C3E90822C3E90A22C3E90E22C3E9F0
:1012A0001022C3E91422C3E917225A6683F870207A
:1012B0005A67C3E9016501801348018013484FF460
:1012C000A07101801248018012490A70012283F83E
:1012D0003420114A1A6070BDF404002094120020DA
:1012E00068040020083802084C040020C4030020D1
:1012F0000000010101000001000450001A00140068
:10130000A02D0120942D01209A2D0120962D012041
:101310009C2D0120982D0120944302080148FFF7DD
:1013200077BC00BFF4040020002070478180704724
:10133000C180704701817047418170477047704795
:1013400070477047704710B4C4880368121B8488C4
:101350005B6D091B12B25DF8044B09B218474FF6DA
:10136000FF7383814FF0FF3303621368C361106022
:101370007047002070478B8883800120704770473A
:1013800080F82610704790F82600704710B50022AC
:10139000B1F90840B1F90A10028042808480C1800E
:1013A00010BD0022028042808280C2807047017797
:1013B000704780ED080A704780F82410704780F865
:1013C0002510704701207047983070478C30704767
:1013D000843070477047704770470000034B90227D
:1013E00083F85A2383F85823704700BF00E100E0D8
:1013F000094A0A49D3680A48C3F30A03013B9BB26E
:101400000B801169C1F30A01013901801364536B28
:1014100043F001035363704700680140421C002001
:10142000401C0020014BD3F8AC007047006801401D
:10143000024B0122C3F8AC105A62704700680140A9
:1014400010B52C21044620F020FA204610BD10B51E
:10145000BC21044620F019FA204610BD70B50446A0
:1014600007F0A1FF23689D6E0DF024FC0146204685
:10147000A8472368054AD3F88C502046AC46002381
:10148000BDE87040A2F51631604700BF00B004D03F
:1014900007F070BF07F07ABF07F036BF08F0A5B8B5
:1014A00090F8252012B103685B691847704790F8DF
:1014B00025201AB190F8242002B11860704700006E
:1014C000034B4FF080629A604FF080729A607047D1
:1014D00000E100E0084B4FF08062C3F88820BFF3C2
:1014E0004F8FBFF36F8F4FF08072C3F88820BFF328
:1014F0004F8FBFF36F8F704700E100E070B500239E
:10150000124E8380124B0360336893F858200546CF
:101510000AB1D86C00B998680368DB6A98473368E9
:10152000B0FA80F4D86C640930B10368DB6A98477C
:10153000002808BF44F001042CB9064B064A0748AE
:101540002C2121F0DFF8284670BD00BFA02D01201E
:10155000804502081D3C02087B3C0208B43C02089E
:1015600070B5254E3568BFF35B8F15F0010540D18E
:10157000304620F08CF900283BD0204C204B2561D0
:1015800004F13400C4E90035C4E90255E584A562DC
:10159000A5850FF0DCF804F158000AF08DFA194B1C
:1015A000A3652046184B40F8843BFFF7A7FF174B75
:1015B000C4F884302433C4F88C304FF4C803C4E931
:1015C00028350023C4F8AC30C4F8B030C4F8B430C7
:1015D000C4F8B8300E480F4BC4F89050C4F89C5073
:1015E000C4F8A850C4F8983021F0AAF8304620F08A
:1015F0005AF9024870BD00BF441C0020481C00205E
:10160000BC4B0208A045020818460208704B0208AD
:10161000D9130008504B020838B5184C23685BB347
:10162000174B184A1B6C11888B4216D1164B198820
:1016300004F0EEF8236893F86A200025013283F85D
:101640006A2083F87C50FFF7B7FA206808F028FC7E
:101650002846BDE83840FFF7F7B804F0D9F8246809
:10166000236820461B6A9847012384F87C300020B9
:10167000BDE83840FFF712B938BD00BFA02D0120EA
:1016800000680140421C0020401C002007B5064BAA
:10169000ADF806001B68054801220DF1060104F0B3
:1016A00057FE03B05DF804FB0C000020481D00202D
:1016B00008B5642005F00CFBFBE7000030B595B0E1
:1016C000102200210AA821F034FA1422002103A8D4
:1016D00021F02FFA00241E4B01941A6C42F0805224
:1016E0001A641B6C03F080530193019B194B029405
:1016F0001A6842F440421A601B6803F440430293A4
:101700000122029B4FF48033CDE9082302254FF4D8
:1017100080030821CDE90E534FF4B473CDE91013C3
:1017200008A804231393129504F0CAF804F08EF865
:101730000F23CDE903354FF4A0504FF48053CDE98A
:101740000603052103A8059404F096FA15B030BDF0
:10175000003802400070004080B59AB002F002FEEE
:10176000FFF7ACFF142200210DA821F0E2F90024BC
:10177000C94B00941A6BC948C94DDFF85C8342F02D
:1017800010021A631A6B02F010020092009A019480
:101790001A6B42F020021A631A6B02F020020192C7
:1017A000019A02941A6B42F080021A631A6B02F0DB
:1017B00080020292029A03941A6B42F004021A63A6
:1017C0001A6B02F004020392039A04941A6B42F01B
:1017D00001021A631A6B02F001020492049A059442
:1017E0001A6B42F002021A631A6B02F002020592AF
:1017F000059A06941A6B42F040021A631A6B02F0C3
:1018000040020692069A07941A6B42F008021A6385
:101810001B6B03F00803224607933C21079B03F050
:10182000EFF9A0480122022103F0EAF922469D487F
:10183000042103F0E5F922469B484FF4405103F0A0
:10184000DFF9224699484FF4005103F0D9F90126F7
:101850003C23CDE90D3691480F9403230DA90227AF
:10186000109303F0E3F88F480DA9CDE90D76CDE98B
:101870000F4403F0DBF804238A480DA9CDE90D36A7
:10188000CDE90F4703F0D2F889480F940DA9CDE9AF
:101890000D6403F0CBF84FF4405383480DA9CDE914
:1018A0000D36CDE90F4703F0C1F80DA94FF40053F1
:1018B0007E48CDE90D36CDE90F4403F0B7F87D48F9
:1018C0007D4B036002F0E0FDDFF810E27B4B2C6201
:1018D000C5E900E328464FF48043C5E90434C5E96F
:1018E0000244C5E9064403F099FB1021284603F0A1
:1018F000DDFD21462846724D03F0F7FD4FF482735B
:10190000C5E900834FF400791823C5E906932846FA
:101910000A23C5E90244C5E90444C5E90844AC62A8
:10192000EB6204F0B9FC8F23224639465D488DF8FE
:1019300024308DF8344003F063F932464FF47A7363
:1019400009A9284604F004FD4FF47A7332460DA924
:10195000284604F0A9FE324639465248594D03F054
:101960004FF99DF83430D32B04BF574B1E70574BA3
:101970000126C5E90036102240230024C5E90423CE
:101980004FF4C073C5E906344FF40063C5E9083469
:101990004FF4005302274FF00409AB624FF0030AE3
:1019A00007230DA92846CDE90D73CDE90F934FF01C
:1019B0000808C5E90249CDE911A7139704F050FBC7
:1019C0004FF6FF7209A92846CDE90A8608940996C0
:1019D0000C9404F065FB304602F0F0FC4FF6FF7209
:1019E00009A92846CDE90978CDE90B6404F058FB34
:1019F0004FF6FF7209A92846CDE909A8CDE90B9455
:101A000004F04EFB4FF40C730893089B0C934FF6B5
:101A1000FF7209A92846CDE909980B9604F040FB0E
:101A200040F26A51284604F059FB34220DEB0200C3
:101A3000214621F07EF8264D264B2C61C5E9003465
:101A40000923C5E905361D23C5E9073A40F20D1102
:101A500040F24313C5E9091340F2171040F247134F
:101A6000C5E90B032846C5E90244AC8685F8364033
:101A700003F0D6FDFF214FF4806CF022CDE9121463
:101A80000521CDE914C14FF4A0730DA9CDE90E24B1
:101A9000CDE91642284623E00038024000100240FB
:101AA000481E002000080240000C024000180240BE
:101AB00000000240DC1E002000300240A086010031
:101AC000481D0020141D0020081D0020400100A01A
:101AD000A01D00200068014000500140005C004053
:101AE00022461D4D1893CDE910370D94ADF8644092
:101AF0008DF8664003F05FFE184B2B601B6898471B
:101B00002B68174DDB689847164B2846C5E900340B
:101B1000C5E90274C5E90A47C5E90C4402F0C4FCF2
:101B20003146284602F076FDFEF7C2FDFEF7BFFD06
:101B300005F05EF80C4A0D48214605F085F80C4B7F
:101B40000C4A186021460C4805F07EF80B4B1860D3
:101B500005F060F8FEE700BF041D0020140000201F
:101B60009C1E002000B0024080460208B11600080A
:101B7000101D00205C460208BF0600080C1D002056
:101B8000704770477FB5094B8DF817201B6802938B
:101B90000DF117020123009201930A460146044801
:101BA00003F0E4FA07B05DF804FB00BF100000206A
:101BB000481E00207FB500238DF81730084B1B68A6
:101BC00002930A4601230DF117010091019301468A
:101BD000044803F05BFB9DF8170007B05DF804FBB9
:101BE00010000020481E00201FB5084C24680092F9
:101BF000CDE901340A4601230146054803F046FBBE
:101C0000003818BF012004B010BD00BF1000002034
:101C1000481E002002F0D2BB10B5064C0022204620
:101C2000042102F0EDFF20460122BDE8104004210E
:101C300002F0E6BF0008024038B50B4D0446012211
:101C40000A484FF4005102F0DBFF0022042128462D
:101C500002F0D6FF2046FFF719FD28460122BDE815
:101C60003840042102F0CCBF00080240000C0240C2
:101C700038B50B4D044600220A484FF4005102F0DB
:101C8000BFFF00220421284602F0BAFF2046FFF7DA
:101C9000FDFC28460122BDE83840042102F0B0BF17
:101CA00000080240000C0240F7B5144E144F0546E0
:101CB0000C4630460022042102F0A2FF00224FF41D
:101CC0000051384602F09CFF2846FFF7DFFC0D4B21
:101CD0000D481B68224601A904F0E6FC38460122A3
:101CE0004FF40051019C02F08BFF30460122042189
:101CF00002F086FF204603B0F0BD00BF000802409E
:101D0000000C02400C000020481D002002F056BBD1
:101D10000268034B9A4201D102F03EBB704700BFFC
:101D2000001000407047000082B00E4B002200926D
:101D3000596C41F480415964596C01F4804100911F
:101D400000990192196C41F0805119641B6C03F0E9
:101D500080530193019B0F216FF0010002B002F04C
:101D600053BB00BF003802400268094B9A4282B060
:101D70000BD100230193074B1A6B42F480521A6374
:101D80001B6B03F480530193019B02B0704700BFAB
:101D9000003002400038024007B50F4B02689A42FB
:101DA00016D10022A3F5F0430192196B41F4000112
:101DB00019631B6B03F40003019305215A20019B57
:101DC00002F022FB5A2003B05DF804EB02F04EBB98
:101DD00003B05DF804FB00BF00B002402DE9F04302
:101DE000044689B01422002103A820F0A2FE226834
:101DF000244B9A4243D1244C244800250095236B60
:101E000043F004032363236B03F004030093009B5C
:101E10000195236B43F001032363236B03F001035C
:101E20000193019B4FF012094FF400734FF001082A
:101E30000327042603A9CDE90339CDE905870796D1
:101E400002F0F4FD4FF480731148079603A9CDE921
:101E50000339CDE9058702F0E9FD0295236C43F4CF
:101E600000032364236C03F400030293029B236AA0
:101E700043F400032362236A23F40003236209B0BE
:101E8000BDE8F083005C00400038024000080240DA
:101E900000000240F0B599B004461422002107A8C2
:101EA00020F047FE30220DEB0200002120F041FE21
:101EB00022685E4B9A4240F0B78008230C93C023FF
:101EC0001093042312930CA84FF40033159303F0DE
:101ED0009BFF08B1FFF726FF554B5648002400949E
:101EE0005A6C42F080625A645A6C02F0806200922E
:101EF000009A01941A6B42F020021A631A6B02F0E6
:101F000020020192019A02941A6B42F001021A63B4
:101F10001A6B02F001020292029A03941A6B42F0C9
:101F200002021A631A6B02F002020392039A0494EB
:101F30001A6B42F040021A631A6B02F040020492DC
:101F4000049A05941A6B42F004021A631A6B02F0A9
:101F500004020592059A06941A6B42F008021A636D
:101F60001B6B03F00803069302250E26069B0B96B7
:101F70004FF4806307A9CDE90735CDE9094502F0A3
:101F800055FD41F658032C480B9607A9CDE90735B6
:101F90000927CDE9094502F049FD032327480B979E
:101FA00007A9CDE90735CDE9094502F03FFD4FF41A
:101FB000706322480B9607A9CDE90735CDE909459D
:101FC00002F034FD4FF40C631D480B9607A9CDE9D0
:101FD0000735CDE9094502F029FDC02319480B96C4
:101FE00007A9CDE90735CDE9094502F01FFD082312
:101FF00015480B9607A9CDE90735CDE9094502F04B
:1020000015FD4FF4A0530E480B9707A9CDE90735EE
:10201000CDE9094502F00AFD58202246052102F0CB
:10202000F3F9582002F022FA19B0F0BD006801401F
:102030000038024000140240000002400004024048
:102040000018024000080240000C024010B504468F
:1020500088B01422002103A820F06BFD2268144BE5
:102060009A4223D103F56843002101915A6C11482B
:1020700042F480125A645A6C02F480120192019A5E
:1020800002911A6B42F020021A631B6B03F02003CB
:102090000293029B4FF4607202230321CDE90323D4
:1020A0000523CDE9061303A902F0C0FC08B010BD5A
:1020B00000500140001402402DE9F04186B0002399
:1020C00003932B4B1C68002C4FD14FF00108C3F831
:1020D0000080284B00949A6B274842EA08029A63D2
:1020E0009B6B03EA08030093022703260C25009B41
:1020F00001A94FF63F03CDE90137CDE9046502F0B0
:1021000095FC1E48059501A9CDE90187CDE9034657
:1021100002F08CFC48F233131948059501A9CDE96A
:102120000137CDE9034602F081FC4FF68373154871
:10213000059501A9CDE90137CDE9034602F076FC0A
:102140004CF203731048059501A9CDE90137CDE99B
:10215000034602F06BFC60230C48059501A9CDE90C
:102160000137CDE9034602F061FC06B0BDE8F0811D
:10217000E41E002000380240001402400008024023
:102180000018024000100240000C0240000402400F
:1021900070B588B000230293204B1A6C42F01002F5
:1021A0001A641B6C03F010030293054601A903A8EF
:1021B000029B03F00BFE069B4BBB03F0F7FD184E92
:1021C000184B336040F2E733F360174BB0FBF3F387
:1021D000013B7360304600233361B360B36104F0A8
:1021E00033FC044680B9304604F004FB044658B979
:1021F000362002F03BF90F2D0DD822462946362015
:1022000002F002F9094B1D60204608B070BD03F0D2
:10221000CDFD4000D3E70124F6E700BF00380240BF
:10222000E81E00200010004040420F007C0000200B
:102230007047FEE7FEE7FEE7FEE77047014804F05F
:1022400017BB00BFE81E0020014803F057BA00BFCB
:10225000A01D0020014802F053B900BF9C1E0020C1
:102260000120704708B520F007FD162303604FF0EA
:10227000FF3008BD08B520F0FFFC16230360FEE721
:1022800070B50D4614460E46731B9C4201DC204679
:1022900070BDAFF3008006F8010BF5E770B50D4691
:1022A00014460E46731B9C4201DC204670BD16F896
:1022B000010BAFF30080F5E74FF0FF3070474FF4AC
:1022C00000534B600020704701207047002070478A
:1022D0000A4A116808B5034609B90949116010682E
:1022E000694603448B4206D920F0C6FC0C230360E8
:1022F0004FF0FF3008BD1360FCE700BF301F002027
:10230000E03A0120704710B5042104461FF0BDFAE1
:10231000204610BD08B5032913D8DFE801F00206F6
:102320000A0E00F099FF006808BD00F095FF4068B4
:10233000FAE700F091FF8068F6E700F08DFFC068D3
:10234000F2E70020F0E7000000487047B8460208B6
:102350000220704713B5002451B1036801948DF831
:10236000034001AA9C680DF10303A04702B010BD11
:102370000846FBE7C0897047008A7047C0887047ED
:1023800080887047807A00F07F007047807AC009AB
:1023900070470020704700009FED010A704700BFA2
:1023A00000000000704770477047704770477047E3
:1023B00030B5036885B06D460181D3F8843001469D
:1023C00004462846984795E807003C3484E807000F
:1023D00005B030BD30B5036885B06D464181D3F896
:1023E0008430014604462846984795E807003C3467
:1023F00084E8070005B030BD002202804280828060
:10240000C280704780F83610704770B50368044684
:102410001B6B154698472368294620465B6EBDE82E
:102420007040184700207047806C704770477047B5
:10243000704710B5082104461FF027FA204610BD4A
:1024400010B54C2104461FF020FA204610BD10B5EF
:1024500040F2045104461FF018FA204610BD08B59A
:10246000FFF71EF808BD0000036870B55E6B124BE5
:102470001B6804468DB22BB9104B114A6C211148D0
:1024800020F040F91049828D0988914203D80F4B02
:102490000B4A6D21F3E713F812200D4B1B6853F81C
:1024A000220003681B6B9847291A3346204609B25D
:1024B000BDE87040184700BFF82D01202B3D0208F1
:1024C0006D3D0208A83D0208FC2D0120EF3D0208E9
:1024D000002E012000224FF0FF31C0E90021826070
:1024E000704770B5036804461B6B15469847236810
:1024F000294620465B6BBDE87040184770B504461E
:102500001D46BDF91060FFF7ECFF23682946204601
:102510009B6B9847236831462046DB6BBDE87040D3
:10252000184700000022C0E90122C0E90322C0E9E7
:102530000522C0E907224FF480728284014A0260BA
:10254000704700BFE846020810B526220446002165
:1025500020F0EFFA2046FFF7E5FF044B2360FF234E
:1025600084F826300023A362204610BD104D0208D7
:1025700038B5262204460D46002120F0DAFA20461E
:10258000FFF7D0FF064B23602B88E384FF23204610
:1025900084F82830294609F091FF204638BD00BF55
:1025A000E04D020810B526220446002120F0C1FAB1
:1025B0002046FFF7B7FF0A4B23600A4BA3624FF692
:1025C000FF73A3854FF47F020023C4E90C322387F5
:1025D0004FF0FF32C4E91023E363204610BD00BF73
:1025E000804C0208504702082DE9F04F044699B08C
:1025F000274600250EF062FBD84BE56347F8403BC9
:1026000004F16C0B38464FF6FF76FFF79DFF04F19F
:10261000980A16A9584604F1C409ADF85860FFF7A6
:10262000A7FF16A9504604F1F008ADF85860FFF76F
:102630009FFF16A94846ADF85860FFF799FF16A905
:102640004046ADF85860FFF793FF04F58E7316A966
:1026500018460993ADF85860FFF78AFF04F5A47394
:1026600016A918460A93ADF85860FFF781FF04F5E4
:10267000BA7316A918460B93ADF85860FFF778FFA8
:1026800004F5D07316A918460C93ADF85860FFF7FF
:102690006FFF04F5E67316A918460D93ADF8586060
:1026A000FFF766FF04F5FC7316A918460E93ADF804
:1026B0005860FFF75DFF04F5097316A918460F93DC
:1026C000ADF85860FFF754FF04F5147318460293F1
:1026D000FFF768FF04F5267318460393FFF762FFC0
:1026E00004F5387318461193FFF72EFF9C4BC4F87E
:1026F000E03204F54573C4F80C53A4F8105318469F
:102700000493FFF74FFF04F5577318460593FFF73F
:1027100049FF04F5697318460693FFF743FF04F574
:102720007B7318460793FFF73DFF04F234431846C6
:102730000893FFF737FF04F27C4318461093FFF726
:1027400031FF884BC4F87C344FF4A0732A46C4F898
:10275000C454294600933846F023261DFFF7CEFEC9
:102760004FF07F43A3663946304606F031FB2A46D8
:1027700029465846FFF7B5FE16A95846ADF85850F9
:1027800009F09CFE5946304606F022FB2A462946AF
:102790005046FFF7A6FE16A95046ADF8585009F06E
:1027A0008DFE5146304606F013FBFE2248461B21A3
:1027B0000127FFF796FE16A94846ADF8587009F0B4
:1027C0007DFE4946304606F003FBFE2240466A2164
:1027D000FFF787FE16A94046ADF8587009F06EFE67
:1027E0004146304606F0F4FAFE220998DFF8789167
:1027F000B721FFF776FE0998ADF8587016A909F0D1
:102800005DFE0999304606F0E3FA88220A986921AC
:10281000FFF767FE0A98ADF8587016A909F04EFE4A
:102820000A99304606F0D4FA88220B98B621FFF7B1
:1028300058FE0B98ADF8587016A909F03FFE0B9999
:10284000304606F0C5FAC2220C981B21FFF749FE5C
:102850000C98ADF8587016A909F030FE0C99304666
:1028600006F0B6FAC2220D986A21FFF73AFE0D98DB
:10287000ADF8587016A909F021FE0D99304606F002
:10288000A7FA88220E981B21FFF72BFE0E98ADF8B1
:10289000587016A909F012FE0E99304606F098FA03
:1028A000C2220F98B721FFF71CFE0F98ADF85870A1
:1028B00016A909F003FE4FF0230B0F9930460DF1D6
:1028C000480806F085FA4FF0FF3A0298CDF800B0BC
:1028D000CA2336221421FFF711FE0299C4F880A200
:1028E0004046A4F8845209F0E5F998E8070004F599
:1028F000237383E8070007230298ADF85C3016A91C
:10290000CDF8589009F07EFC029984F87552304653
:1029100006F05EFA0398CDF800B0CA2336221421DF
:10292000FFF7ECFD0399C4F8C8A24046A4F8CC52C6
:1029300009F0C0F998E8070004F5357383E807004B
:1029400006230398ADF85C3016A9CDF8589009F02D
:1029500059FC039984F8BD52304607E0F04702085D
:10296000784D0208604702085047020806F030FA26
:102970003223119800938822D9230D21FFF7BEFD41
:10298000744B119984F80553C4E9C2330523A4F8A4
:102990001033304606F01CFA049898222721FFF7DE
:1029A000A0FD4FF07F430499C4F844334046A4F897
:1029B000485309F07FF998E8070004F5547C8CE847
:1029C000070005230498ADF85C3016A9CDF858909F
:1029D00009F018FC049984F83953304606F0F8F9E8
:1029E0000598CDF800B0CA2336221421FFF786FDE2
:1029F0000599C4F88CA34046A4F8905309F05AF9FD
:102A000098E8070004F5667383E807000423059837
:102A1000ADF85C3016A9CDF8589009F0F3FB059994
:102A200084F88153304606F0D3F90698CDF800B00B
:102A3000CA2336221421FFF761FD0699C4F8D4A3F6
:102A40004046A4F8D85309F035F998E8070004F592
:102A5000787383E8070003230698ADF85C3016A965
:102A6000CDF8589009F0CEFB069984F8C95330464A
:102A700006F0AEF9079897221F21FFF732FD4FF0BD
:102A80007F430799C4F81C344046A4F8205409F049
:102A900011F998E8070004F5856383E8070002232D
:102AA0000798ADF85C3016A9CDF8589009F0AAFB4C
:102AB000079984F81154304606F08AF9089897224D
:102AC0003A21FFF70EFD244B0899C4F864344046C0
:102AD000A4F8685409F0EEF898E8070004F58E634E
:102AE00083E807000898CDF8589016A9ADF85C70F7
:102AF00009F088FB089984F85954304606F068F9C3
:102B000036221098CDF800B0B3232221FFF7F6FC4F
:102B100004F599631098C4F8C43416A9C4F8ACA499
:102B2000A4F8B054C4F8B854C4F8BCA4C4F8C05451
:102B3000A4F8C854CDF85890ADF85C5009F062FB89
:102B40003046109984F8A15406F042F9204619B095
:102B5000BDE8F08F27E881FF0000FFFF7047704756
:102B600000F598730868496803C370477047704759
:102B70004160704770477047064BC0F84C310023E6
:102B8000C0F8503100F5A273C0F84801C0F84031D8
:102B9000704700BF392C000801230372704770474B
:102BA00010B4C26841685410034601EB6200D207BA
:102BB00048BF0A599B685DF8044B48BFD358184773
:102BC0000346406830B19A681AB9D86800F001002D
:102BD00070470120704710B50C2104461EF055FEC9
:102BE000204610BD10B5102104461EF04EFE2046B2
:102BF00010BD10B54FF4AE7104461EF046FE2046DF
:102C000010BD10B50CF056F80368BDE81040DB6B42
:102C1000184710B50446D0F8400158B10368DB6886
:102C2000984738B1D4F8400103689B68984700235F
:102C3000C4F8403110BD00002DE9F14FD0E9556ACC
:102C40000746B06803681B6A984740F2FB739842D6
:102C500005D8444B444AA32144481FF053FD7068F3
:102C600003681B6A98470F2803D8414B3E4AA421AA
:102C7000F2E7F06803681B6A98470B2803D83D4BBE
:102C8000394AA521E8E70CF015F8DFF8F090043098
:102C90000CF035F8D9F8000010B10368DB689847EC
:102CA000D9F8000010B103681B689847DFF8D0809E
:102CB000D8F8000010B103685B699847D7F83C0169
:102CC00010B103685B689847D8F8000010B103683A
:102CD0001B689847D7F83C0110B103689B68984778
:102CE000F068036800215B6A98474FF0000B224BA5
:102CF000C0F804B0044680F808B00360B068036808
:102D000059465B6A9847054600F0B0FB7068036857
:102D100059465B6A98472946064600F0CFFA331DAC
:102D2000C7F83C61C9F80040C8F80050CAF8003044
:102D30002B68C6F808A02846DB68EE63984733681E
:102D400030461B689847214628460EF063F92368F1
:102D500020461B69984723685B69204601B0BDE89F
:102D6000F04F18472D3E0208BB3E0208873F02087D
:102D7000CE3F02087140020890480208E82D012069
:102D8000E42D0120044B1B6893F858200AB1D86C3D
:102D900000B99868704700BFA02D0120F8B517460C
:102DA00004460E460CF048F8124B1C60124B236090
:102DB000124B0025C4E95135114BC4E9535518682D
:102DC000036801219B68C4E94F55C4E955769847CB
:102DD000284600F0F5F9FFF7D5FF16F072FCFFF773
:102DE000D1FF16F0E9FCFFF7CDFF16F0F1FC20460D
:102DF000F8BD00BFF42D01203C4802082448020819
:102E0000A02D0120064BC0F84C310023C0F85031F2
:102E100000F5A273C0F84801C0F84031704700BF08
:102E2000392C0008406A7047806A704770478A886A
:102E30000B8810B5D20A4C88C1699BB251F82200A8
:102E400043EA0443184410BD10B50446BAB1107BE0
:102E500068B1537BD27A1B0203F4E0631A43236AFE
:102E600003EB82031A888A4202D193F9020010BD53
:102E700005D8013880B204330028F3D1F7E70020E9
:102E8000F5E710B52C2104461EF0FFFC204610BDCE
:102E900030B58BB00446BDF860500895BDF85C5065
:102EA00007959DF8505006959DF84C5005959DF856
:102EB000485004959DF8445003959DF84050029564
:102EC0009DF83C500195BDF8385000950DF0FCFC84
:102ED000064B2360159BE361169B2362199B63627B
:102EE0001A9BA36220460BB030BD00BFB448020855
:102EF0007047000030B5164D2C6814F001048FB0F7
:102F0000BFF35B8F20D128461EF0C1FCE0B13F2308
:102F10000993104B0893104B104911480A94012251
:102F2000CDE906430423CDE903320A230093CDE91A
:102F30000B44CDE901440594FFF7AAFF09481FF0AF
:102F4000FFFB28461EF0AFFC05480FB030BD00BFA8
:102F5000341F0020E0600208306102089C5E020815
:102F6000381F0020F12E00087047000030B5174DC3
:102F70002C6814F001048FB0BFF35B8F22D1284678
:102F80001EF085FCF0B13F230993114B0893114BC0
:102F900007930123CDE9054304930423CDE90243BC
:102FA0000F230D49009326221223CDE90B440B4831
:102FB0000A940194FFF76CFF09481FF0C1FB2846F3
:102FC0001EF071FC05480FB030BD00BF641F00202B
:102FD000E460020834610208AC5E0208681F002049
:102FE000692F00087047000030B5164D2C6814F0AA
:102FF00001048FB0BFF35B8F20D128461EF047FC41
:10300000E0B13F230993104B0893104B104911482E
:103010000A940122CDE906430423CDE903321423A7
:103020000093CDE90B44CDE901440594FFF730FF4F
:1030300009481FF085FB28461EF035FC05480FB0F7
:1030400030BD00BF941F00202861020838610208CB
:10305000C0600208981F0020E52F0008704700009C
:1030600030B5164D2C6814F001048FB0BFF35B8FA0
:1030700020D128461EF00BFCE0B13F230993104BF2
:103080000893104B104911480A940122CDE90643D8
:103090000423CDE9033228230093CDE90B44CDE985
:1030A00001440594FFF7F4FE09481FF049FB284648
:1030B0001EF0F9FB05480FB030BD00BFC41F002053
:1030C0002C6102083C610208D0600208C81F002081
:1030D0005D30000800207047002070470EB403B533
:1030E00003AB002153F8042B01930CF06BFE02B0EC
:1030F0005DF804EB03B070470CB407B504AB53F8AC
:10310000042B01930CF05EFE03B05DF804EB02B0FB
:1031100070470000436C10B5044673B3038F2BB99E
:10312000184B194AC52119481FF0ECFAC38E00EB61
:1031300043035B8C0BB30EF0C6FC238F012B03D82B
:10314000134B144ACB21EEE7E28E531C9BB2092BA2
:10315000194688BFA3F10A0104EB410140F63F1074
:10316000498C814209D10A2B04EB420228BF00237B
:1031700004EB4303508C588451842046BDE8104032
:103180000EF0A4BB144102081D410208C841020808
:1031900012420208204202080EF05FBB10B586B052
:1031A00002AC84E806001A460AAB05930193099B1A
:1031B00000932146089B0BF01BF906B010BD0000E0
:1031C00038B518BB124B13481C681349B4B12268B8
:1031D00022440260626822440A60A26814440F4BD1
:1031E00000221A8000F038F8054600F033F80C4B46
:1031F0001C600C4B1D600C4B188007E00B4B0360F0
:103200000B4B0B600B4B1C68002CE8D138BD00BF8A
:1032100000200020F81F0020F41F0020FC1F0020C9
:10322000F82D0120002E0120FC2D012060610208F4
:1032300040610208AC620208044B1B6853F821008D
:10324000034B1B6803EB4000704700BFF41F0020D6
:10325000F81F00200B207047004870470420002012
:1032600010B5FFF7C1FE064C2060FFF7F9FE606065
:10327000FFF740FEA060FFF779FEE06010BD00BFE1
:103280000420002010B5002404600C6014601C6051
:1032900010BD704704387047704710B510210446C0
:1032A0001EF0F3FA204610BDA0F10400F5E7C06857
:1032B00000F0AABBA0F10400FFF7F9BF0022826072
:1032C000024A02601C324260C16070471C49020819
:1032D0004C4B2DE9F04F0446186803688DB0DB6A4B
:1032E00098470390002800F08980A56AD4F830B090
:1032F000E16AD4F834E0B4F9043007935D45ACBF1B
:103300004FF0FF32012205927145ACBF4FF0FF3202
:1033100001220692ABEB050282EAE27AAEEB0106ED
:10332000AAEBE27A86EAE672A2EBE67202925242D7
:103330000892029AB4F90630AAEB0200A26B02EBE3
:10334000D2725210C2F1000CACEB030304920B9347
:10335000079BEB1A6344E146049A914532DC0B9AD1
:10336000CDF804C0571825E0002B1FDBB4F9082066
:103370009A421BDD002F19DBB4F90A20BA4215DD91
:10338000214EB4F9062036880996B4F904600A96ED
:10339000099E3A4406FB02320A9E3244E66BADF8BF
:1033A0002460039EBDF8248026F81280019A013221
:1033B00001920137049A019E9642D5DD09F1010977
:1033C0000133C9E7AB4501D18E450FD0089AB2EB66
:1033D000400F4FEA400305DC029A801A059A9A458D
:1033E0001544B5DB069B50441944B1E7054B1868FA
:1033F00003681B6B0DB0BDE8F04F18470DB0BDE87A
:10340000F08F00BFA02D0120942D01204A6802609A
:103410008A68426070477047704710B54021044683
:103420001EF033FA204610BD38B5094B0360044640
:103430004FF4F465B5F5A46F05D0635960191B68A6
:103440009847403DF6E72046FEF7F1FF204638BD9D
:10345000B449020810B50446FFF7E6FF204640F2E3
:10346000FC711EF012FA204610BD0000F8B50646A9
:10347000274CFFF7B9F8274B33600FCC002506F532
:10348000A36786F816550FC70FCC0FC754F8043B37
:103490003B600FCC06F23C570FC70FCC0FC7236819
:1034A0001D483B6006F5FC6206F5AC63012404216F
:1034B0009D80DD801D815D819D81DD811D825D821C
:1034C000DD611D845D8483F8245083F825401860F5
:1034D000C3E90555C3E90A55C3E90C55C3E90E15FF
:1034E00040339342E4D11E23C6F8E05786F8EE57E6
:1034F000C6F8F457C6F8E557C6F8E95786F8ED5709
:1035000086F8E457C6F8F057C6F8F8373046F8BDE5
:1035100078370208B44902084C490208002380F8B1
:103520001635C0F80D35C0F8113580F815357047DF
:10353000F8B5054600F5AC6400F5FC670026236885
:1035400084F8256020465B6940349847BC42F6D138
:1035500085F8E067F8BD38B50446002580F8BD520F
:1035600000F526700CF058FD04F5147084F87552BF
:103570000CF052FD04F5457084F839530CF04CFD05
:1035800004F5577084F881530CF046FD04F569701A
:1035900084F8C9530CF040FD04F57B7084F8115495
:1035A0000CF03AFD04F2344084F859540CF034FD28
:1035B00004F27C4084F8A1540CF02EFD84F80553ED
:1035C00004F53870BDE838400CF026BD38B5044627
:1035D0000D4680F81D1200F5FC700CF01DFD04F581
:1035E000A47084F86D510CF017FD04F5BA7084F8DE
:1035F00099510CF011FD04F5D07084F8C5510CF010
:103600000BFD04F5E67084F8F1510CF005FD04F5AE
:10361000097084F849520CF0FFFC04F1C40084F8EE
:10362000E9500CF0F9FC04F1F00084F815510CF0AD
:10363000F3FC84F8415104F58E70BDE838400CF07D
:10364000EBBC2DE9F843D0F8F06704460EBB90F8C8
:10365000165500F204512A4600F2E5701FF039FBBE
:1036600084F8EE5701252046C4F8F057FFF773FFA2
:1036700029462046FFF7AAFF04F5697084F8C9536C
:103680000CF0CAFC2046FFF749FFBDE8F843FFF7FE
:103690004FBF012E34D190F8163590F8EE779F4247
:1036A00000F538782ED100F2045900F2E5713A465F
:1036B00048461FF02EFA054620BB3946484600F022
:1036C00051FB2046FFF747FF2046FFF731FF20461A
:1036D0002946FFF723FFFFF779FF04F57B7084F895
:1036E00011640CF099FC84F8056340460CF094FCDE
:1036F00084F8E457C4F8F05784F8F467A4F8E25764
:10370000BDE8F8832046FFF726FF2046FFF710FFAD
:10371000012520460021FFF701FFFFF757FF04F2C4
:10372000344084F859540CF077FC84F80553404633
:103730000CF072FC002384F8F557C4F8F037DFE78B
:10374000F8B50D79012D044673D190F8F737002BA9
:103750006FD190F8E137002B6BD190F8F437002B44
:1037600067D190F8F537002B63D190F8E4671EB16C
:10377000BDE8F840FFF765BF90F8161500F2045059
:1037800000F024FB0746B0BB2046FFF7E4FE84F8B8
:10379000BD5204F526700CF03FFC94F8F637013367
:1037A000DBB2042B84F8F6371ED91E26204684F897
:1037B000F757C4F8F867FFF7CEFE2046FFF7B8FECC
:1037C00020463946FFF7AAFEFFF700FFB4F8F837A6
:1037D000184A314604F599600EF01EFF84F8A15492
:1037E00004F27C400CF018FC2046FFF797FEBDE881
:1037F000F840FFF79DBE204684F8F667FFF7ABFE62
:103800002046FFF795FE20463146FFF787FEFFF77B
:10381000DDFE04F5387084F805530CF0FDFB84F8E8
:10382000395304F545700CF0F7FB84F8E157A4F820
:10383000E267F8BDF242020838B590F8E137044675
:10384000002B5BD0B0F8E23701339BB2B3F5967F23
:10385000A0F8E23752D3002580F8E157A0F8E257EC
:1038600080F8055300F538700CF0D6FB84F8395316
:1038700004F5457001250CF0CFFB04F5FC7084F8CD
:103880001D520CF0C9FB04F5A47084F86D510CF0C6
:10389000C3FB04F5BA7084F899510CF0BDFB04F534
:1038A000D07084F8C5510CF0B7FB04F5E67084F8CD
:1038B000F1510CF0B1FB04F5097084F849520CF099
:1038C000ABFB04F1C40084F8E9500CF0A5FB04F153
:1038D000F00084F815510CF09FFB04F58E7084F80D
:1038E00041510CF099FB04F5147084F875520CF0FA
:1038F00093FB2046FFF712FEFFF71AFE94F8F73706
:103900003BB1B4F8FA3701339BB23B2B4AD8A4F849
:10391000FA3794F8F437FBB1B4F8E23701339BB2CD
:10392000952BA4F8E23717D9002384F8F437A4F8CC
:10393000E2372046FFF70FFE01212046FFF746FE43
:10394000012384F8753204F514700CF065FB2046F1
:10395000FFF7E4FDFFF7ECFD94F8F537002B50D0AE
:10396000B4F8E23701339BB2952BA4F8E23748D97B
:10397000002384F8F537A4F8E2372046FFF7EBFD83
:1039800020460121FFF722FE012384F8813304F54C
:1039900057700CF041FB2046FFF7C0FDBDE83840F2
:1039A000FFF7C6BD0023A4F8FA37B4F8F8378BB197
:1039B000013B9BB2A4F8F837124A1E2104F5996026
:1039C0000EF02AFE012384F8A13404F27C400CF0AE
:1039D00023FB9EE7A4F8F6371E23A4F8F837204609
:1039E000FFF7B9FD2046FFF799FDFFF7A1FD20463F
:1039F0000121FFF7EBFD012384F8753204F5147003
:103A0000E5E738BDF242020870B5044600250126FC
:103A100080F8E15780F8F75780F8E467C0F8F0576E
:103A2000A0F8F457FFF77AFDFFF782FD2046C4F8AF
:103A3000E557C4F8E95784F8ED57FFF78CFD2046A9
:103A40003146FFF7C3FD84F8816304F55770BDE884
:103A500070400CF0E1BA10B50446FEF7E9FC2046D0
:103A6000FFF75CFDBDE81040FFF762BD2DE9F04FA8
:103A700090F81635012B87B0044640F2B38090F8D9
:103A8000E057092D00F2AE80034400EB851693F851
:103A9000022593F8033500EB820200EB8303D2F892
:103AA0001415D2F8382502F10F09D3F81425D3F8EC
:103AB0003835C6F88C950F3301F10F0B02F10F0A60
:103AC0000193019AC6F89435D3455B46A8BF534687
:103AD0009BB24A45A8BF4A460293B6F8983505936B
:103AE00092B203925A0092B20492029AC6F888B532
:103AF00040274FF4AC68D11A17FB0585D6F860252E
:103B0000C6F890A505442846126B09B29047039A5F
:103B1000059BD11AD6F8603528465A6B09B29047F2
:103B20000499029BD345ACBF59445144C91AD6F8F5
:103B3000603528469B6B09B29847019B04999945CB
:103B4000ACBF4944C918039BC91AD6F8603509B2FD
:103B50002846DB6B9847D6F8603528465B6998475E
:103B600094F8E00704EB80130422C3F89825D3F8F7
:103B7000603517FB00805B692044984794F8E007A4
:103B800004EB80130022C3F89C25D3F8603517FBA3
:103B900000805B692044984794F8E01704EB811398
:103BA0000122251D17FB018183F885252144284624
:103BB00005F04FF994F8E01717FB018121442846DE
:103BC00005F006F994F8E03717FB038004EB831344
:103BD0002044D3F860355B69984794F8E0370133A7
:103BE00084F8E03707B0BDE8F08F30B444180346DE
:103BF00094F80D2582B990F81625082A0CD813449C
:103C0000551C013180F8165583F80415012384F8FA
:103C10000D3530BCFFF72ABF30BC704790F8F7373E
:103C20002DE9F041044613BB90F8E137FBB990F859
:103C3000F437E3B990F8F557CDB9B1F90A70B1F995
:103C40000C8000F2145656F8043F726A0F320F339C
:103C5000A8EB0202FB1A524303FB0323E02B03DC15
:103C6000E9B22046FFF7C1FF0135092DEBD1BDE8D0
:103C7000F081704710B54FF4AE7104461DF005FE9B
:103C8000204610BD10B50446D0F8580100F038F8B1
:103C90002046BDE810400BF08FB8000010B5044678
:103CA000FFF77CF8014B2360204610BDE84902086D
:103CB000002202607047000038B50F480F4D012107
:103CC00000F098FF0128044612D12B6823B900F0B8
:103CD0006FFB2860002038BD00F06AFB2B68C01A1B
:103CE00040F6B7339842F5D900232B602046F2E71F
:103CF00000232B60EEE700BF0000024014200020EC
:103D000010B50446FFF7D8FF28B120680368BDE866
:103D100010409B68184710BD7FB500F03FFD0023A1
:103D200001930B210123CDE9031301A80223694666
:103D3000059300F027FE00F043FD07B05DF804FB9B
:103D400000200A2202FB00F303F1006303F5602365
:103D50001B78FF2B03D001303228F3D17047C0B25B
:103D600070470000F8B54B1E082B05460E4629D8B3
:103D7000FFF7E6FF312802D9FFF7CEFF002004B29B
:103D800004EB8404640000F009FD002304F10061E9
:103D9000324601F56021184600F044FD70B90A4F23
:103DA0002E442744002315F8012B3946184600F00D
:103DB00039FD18B9B54207F10107F3D1BDE8F84064
:103DC00000F0FEBCF8BD00BF01000E08F8B50C4CB9
:103DD0000C4F06460D462278531EDBB2FD2B07D84A
:103DE000AA4205D12A463146601C1EF092FE20B13F
:103DF0000A34BC42EFD10020F8BD0120FCE700BF2F
:103E000000000E08F4010E08F02070474FF4A07077
:103E100070472920FDF72CBF2820FDF729BF08B5E2
:103E2000FDF7FAFECA20FDF723FFC320FDF704FFCC
:103E30000820FDF701FF5020FDF7FEFECF20FDF723
:103E400017FF0020FDF7F8FEC120FDF7F5FE30203A
:103E5000FDF7F2FEED20FDF70BFF6420FDF7ECFE11
:103E60000320FDF7E9FE1220FDF7E6FE8120FDF7B5
:103E7000E3FEE820FDF7FCFE8520FDF7DDFE0020D7
:103E8000FDF7DAFE7820FDF7D7FECB20FDF7F0FE38
:103E90003920FDF7D1FE2C20FDF7CEFE0020FDF7E6
:103EA000CBFE3420FDF7C8FE0220FDF7C5FEF7204B
:103EB000FDF7DEFE2020FDF7BFFEEA20FDF7D8FE6D
:103EC0000020FDF7B9FE0020FDF7B6FEB120FDF79A
:103ED000CFFE0020FDF7B0FE1B20FDF7ADFEB620A3
:103EE000FDF7C6FE0A20FDF7A7FEA220FDF7A4FEFF
:103EF000C020FDF7BDFE1020FDF79EFEC120FDF79E
:103F0000B7FE1020FDF798FEC520FDF7B1FE452055
:103F1000FDF792FE1520FDF78FFEC720FDF7A8FEE6
:103F20009020FDF789FE3620FDF7A2FEC820FDF7A0
:103F300083FEF220FDF79CFE0020FDF77DFEB02001
:103F4000FDF796FEC220FDF777FEB620FDF790FE46
:103F50000A20FDF771FEA720FDF76EFE2720FDF772
:103F60006BFE0420FDF768FE2A20FDF781FE00208D
:103F7000FDF762FE0020FDF75FFE0020FDF75CFE0E
:103F8000EF20FDF759FE2B20FDF772FE0020FDF714
:103F900053FE0020FDF750FE0120FDF74DFE3F20AF
:103FA000FDF74AFEF620FDF763FE0120FDF744FE13
:103FB0000020FDF741FE0620FDF73EFE2C20FDF718
:103FC00057FEC820FDF7A2FE2620FDF751FE012076
:103FD000FDF732FEE020FDF74BFE0F20FDF72CFE33
:103FE0002920FDF729FE2420FDF726FE0C20FDF7F1
:103FF00023FE0E20FDF720FE0920FDF71DFE4E20BA
:10400000FDF71AFE7820FDF717FE3C20FDF714FEA1
:104010000920FDF711FE1320FDF70EFE0520FDF728
:104020000BFE1720FDF708FE1120FDF705FE00200E
:10403000FDF702FEE120FDF71BFE0020FDF7FCFD71
:104040001620FDF7F9FD1B20FDF7F6FD0420FDF716
:10405000F3FD1120FDF7F0FD0720FDF7EDFD312008
:10406000FDF7EAFD3320FDF7E7FD4220FDF7E4FD13
:104070000520FDF7E1FD0C20FDF7DEFD0A20FDF730
:10408000DBFD2820FDF7D8FD2F20FDF7D5FD0F2003
:10409000FDF7D2FD1120FDF7EBFDC820FDF736FE40
:1040A0002920FDF7E5FDBDE808402C20FDF7E0BD27
:1040B00008B5FDF7B1FD0321D320FDF7F5FD80B272
:1040C00008BD10B5C4B2022203212046FDF75AFDF7
:1040D0000A20FDF79FFD204600220321FDF752FD37
:1040E000BDE810400220FDF795BD38B50446E4B2A6
:1040F000FDF746FD00212046FDF75CFD0121054648
:104100002046FDF757FD40EA052080B238BD10B5C6
:10411000C4B240212046FDF74DFD030607D54C21D2
:104120002046FDF747FD003818BF012010BD0122D1
:104130004B212046FDF726FD204600224B21FDF7AE
:1041400021FD0020F2E773B50423C4B20E461546E4
:10415000D7210DEB03022046FDF746FD019B1BBA5C
:104160001A0DC3F30B23328020462B8001224B21F2
:10417000FDF708FD00224B212046FDF703FD02B0AC
:1041800070BD000010B50A4A1378984204460DD05D
:10419000517888420AD00BB141B90123D454FDF7BC
:1041A000EFFC2046BDE81040FFF78BBF10BD00BFFD
:1041B0001820002010B5C4B209212046FDF7FAFCF2
:1041C00040F00102D2B220460921BDE81040FDF7BF
:1041D000D9BC10B5C4B209212046FDF7EBFC09217A
:1041E00000F0FE022046BDE81040FDF7CBBC38B51C
:1041F000C4B20D4620460A21FDF7DCFC40EA050268
:10420000D2B220460A21BDE83840FDF7BBBC10B54C
:104210000446FDF7B6FC20461F21FFF7E8FF2046C5
:10422000BDE81040FFF7C6BF38B5C4B20D46204602
:104230000A21FDF7BFFC20EA0502D2B220460A217E
:10424000BDE83840FDF79EBC10B50446FFF7C1FF3E
:1042500020461F21BDE81040FFF7E6BF10B5C0B2F1
:104260000C460B21FDF7A6FC204010BD1F21FFF7D7
:10427000F5BF0A46C0B20B21FDF784BC1F21FFF732
:10428000F8BF38B5C4B20D4620461721FDF792FCA1
:1042900020EA0502D2B220461721BDE83840FDF7DA
:1042A00071BC70B5C4B2064604212046FDF782FCFD
:1042B000042100F0FB0205462046FDF763FC304672
:1042C000F021FFF7DEFF05F0F80220460421FDF79C
:1042D00059FC492220212046FDF754FC0220FDF71D
:1042E00099FC204601222121FDF74CFC20469A2210
:1042F0004121FDF747FC204601224A21FDF742FCFF
:10430000204601224B21FDF73DFC204600224B2197
:10431000FDF738FC204601225621FDF733FC2046EC
:1043200001225821FDF72EFC204601224021FDF7F5
:1043300029FC2046FF220B21FDF724FCBDE870403C
:104340000220FDF767BC0000054BD3F8882042F43B
:104350007002C3F888204FF000629A60704700BF77
:1043600000ED00E008B50B4B1A6842F400721A60C9
:104370001A6842F480621A601A6842F480721A6005
:10438000032000F02FF80020FDF702FFFDF7CCFC22
:10439000002008BD003C0240034A044B11681B7812
:1043A0000B441360704700BF1C20002078000020E1
:1043B000014B1868704700BF1C20002038B5044628
:1043C000FFF7F6FF631C1CBF054B1B78054618BFA3
:1043D000E418FFF7EDFF431BA342FAD338BD00BF3B
:1043E000780000200749CA6822F4E0620302120440
:1043F00003F4E063120C134343F0BF6343F4003350
:10440000CB60704700ED00E0164B30B5DC68C4F3BC
:104410000224C4F10703251D042B28BF0423062D05
:104420004FF0FF358CBF033C002405FA03F321EA6B
:104430000303A54022EA0502A340002843EA020341
:10444000ACBF00F16040084A4FEA0313B8BF00F068
:104450000F00DBB2AABF00F56140135480F80033AF
:1044600030BD00BF00ED00E014ED00E0002807DBE8
:10447000044A4109012300F01F00834042F8213023
:10448000704700BF00E100E010B5044650B1437929
:1044900003F0FF0213B90271FDF766FC012363719B
:1044A000002010BD0120FCE710B5044620B390F8B1
:1044B000393003F0FF021BB980F83820FDF76CFC9F
:1044C000022384F83930236861681A6822F4403284
:1044D0000A431A605A6BA16822F007020A435A6322
:1044E0001A6CE1686FF30D020A431A64002001237D
:1044F000E06384F8393010BD0120FCE77047704755
:10450000036870B55E681D68F207044614D5E905B6
:1045100012D51A6822F480721A60C26B42F001024E
:10452000C26301229A60042380F83930002380F8A6
:104530003830436903B19847B20616D5AB0414D599
:1045400023681A6822F400521A6020229A60E36BF2
:1045500043F00203E363042384F83930002384F832
:10456000383063690BB120469847300716D52905C6
:1045700014D523681A6822F400621A6008229A602F
:10458000E36B43F00403E363042384F8393000232E
:1045900084F8383063690BB12046984772070BD511
:1045A0006B0509D523681A6822F480621A60042218
:1045B0009A602046FFF7A2FFB00714D5A90512D5CF
:1045C00023681A6822F400721A6002229A60E36B70
:1045D000E363012384F83930002384F838302369F9
:1045E0000BB120469847F20613D5EB0411D523688A
:1045F0001A6822F480521A6010229A60E36BE36317
:10460000012384F83930002384F838302046FFF73E
:1046100076FF70BDF0B590F83820012A03464FF0C0
:1046200002002BD0012283F8382083F8390003EBF5
:104630000112D2E90740556A174F44EA0040093C8D
:10464000012C9CBF05F07F4210434FEA01161A6807
:1046500088BF40EA056091B9516A3940014351620F
:10466000012C9969916103D8596A21F07F419162C7
:104670000122002083F8392083F83800F0BDD16989
:1046800039400143D1619919012C896911619CBF9D
:1046900025F07F451562EBE7F0FFFC00094910B5F6
:1046A0000C6924F440740C610C6944F440740C618E
:1046B0000C6944F001040C610260BFF36F8F43602A
:1046C00010BD00BF003C0240074B1A6922F4407243
:1046D0001A611A6942F400721A611A6942F0010201
:1046E0001A610160704700BF003C0240074B1A6925
:1046F00022F440721A611A6942F480721A611A69CE
:1047000042F001021A610180704700BF003C024084
:10471000204BDA68D00606D51F49CA6942F010025C
:10472000CA611022DA60DA68910606D51A49CA69A8
:1047300042F00802CA612022DA60164BDA6852069B
:1047400006D51549CA6942F00402CA614022DA60FE
:10475000DA68100606D51049CA6942F00202CA6139
:104760008022DA600B4BDA68D10507D50A49CA699D
:1047700042F00102CA614FF48072DA60DA6892078F
:1047800006D50549CA6942F02002CA610222DA60F0
:10479000704700BF003C024020200020064B1A69F1
:1047A000002ABFBF054A5A6002F188325A60BABF78
:1047B0001869C00F00207047003C02402301674584
:1047C000034A136943F0004313610020704700BFA0
:1047D000003C0240114B70B500220446DA61FFF73D
:1047E000E7FD0F4D0646EB68DA030CD4EB68DB07F8
:1047F00044BF0123EB60E86810F4F97007D0FFF7BD
:1048000087FF012003E0611CEDD00CB9032070BDCF
:10481000FFF7CEFD801BA042E5D9F7E7202000205E
:10482000003C02402DE9F0411F4E9846337E012B9B
:1048300007460D46144635D001234CF250303376EE
:10484000FFF7C8FFB0B9CFB9184B1A6922F440720C
:104850001A611A691A611A69E4B242F001021A6116
:104860002C704CF25030FFF7B5FF104A136923F05B
:104870000103136100233376BDE8F081012F04D1D9
:10488000A1B22846FFF732FFEBE7022F04D1214601
:104890002846FFF719FFE4E7224643462846FFF77C
:1048A000FDFEDEE70220E7E720200020003C02407A
:1048B0000C4B1A6922F440721A6103291A690BD150
:1048C00042F4004242F004021A611A6942EA0020EE
:1048D00040F48030186170470129F3D042F400425F
:1048E000F2E700BF003C02400F4B1A6922F440720D
:1048F0001A611A69022994BF09024FF440710A43F0
:104900001A611A6922F0F8021A611A690B2888BF25
:10491000043042EAC00242F002021A611A6942F40B
:1049200080321A61704700BF003C0240144B1A6885
:1049300091050FD51A6822F400721A601A6842F4C1
:1049400000621A601A6822F400621A601A6842F45F
:1049500000721A600A4B1A6852050FD51A6822F4C1
:1049600080621A601A6842F480521A601A6822F44F
:1049700080521A601A6842F480621A60704700BF61
:10498000003C02402DE9F843DFF89C8098F818308D
:10499000012B05460F4642D001234CF2503088F8D7
:1049A0001830FFF717FF0446B8B94FF0FF333B60EC
:1049B0002B68012B17D16968287CFFF779FF4CF22F
:1049C0005030FFF707FF174A136923F4004323F021
:1049D000040304461361FFF7A9FF002388F8183089
:1049E0002046BDE8F883AE68DFF83890D5E90223A9
:1049F0001344B342EFD9297C3046FFF775FF4CF2E0
:104A00005030FFF7E7FED9F8103023F0FA03C9F869
:104A1000103010B13E600446DDE70136E6E70224BF
:104A2000DEE700BF003C0240202000202DE9F74FC8
:104A3000DFF8BC916C4A00230D6801249C4004EA15
:104A40000506AC4340F0B7804D68032705F003042A
:104A50004FEA430807FA08FC671E012F6FEA0C0CA7
:104A600034D8876807EA0C0ECF6807FA08F747EAD8
:104A70000E078760476827EA060EC5F300179F40B8
:104A800047EA0E074760C76807EA0C0E8F6807FA07
:104A900008F747EA0E07022CC76019D14FEAD30A7C
:104AA00000EB8A0A03F0070BDAF820704FEA8B0B51
:104AB0004FF00F0E0EFA0BFE27EA0E0E0F6907FAE3
:104AC0000BF747EA0E07CAF8207001E0032CDAD191
:104AD000076804FA08F407EA0C073C4315F4403F62
:104AE000046068D000240194D9F8444044F4804420
:104AF000C9F84440D9F8444023F0030707F1804740
:104B000004F4804407F59C37019403F0030C019CE6
:104B1000D7F808E04FEA8C0C0F2404FA0CF42EEAC4
:104B2000040E324CA0424DD004F58064A0424BD01C
:104B300004F58064A04249D004F58064A04247D0C7
:104B400004F58064A04245D004F58064A04243D0BF
:104B500004F58064A04241D004F58064A0423FD0B7
:104B600004F58064A0423DD004F58064A04214BFE7
:104B70000A24092404FA0CF444EA0E04BC60946884
:104B8000F74315F4801F0CBF3C4034439460D46855
:104B900015F4001F0CBF3C403443D460546815F436
:104BA000003F0CBF3C40344354601468ED0354BFD5
:104BB0003C40344314600133102B7FF43DAF03B00D
:104BC000BDE8F08F0024D5E70124D3E70224D1E724
:104BD0000324CFE70424CDE70524CBE70624C9E767
:104BE0000724C7E70824C5E7003C01400000024055
:104BF000003802400369194214BF012000207047A9
:104C00000AB1816170470904FBE7436901EA0302C5
:104C100021EA030141EA02418161704701684B6961
:104C200013F480634FF0000210D06FF480634B6187
:104C30002023026380F83D3080F83E20036C80F82A
:104C40003C2043F00403036401207047184670477A
:104C50002DE9F84606460F4691461D464FEA114A91
:104C60003368BAF1010F0CBF5C699C6927EA040440
:104C7000A4B2B4FA84F46409A14501D0002025E06F
:104C80006A1CEED0FFF794FB089BC01AA84201D81B
:104C9000002DE5D13368BAF1010F0CBF5B699B6948
:104CA00027EA03039BB2B3FA83F35B099945D7D193
:104CB00000232022336386F83D2086F83E30326C94
:104CC00086F83C3042F0200232640120BDE8F886CC
:104CD0002DE9F04104460F46164698462568686956
:104CE00027EA000080B2C0B16B695A0517D52B685E
:104CF00043F400732B606FF480636B612022002308
:104D0000236384F83D2084F83E30236C43F0040391
:104D10002364002384F83C300120BDE8F081731C3B
:104D2000DDD0FFF745FBA0EB0800B04201D8002E14
:104D3000D4D123685A6927EA020292B2002ACDD060
:104D400000232022236384F83D2084F83E30236C26
:104D50001343DDE770B504460D46164623685B69CC
:104D60001B0601D500201EE02046FFF757FFC8B9FB
:104D70006A1CF3D0FFF71CFB801BA84201D8002D52
:104D8000ECD123685B6913F08003E7D12022236311
:104D900084F83D2084F83E30226C84F83C3042F0A8
:104DA00020022264012070BD2DE9F04315460268FF
:104DB00085B0DDE90C789946136843F4807313607D
:104DC0000E463B46CDF8008000224FF0011104460C
:104DD000FFF73EFF236838B11B68DB0502D54FF4AF
:104DE00000732364032620E006F0FE061E611A49C4
:104DF00043463A462046FFF76BFFA8B92368039065
:104E00005A6903929B690393424639462046039BA5
:104E1000FFF7A0FF064660B1236C042B01BF226898
:104E2000136843F4007313600126304605B0BDE8F3
:104E3000F083B9F1010F236802D1EDB21D61F4E7EF
:104E40002A0A1A61394642462046FFF783FF0028A6
:104E5000E2D12368F1E700BF020001002DE9FF471E
:104E60009A46036815461A6842F480621A601A6806
:104E7000DDE90C7842F480721A600E463B46CDF8AC
:104E8000008000224FF001110446FFF7E1FE236885
:104E900038B11B68DB0544BF4FF400732364032063
:104EA00021E05FFA86F906F0FE061E612B494346B3
:104EB0003A462046FFF70CFFA0B9236803905A69D1
:104EC00003929B690393424639462046039BFFF7B2
:104ED00041FF58B1236C042B01BF2268136843F4CF
:104EE00000731360012004B0BDE8F087BAF1010F30
:104EF00023681AD1EDB242461D6139462046FFF7BC
:104F000029FF02460028E5D121680B6843F480732D
:104F10000B602046CDF800803B464FF00111FFF7B3
:104F200097FE226860B11368B4E72A0A1A6139460D
:104F300042462046FFF70EFF0028CBD12368D9E771
:104F400049F001031361054943463A462046FFF7FD
:104F5000BFFE003818BF0120C5E700BF02000100F6
:104F600070B504460D46164623685B695B0701D59C
:104F700000201EE02046FFF751FEC8B96A1CF3D09E
:104F8000FFF716FA801BA84201D8002DECD1236848
:104F90005B6913F00403E7D12022236384F83D20EA
:104FA00084F83E30226C84F83C3042F020022264C7
:104FB000012070BD70B504460D46164621684B6948
:104FC00013F0400301D0002011E04A69D2060FD54A
:104FD0006FF010024A612022236384F83D2084F898
:104FE0003E30236C2364002384F83C30012070BDE4
:104FF000FFF7DEF9801BA84201D8002DDED123681F
:105000005B6913F04003D9D12022236384F83D204B
:1050100084F83E30236C1343E4E7000070B5044687
:1050200008B9012070BD90F83D3003F0FF021BB9B4
:1050300080F83C20FCF7D2FE242384F83D3023681E
:105040001A6822F001021A601A6842F400421A60DB
:105050001A6822F400421A6000F0A8FE3F4B65680F
:105060009D4294BF3E4B3F4B98428CBF002301238F
:10507000002BD6D12268394E51683B4BB0FBF3F37D
:1050800021F03F011943B542516088BF4FF4967635
:10509000116A88BF734321F03F0184BF4FF47A76D1
:1050A000B3FBF6F301330B431362D169431E2B4864
:1050B00021F44F41854221F0FF0132D86D0040F6C6
:1050C000FC70B3FBF5F30133034242D0C3F30B038F
:1050D0001943D161D4E907301168034321F0C001BD
:1050E0000B4313609168D4E9030321F403410343A4
:1050F00021F0FF010B439360D4E90530D1680343ED
:1051000021F0FF010B43D360136843F001031360E8
:1051100000202023206484F83D30206384F83E0082
:1051200080E7A06850B905EB4505B3FBF5F3013303
:10513000C3F30B037BB143F40043C9E71920684371
:10514000B3FBF0F30133C3F30B0323B143F4404348
:10515000BEE70423BCE70123BAE700BFA086010035
:105160007F841E00FF083D0040420F002DE9F743F9
:10517000044699460C9E0F469046FFF719F994F89D
:105180003D30202B054603D0022003B0BDE8F0835C
:1051900000903C49192301222046FFF759FD0028C1
:1051A000F2D194F83C30012BEED02068012384F832
:1051B0003C300368D9075EBF036843F00103036016
:1051C000036823F400630360212384F83D30402307
:1051D00084F83E30002323640A9B6362BDF82C30C0
:1051E0006385638D2385284BE3624246CDE90065E4
:1051F0004B4639462046FFF7D7FD00282AD001202C
:10520000C3E7FFF7A7FD40B1236C042B01BF226861
:10521000136843F400731360F1E7636A27681A4662
:1052200012F8011B39616262628D218D013A92B2DE
:1052300062857A69481E80B2520720850AD548B136
:105240005A783A6102336362638D013B02399BB243
:1052500021856385238D2A4631462046002BD0D1F7
:10526000FFF77EFE0028CFD12268136843F4007355
:105270001360202384F83D3084F83C0084F83E001D
:1052800083E700BF020010000000FFFF2DE9F0439C
:10529000044687B09946109F0D469046FFF788F860
:1052A00094F83D30202B064604D00225284607B04E
:1052B000BDE8F08300907A49192301222046FFF7C8
:1052C000C7FC0028F1D194F83C30012BEDD02068C8
:1052D000012384F83C300368DB075EBF036843F0BA
:1052E00001030360036823F400630360222384F84E
:1052F0003D30402384F83E30002323640E9B6362DC
:10530000BDF83C306385638D2385664BE362294697
:10531000CDE900764B4642462046FFF79FFD054605
:1053200008B10125C2E7228D2368B2B902905A69FB
:1053300002929A690292029A1A6842F400721A6002
:10534000DFF86481238D002B2CD1202284F83D20AE
:1053500084F83C3084F83E30A8E7012A0AD11A6864
:1053600022F480621A6003905A6903929A69039248
:10537000039AE1E7022A0ED11A6822F480621A60C9
:105380001A6842F400621A6004905A6904929B6998
:105390000493049BD4E705905A6905929B69059391
:1053A000059BCDE7032B56D8012B15D13246394644
:1053B0002046FFF7FFFD0028B3D123681A69636A0E
:1053C0001A70636A01336362238D013B2385638D09
:1053D000013B9BB26385B5E7022B00963B464FF03D
:1053E00000024146204619D1FFF732FC002898D12F
:1053F00023681A6842F400721A601A69636A1A70A4
:10540000626A531C6362238D013B2385638D013BDC
:105410009BB2638523681B695370D2E7FFF718FCC2
:10542000024600287FF47DAF2368196821F480616B
:1054300019601969636A1970636A01336362238DA5
:10544000013B2385638D013B9BB2638541460096FA
:105450003B462046C8E7324639462046FFF7AAFDBC
:1054600000287FF45EAF23681A69636A1A70628D40
:10547000616A013A92B24B1C628522686362238D95
:105480005069013B9BB2400723857FF55BAF032B3F
:1054900002BF136823F48063136013694B7090E7B5
:1054A000020010000000FFFF0400010010B590F89A
:1054B0003D30202BDCB216D1242380F83D30036828
:1054C0001A6822F001021A605A6A22F010025A6227
:1054D0005A6A114359621A6842F001021A6080F850
:1054E0003D40002010BD0220FCE730B590F83D3073
:1054F000202BDCB216D10268242380F83D301368DB
:1055000023F001031360556A4FF6F0732B400B43F1
:105510009BB25362136843F00103136080F83D406F
:10552000002030BD0220FCE70068D1F800C0D201A5
:10553000843283182DE9F043C6685D684C68D1F861
:10554000189005F470455D60C5680CF10107C5F35E
:105550000B45C6F30B4626443D4445EA06455D60CF
:10556000C668CD68C6F30A062E449D6805F47045EA
:105570009D60C7688D68C7F30A0701353D4445EA59
:1055800006459D601D690E6925F007051D614FF0F8
:10559000000E1E6191F832709D6991F83180C3F858
:1055A00018E091F8305045EA096545EA082545EAD2
:1055B00007459D615D6925F0FF055D614D695D6190
:1055C000DD6925F4E06525F00705DD61D1E90757C0
:1055D0003D43DD619D6A4D6AC3F828E0072E9D6258
:1055E0009CBF0E4DAE5DDD6A05F0E025DD6288BF33
:1055F00001268D6AC96AA4EB0C0474437543033415
:1056000044EA0544DC621C6B6FF30A041C631963F3
:10561000835843F001038350BDE8F0834C4A0208ED
:1056200038B50446002863D090F8A13003F0FF029B
:105630001BB980F8A020FCF72DFC022384F8A130D0
:1056400023689A6922F070429A61D4E901200243EA
:10565000E06899690243206902430A439A619A68A3
:10566000244960690A409A609A6842EA0042A06947
:1056700002439A60DA68E0690A40DA60DA6842EA6E
:105680000042206A0243DA601A69606A0A401A61BD
:105690001A6942EA0042A06A02431A615A690A4042
:1056A0005A615A69E16A42EA0142216B0A435A612E
:1056B000DA6A94F8350094F8361002F07F42DA6224
:1056C000DD6A94F834202A4342EA002242EA014289
:1056D000DA625A6B42F006025A639A6942F001029A
:1056E0009A6100200123C4F8A40084F8A13038BDD9
:1056F0000120FCE700F800F070477047036870B5C0
:105700009E6B5D6B7207044614D5690712D55A6B00
:1057100022F004025A630422DA63D0F8A43043F082
:105720000103C0F8A430002380F8A12080F8A03045
:10573000FFF7E2FFB20716D5AB0714D523685A6B03
:1057400022F002025A630222DA63D4F8A43013432F
:10575000C4F8A430042384F8A130002384F8A030D6
:105760002046FFF7C9FFF00710D5E9070ED52368DB
:105770005A6B22F001025A630122DA63002384F893
:10578000A12084F8A0302046FBF746FF320711D550
:105790002B070FD523685A6B22F008025A630822A0
:1057A000DA63012384F8A130002384F8A030204676
:1057B000FFF7A3FF70BD2DE9F04190F8A030012B59
:1057C00006460F4694464FF002001FD04FF00108E6
:1057D00086F8A08086F8A10034240D4604FB0264FC
:1057E0000FCD38340FC40FCD0FC40FCD0FC42B68AD
:1057F0002360304662463946FFF796FE3368002044
:10580000C3F8248086F8A18086F8A000BDE8F08166
:1058100090F8A020012A03464FF0020012D01A6827
:1058200083F8A100506B20F001005063064801642A
:10583000516B41F0010151630020012283F8A12046
:1058400083F8A000704700BF0068014037B500230F
:105850000193184B184D1A6C42F080521A641B6C5D
:1058600003F080530193019B144B01221A64FEF74D
:105870009FFD04466B68DA030BD5104B0E4D0122D9
:105880005A64FEF795FD04466B689B030AD5002019
:1058900006E0FEF78DFD001BB0F57A7FEAD9032004
:1058A00003B030BDFEF784FD001BB0F57A7FEBD965
:1058B000F5E700BF003802400070004000000E42D3
:1058C0002DE9F341044640B30368DE0710D4236892
:1058D0009D075BD42368190700F19D8023685A0750
:1058E00000F1BD80A369002B40F0248100202CE052
:1058F0008D4B9A6802F00C02042A07D09A6802F0D5
:105900000C02082A0BD15B68590208D5864B1B682C
:105910009A03DCD56368002BD9D1012015E06368B8
:10592000814DB3F5803F13D12B6843F480332B6056
:10593000FEF73EFD7C4E054633689B03C7D4FEF759
:1059400037FD401B6428F7D9032002B0BDE8F08181
:10595000B3F5A02F04D12B6843F480232B60E3E739
:105960002A6822F480322A602A6822F480222A607F
:10597000002BDDD1FEF71CFD06462B689F03A6D544
:10598000FEF716FD801B6428F7D9DDE7664B9A68A1
:1059900012F00C0F07D09A6802F00C02082A11D1FD
:1059A0005B685D020ED4604A1368990702D5E3680C
:1059B000012BB2D11368216923F0F80343EAC10334
:1059C000136087E7E268594BB2B101221A60FEF713
:1059D000EFFC554D06462B689B0707D52B682269BF
:1059E00023F0F80343EAC2032B6073E7FEF7E0FC01
:1059F000801B0228EFD9A7E71A60FEF7D9FC4A4EB0
:105A0000054633689F077FF565AFFEF7D1FC401B65
:105A10000228F6D998E76269444B82B10122C3F8A3
:105A2000802EFEF7C5FC404E0546736F9B073FF581
:105A300055AFFEF7BDFC401B0228F6D984E7C3F83A
:105A4000802EFEF7B5FC384E0546736F9F077FF535
:105A500045AFFEF7ADFC401B0228F6D974E7324B88
:105A60001A6C12F0805228D101921A6C42F08052C6
:105A70001A641B6C03F080530193019B01272C4D8A
:105A80002B68D8051BD5A368274D012B27D12B6F79
:105A900043F001032B67FEF78BFC234E054641F2D2
:105AA0008838336F9A0739D5002F3FF41BAF1E4A51
:105AB000136C23F08053136414E70027DFE72B688F
:105AC00043F480732B60FEF773FC06462B68D90500
:105AD000D9D4FEF76DFC801B0228F7D934E7052BDB
