:020000040800F2
:10000000000003205D0600080D2200080F220008F2
:100010001122000813220008152200080000000029
:1000200000000000000000000000000081680008DF
:10003000172200080000000011690008A1610008F3
:10004000AD060008AD060008AD060008AD060008C4
:10005000AD060008AD060008AD060008AD060008B4
:10006000AD060008AD060008AD060008AD060008A4
:10007000AD060008AD060008AD060008AD06000894
:10008000AD060008AD060008AD060008AD06000884
:10009000AD060008AD060008AD060008AD06000874
:1000A000AD060008AD060008AD060008AD06000864
:1000B000AD060008AD060008AD060008AD06000854
:1000C000AD060008AD060008AD060008AD06000844
:1000D000AD060008AD060008AD060008AD06000834
:1000E000AD060008AD060008AD060008AD06000824
:1000F000AD060008AD060008AD060008AD06000814
:10010000AD060008AD060008AD060008AD06000803
:10011000AD060008AD06000819220008AD0600086B
:10012000AD060008AD060008AD060008AD060008E3
:10013000AD060008AD060008AD060008AD060008D3
:10014000AD060008AD060008AD060008AD060008C3
:10015000AD060008AD060008AD060008AD060008B3
:10016000AD060008AD060008AD060008AD060008A3
:10017000AD060008AD060008AD060008000000004E
:10018000AD060008AD060008AD060008AD06000883
:10019000AD060008AD060008AD060008AD06000873
:0C01A00025220008AD06000831220008EE
:1001B00010B5054C237833B9044B13B10448AFF3A1
:1001C00000800123237010BD800300200000000088
:1001D000F425020808B5034B1BB103490348AFF3EC
:1001E000008008BD0000000084030020F425020800
:1001F00001F0FF01102A2BDB10F0070F08D010F8D8
:10020000013B013A8B422DD010F0070F42B3F6D1DB
:10021000F0B441EA012141EA014122F007047FF0F4
:1002200000070023F0E80256083C85EA010586EA4B
:10023000010685FA47F5A3FA87F586FA47F6A5FA87
:1002400087F68EB9EED1F0BC01F0FF0102F0070293
:1002500032B110F8013B013A83EA010313B1F8D13E
:100260000020704701387047002D06BF354603381F
:10027000073815F0010F07D1013015F4807F02BF58
:10028000013015F4C03F0130F0BC0138704700BFA9
:100290007BB972B90029BEBF00204FF0004106E0D3
:1002A00008BF00281CBF6FF000414FF0FF3000F086
:1002B000D3B9ADF1080C6DE904CE002909DB002BA0
:1002C0001ADB00F04DF8DDF804E0DDE9022304B0AC
:1002D0007047404261EB4101002B1BDB00F040F80E
:1002E000DDF804E0DDE9022304B0404261EB4101A6
:1002F000524263EB43037047524263EB430300F007
:100300002FF8DDF804E0DDE9022304B0404261EBA0
:1003100041017047524263EB430300F021F8DDF8DE
:1003200004E0DDE9022304B0524263EB430370476B
:1003300053B94AB9002908BF00281CBF4FF0FF314C
:100340004FF0FF3000F088B9ADF1080C6DE904CE34
:1003500000F006F8DDF804E0DDE9022304B07047A0
:100360002DE9F047089D8E4604468846002B4AD169
:100370008A42174662D9B2FA82F64EB1C6F120031C
:1003800001FA06F820FA03F3B74043EA0808B4403C
:100390004FEA174E1FFA87FCB8FBFEF1230C0EFB49
:1003A000118843EA084301FB0CF29A4209D9FB1871
:1003B00001F1FF3080F0EA809A4240F2E780023992
:1003C0003B449A1AA3B2B2FBFEF00EFB102243EAA2
:1003D000024300FB0CFC9C4509D9FB1800F1FF32DD
:1003E00080F0D6809C4540F2D3803B44023840EAFE
:1003F0000140A3EB0C0300211DB1F3400022C5E92D
:100400000032BDE8F0878B4205D90DB1C5E9000186
:1004100000210846F5E7B3FA83F1002946D1734578
:1004200002D3824200F20581841A6EEB030201209E
:100430009046002DE5D0C5E90048E2E7002A00F02B
:100440009080B2FA82F6002E40F0A4808A1A030C43
:100450004FEA174E80B2BCB20121B2FBFEFC0EFB8C
:100460001C2243EA024304FB0CF29A4207D9FB1810
:100470000CF1FF3802D29A4200F2E080C4469B1A87
:10048000B3FBFEF20EFB123340EA034302FB04F41B
:100490009C4207D9FB1802F1FF3002D29C4200F2C5
:1004A000CA8002461B1B42EA0C40A5E7C1F12006A8
:1004B0008B4022FA06F71F430EFA01F420FA06F3E6
:1004C0002EFA06FE4FEA1749234300FA01F81FFAF5
:1004D00087FCBEFBF9F01C0C09FB10EE44EA0E444D
:1004E00000FB0CFEA64502FA01F209D93C1900F105
:1004F000FF3A80F09C80A64540F2998002383C4447
:10050000A4EB0E041FFA83FEB4FBF9F309FB1344BA
:100510004EEA044403FB0CFCA44508D93C1903F142
:10052000FF3E80F08280A4457FD9023B3C4443EAF1
:100530000040A4EB0C04A0FB02EC64457346E146CA
:1005400062D35FD05DB1B8EB030264EB090404FA37
:1005500006F622FA01F31E43CC40C5E900640021EF
:100560004FE7B1FBF2FC010C41EA0E4180B240EAD8
:1005700001423B4638463C46B846BE462026B1FBC3
:10058000F7F1A2EB080241EA0C4166E7014618E7E1
:1005900010462CE7C6F120022EFA02F3B740B14014
:1005A00020FA02F24FEA174E0A43B3FBFEF8BCB240
:1005B0000EFB1833110C41EA034108FB04F9B0406B
:1005C00089454FEA104380B23ED9791808F1FF3CC3
:1005D00001D289451FD8A1EB0901B1FBFEF909FB46
:1005E00004F80EFB191192B242EA0142424529D2A7
:1005F000BA1809F1FF31C4D24245C2D2A9F10201B1
:100600003A44BEE7F0459DD2BEEB02036CEB070C0B
:100610000138E14696E7A7EB09094944A8F1020C25
:10062000B1FBFEF909FB04F8DBE773467FE75046B0
:1006300066E70846FDE63B44023A33E7ACF1020CBC
:100640003B441CE749469CE7A1EB0901C446B1FBCA
:10065000FEF909FB04F8C4E7704700BFDFF834D0A7
:10066000002103E00C4B5B58435004310B480C4B0A
:1006700042189A42F6D30B4A02E0002342F8043BA8
:10068000094B9A42F9D303F00DFB21F045FA01F032
:1006900063F87047000003206CB1040800000020DC
:1006A000640100208003002000390120FEE770472C
:1006B00008B500F0BBFDBDE8084000F03FBD00F00C
:1006C000B7BD704710B50421044620F038F8204625
:1006D00010BD000038B50C4B0C4C18800C4B822020
:1006E00019806368984740F6110398420AD1094D72
:1006F00023682C60822098472B688220DB6898470B
:10070000002038BD0120FCE7A60300204C0000209B
:10071000A4030020A80300204FF4A071F020FFF7ED
:10072000D9BF0000F7B5394D2B6804461B698220FC
:100730009847208000284ED02B680DF106025B6997
:1007400001A982209847324B1B78002B4BD0BDF873
:10075000062040F674639A423FD9ADF80630BDF8E2
:1007600006209B1A9BB20A2B42D90B22B3FBF2F351
:10077000284A1288934201D9013A93B2BDF8042065
:10078000254840F6B8318A4234D8C2F571620E323B
:10079000016892B20F25B2FBF5F2204D2D88AA42D6
:1007A00084BF05F1FF35AAB28A4215468EB22AD916
:1007B000921B91B21A4E3768BB42BAB28CBF9A1ADA
:1007C000D21A92B211440529C4BF05603360036890
:1007D00063803368A38003B0F0BDB32A9CBFB4220A
:1007E000ADF80620BBE7BDF80630A3F5B473B9E752
:1007F0000023C3E7C2F56D62083292B20E2A016887
:10080000C8D800252A46891A89B2D3E7A803002050
:10081000481B0020A4030020A0030020A603002002
:100820009C03002037B568460D461446FFF77AFF53
:10083000BDF8000030B1BDF802302B60BDF80430C7
:100840002360012003B030BD032821D8DFE800F089
:10085000020B12190F4B1A68B2FA82F252090421E4
:100860000D4803F0B3BC0B4B5A68B2FA82F252093E
:100870000821F5E7074B9A68B2FA82F25209102173
:10088000EEE7044BDA68B2FA82F252092021E7E778
:10089000704700BFAC03002000100240032821D89D
:1008A000DFE800F0020B12190F4B1A68003A18BF6C
:1008B000012204210D4803F089BC0B4B5A68003A11
:1008C00018BF01220821F5E7074B9A68003A18BFC4
:1008D00001221021EEE7044BDA68003A18BF01222A
:1008E0002021E7E7704700BFAC0300200010024062
:1008F00003280DD8DFE800F00206080A04210548A5
:1009000003F069BC0821FAE71021F8E72021F6E797
:10091000704700BF0010024008B5032811D8DFE877
:1009200000F0020A0C0E0421074803F049FC431EA4
:100930005842584108BD0821F6E71021F4E720216C
:10094000F2E70020F3E700BF0010024070B5084D49
:1009500000240126E0B2FFF7DFFF18B12B68012B5E
:1009600018BF2E600134052C05F10405F2D170BDCD
:10097000AC030020012380F8781080F879307047AC
:100980007047002070470000034B4164003918BFD6
:1009900001211970704700BFBF2B01207047002054
:1009A0007047836B0BB10846184770474FF6FF70CE
:1009B0007047406803689B691847704770477047E5
:1009C0007047704710B5044600F048FD236803499E
:1009D000D3F890302046BDE810401847000000D002
:1009E00008B503680446D3F8843098472368204646
:1009F000DB6F984700F0ECF8236820465B6F984760
:100A0000292001F023F900F0E3F8236820465B6F0A
:100A10009847F8E710B5044608F02AFD23682046F9
:100A2000D3F8BC30BDE81040184700F0FBBC00F024
:100A3000FFBC00F031BD00F0D1BC00F041BD00F0C2
:100A400049BD00F0D5BC07F041BF10B58421044674
:100A50001FF075FE204610BD10B590F8341090F8C8
:100A600078400C4B8C421A7809D03AB90A4A0B49A3
:100A70001488088810800C8001221A7010BD002A8A
:100A8000FCD0054A05491488088810800C80002293
:100A9000F3E700BFB82B0120B42B0120B62B0120B7
:100AA00070B50D46194635B9094B0A4A0A4840F255
:100AB000FF2120F081FDC0E90F52084B003A18BF1A
:100AC00001221A700368BDE87040D3F890301847CF
:100AD000AC260208E426020832270208BE2B0120B9
:100AE00008B5094B1B888B4203D8084B1B889342DF
:100AF00005D9074B074A0848A32120F05DFD074BA5
:100B00001980074B1A8008BDB42B0120B62B012099
:100B100077270208DA27020832270208BA2B0120B9
:100B2000BC2B0120034690F87A0018B1586803687E
:100B30001B68184770470000012108B500220846CD
:100B400005F0B8FB0A4B186028B90A4B0A4A28215D
:100B50000A4820F031FD00220421012005F049FC63
:100B6000074B186018B9074B034A2C21F0E708BD62
:100B7000C00300201D2802086628020895280208E4
:100B8000BC030020FF280208024B4FF0FF31186819
:100B900005F0DABBC0030020014B186805F000BC6B
:100BA000C0030020024B0021186805F0CDBB00BF38
:100BB000C0030020FFF7F0BF03480449006800238A
:100BC0001A4605F051BC00BFBC0300200400002001
:100BD00013B5084C00231A4601A9206805F075FCDE
:100BE00020684FF0FF33002201A905F06EFC02B02F
:100BF00010BD00BFBC03002003685B6C18470120D8
:100C0000704703689B6A1847FEE740F2EF30704771
:100C1000054B0360054B4FF08062C3F88820BFF39B
:100C20004F8FBFF36F8F7047FC31020800E100E087
:100C300010B504464FF45A61FFF7EAFF20461FF053
:100C40007EFD204610BD000082B0002301930E4BB4
:100C50001A6B42F400021A631A6B02F4000201924A
:100C6000019A1A6942F400021A611A6922F4000218
:100C70001A61064B064A1A61064A5A61064B4FF042
:100C800080629A6002B0704700380240DC1C00208D
:100C9000E90E0008090C000800E100E008B50A2888
:100CA00009D8DFE800F006100E0808080810101038
:100CB0001000022008BD054B054A0648902120F08F
:100CC0007BFC0020F6E70120F4E700BF4129020881
:100CD0005C290208A729020838B50C46887FFFF76F
:100CE000DDFFA58AE28A164B2169586342EA054274
:100CF0005A64628BD963521B1A642568082D0ED181
:100D00009A611A615862207F0E4A42EA0062DA61F3
:100D1000E2681A620C4A5961D9601A6038BD002233
:100D2000D8611A61E1680A0A480902F4784200F4BD
:100D3000FC600243C1F3C4010A439A63034AECE72F
:100D400000B002400900010001230200012303005A
:100D500008B50B280BD8DFE800F00612100A0A0AC3
:100D60000A0808080808022008BD0520FCE7054B12
:100D7000054A06486F2120F01FFC0020F4E70120FF
:100D8000F2E700BF412902080F2A0208A72902083A
:100D90002DE9F04191F81D800C464046FFF7D8FF41
:100DA000A77F05463846FFF7D3FF06463846FFF7CC
:100DB00075FFA18A628B444B521A1A649A61228B86
:100DC000521A1A61E28A586342EA01425A6421695E
:100DD0006268D963DA602068802828D0227F0FD823
:100DE000202867D0402865D004281AD0364B45EA21
:100DF000026545F40035B845DD6161D0334A44E011
:100E0000B0F5807F04D0B0F5007FEFD1304800E02E
:100E1000304840EA0262DA61E2681A625E62596151
:100E200032E045EA026242F40032DA61F6E7A06895
:100E3000021DDA62227F45EA026545F40035DD6174
:100E40005E625961017841B1012921D0224B234AC8
:100E500023484FF48D7120F0AFFBDA69418822F40A
:100E60007F42013922F0100242EA0122DA610121B7
:100E7000154BDA6942F02002DA61DA699206FCD495
:100E800010229A600029B9D0164A1A60BDE8F08194
:100E9000B2F1FF01DA69408822F47F4200F1FF30AD
:100EA00022F0100242EA002242F0100218BF012193
:100EB000DA61DDE745EA0262034B42F40032B4E74F
:100EC00042F20132E1E700BF00B00240012301001D
:100ED000090002000A000200592A0208732A0208C7
:100EE000A729020801230200024B1B685868036807
:100EF0005B691847C02B012070B5044625460A4B94
:100F00000C30002660602672667245F8203B602235
:100F1000294608F003FC04F55A63EE6024359D422F
:100F2000FBD1204670BD00BFFC310208034B1A689C
:100F3000D207FCD423229A60704700BF00B0024061
:100F40007047000030B50F4C2568ED07FCD4232511
:100F50000904A56041F001010225FF2B656361646E
:100F6000E0630AD00849656241EA0363E361074B25
:100F700022626061E060236030BDE561039BA36392
:100F8000034BF8E700B00240090001000100020035
:100F90000100030030B50E4C2568ED07FCD4232575
:100FA0001204A56042F001020225FF2B6563626412
:100FB000E063E16008D01B0643F00213E361054BD8
:100FC00065626061236030BD034BE3610123F9E793
:100FD00000B0024001000200020002FF30B50B4CDD
:100FE0002568ED07FCD4232512041B06A56043F4F5
:100FF0000033022542F0010265636264E063E16050
:10100000E361034B65626061236030BD00B0024064
:1010100001000200012070470C2070470C2303FBE5
:101020000100083070470C2303FB010008307047B3
:101030000120704740F23C60704740F23C6303FB84
:1010400001000830704740F23C6303FB01000830A8
:101050007047012070471020704700EB01100830E6
:10106000704700EB011008307047084601F050BD92
:1010700010B5034B0360044607F07DF9204610BD10
:10108000B432020810B50446FFF7F2FF20461421DF
:101090001FF055FB204610BD10B5034B03600446FE
:1010A00007F069F9204610BD8032020810B50446E9
:1010B000FFF7F2FF204640F244611FF040FB20465C
:1010C00010BD000010B5034B0360044607F053F950
:1010D000204610BD4C32020810B50446FFF7F2FF5F
:1010E000204618211FF02BFB204610BD10B5084BE1
:1010F0000360044600F5CE60FFF7BAFF04F12C0050
:10110000FFF7CAFF04F11400FFF7DCFF204610BD13
:10111000E832020808B50248FFF7E8FF08BD00BF43
:101120009C12002010B50446FFF7E0FF204640F275
:10113000E4711FF004FB204610BD00002DE9F341CF
:1011400001F0F0F8054601F0F1F8002401462346CD
:1011500028462246009410F05FFA274B274A1A606F
:10116000204601F0B3FE264D264B274A27489A60B9
:1011700010F0BAF92B68BFF35B8FDB0735D4284634
:101180001FF0DFFA88B3224C224B236004F5D166AE
:1011900004F1140004F12C0804F5CE676060C4F873
:1011A0000880E760266107F0E7F81B4B6361404663
:1011B00007F0E2F8194BE362384607F0DDF8184B08
:1011C000C4F8703604F2846002F098FA224604F201
:1011D0008461304602F088FA304601F099FC1148EB
:1011E00020F008FA28461FF0B8FA0F4802B0BDE810
:1011F000F041FFF7E7BB00BF242C0120480400208A
:1012000098120020680400204C04002008000020F0
:101210009C120020E83202084C3202088032020898
:10122000B432020815110008C40300207047000002
:101230000148FFF7D5BB00BFC403002070B5264EA0
:10124000264C274D274B23603046FFF755FE284696
:1012500015F0E8FA24480EF06BFA244B2448DC60C1
:1012600000224FF48071C3E9121222491A86C3E9A1
:101270001A12214983F85820C3E91E011F49C3F8F7
:1012800080101F491F480B60F021C3E90422C3E905
:101290000622C3E90822C3E90A22C3E90E22C3E9F0
:1012A0001022C3E91422C3E917225A6683F870207A
:1012B0005A67C3E9016501801348018013484FF460
:1012C000A07101801248018012490A70012283F83E
:1012D0003420114A1A6070BDF404002094120020DA
:1012E000680400209C2602084C040020C40300204F
:1012F0000000010101000001000450001A00140068
:10130000C02B0120B42B0120BA2B0120B62B0120C9
:10131000BC2B0120B82B0120103102080148FFF737
:1013200077BC00BFF4040020002070478180704724
:10133000C180704701817047418170477047704795
:1013400070477047704710B4C4880368121B8488C4
:101350005B6D091B12B25DF8044B09B218474FF6DA
:10136000FF7383814FF0FF3303621368C361106022
:101370007047002070478B8883800120704770473A
:1013800080F82610704790F82600704710B50022AC
:10139000B1F90840B1F90A10028042808480C1800E
:1013A00010BD0022028042808280C2807047017797
:1013B000704780ED080A704780F82410704780F865
:1013C0002510704701207047983070478C30704767
:1013D000843070477047704770470000034B90227D
:1013E00083F85A2383F85823704700BF00E100E0D8
:1013F000094A0A49D3680A48C3F30A03013B9BB26E
:101400000B801169C1F30A01013901801364536B28
:1014100043F001035363704700680140821A0020C3
:10142000801A0020014BD3F8AC00704700680140DF
:10143000024B0122C3F8AC105A62704700680140A9
:1014400010B52C2104461FF07AF9204610BD10B5C6
:10145000BC2104461FF073F9204610BD70B5044648
:1014600007F089FA23689D6E0CF0FAFE01462046CB
:10147000A8472368054AD3F88C502046AC46002381
:10148000BDE87040A2F51631604700BF00B004D03F
:1014900007F058BA07F062BA07F01EBA07F08DBB22
:1014A00090F8252012B103685B691847704790F8DF
:1014B00025201AB190F8242002B11860704700006E
:1014C000034B4FF080629A604FF080729A607047D1
:1014D00000E100E0084B4FF08062C3F88820BFF3C2
:1014E0004F8FBFF36F8F4FF08072C3F88820BFF328
:1014F0004F8FBFF36F8F704700E100E070B500239E
:10150000124E8380124B0360336893F858200546CF
:101510000AB1D86C00B998680368DB6A98473368E9
:10152000B0FA80F4D86C640930B10368DB6A98477C
:10153000002808BF44F001042CB9064B064A0748AE
:101540002C2120F039F8284670BD00BFC02B0120A7
:10155000FC320208B12A02080F2B0208482B0208AD
:1015600070B5254E3568BFF35B8F15F0010540D18E
:1015700030461FF0E6F800283BD0204C204B256178
:1015800004F13400C4E90035C4E90255E584A562DC
:10159000A5850EF0B2FB04F1580009F075FD194B5A
:1015A000A3652046184B40F8843BFFF7A7FF174B75
:1015B000C4F884302433C4F88C304FF4C803C4E931
:1015C00028350023C4F8AC30C4F8B030C4F8B430C7
:1015D000C4F8B8300E480F4BC4F89050C4F89C5073
:1015E000C4F8A850C4F8983020F004F830461FF032
:1015F000B4F8024870BD00BF841A0020881A002089
:10160000A83802081C330208943302085C38020828
:10161000D91300083C38020838B5184C23685BB36E
:10162000174B184A1B6C11888B4216D1164B198820
:1016300003F0D4FB236893F86A200025013283F875
:101640006A2083F87C50FFF7B7FA206807F010FF94
:101650002846BDE83840FFF7F7B803F0BFFB246821
:10166000236820461B6A9847012384F87C300020B9
:10167000BDE83840FFF712B938BD00BFC02B0120CC
:1016800000680140821A0020801A002007B5064B2E
:10169000ADF806001B68054801220DF1060104F0B3
:1016A0003DF903B05DF804FB0C000020881B00200E
:1016B00008B5642004F0F2FDFBE7000030B595B0FA
:1016C000102200210AA820F07EF91422002103A88C
:1016D00020F079F900241E4B01941A6C42F08052DC
:1016E0001A641B6C03F080530193019B194B029405
:1016F0001A6842F440421A601B6803F440430293A4
:101700000122029B4FF48033CDE9082302254FF4D8
:1017100080030821CDE90E534FF4B473CDE91013C3
:1017200008A804231393129503F0B0FB03F074FB95
:101730000F23CDE903354FF4A0504FF48053CDE98A
:101740000603052103A8059403F07CFD15B030BD08
:10175000003802400070004080B59AB002F0B0FA44
:10176000FFF7ACFF142200210DA820F02CF9002473
:10177000C84B00941A6BC848C84DDFF85C8342F030
:1017800010021A631A6B02F010020092009A019480
:101790001A6B42F020021A631A6B02F020020192C7
:1017A000019A02941A6B42F080021A631A6B02F0DB
:1017B00080020292029A03941A6B42F004021A63A6
:1017C0001A6B02F004020392039A04941A6B42F01B
:1017D00001021A631A6B02F001020492049A059442
:1017E0001A6B42F002021A631A6B02F002020592AF
:1017F000059A06941A6B42F040021A631A6B02F0C3
:1018000040020692069A07941A6B42F008021A6385
:101810001B6B03F00803224607933C21079B02F051
:10182000D5FC9F480122022102F0D0FC22469C48B0
:10183000042102F0CBFC22469A484FF4405102F0BA
:10184000C5FC01263C23CDE90D3693480F940323B4
:101850000DA90227109302F0CFFB91480DA9CDE905
:101860000D76CDE90F4402F0C7FB04238C480DA987
:10187000CDE90D36CDE90F4702F0BEFB8A480F9443
:101880000DA9CDE90D6402F0B7FB0DA94FF440534B
:101890008448CDE90D36CDE90F4702F0ADFB834812
:1018A000834B036002F09EFADFF830E2814B2C623A
:1018B000C5E900E328464FF48043C5E90434C5E98F
:1018C0000244C5E9064402F08FFE1021284603F0C9
:1018D000D3F821462846784D03F0EDF84FF4827393
:1018E000C5E900834FF400791823C5E9069328461B
:1018F0000A23C5E90244C5E90444C5E90844AC62C9
:10190000EB6203F0AFFF8F232246394664488DF81F
:1019100024308DF8344002F059FC32464FF47A738B
:1019200009A9284603F0FAFF4FF47A7332460DA94D
:10193000284604F09FF93246394659485F4D02F077
:1019400045FC9DF83430D32B04BF5D4B1E705D4BBE
:101950000126C5E90036102240230024C5E90423EE
:101960004FF4C073C5E906344FF40063C5E9083489
:101970004FF4005302274FF00409AB624FF0030A03
:1019800007230DA92846CDE90D73CDE90F934FF03C
:101990000808C5E90249CDE911A7139703F046FEEF
:1019A0004FF6FF7209A92846CDE90A8608940996E0
:1019B0000C9403F05BFE304602F0AEF94FF6FF7276
:1019C00009A92846CDE90978CDE90B6403F04EFE5C
:1019D0004FF6FF7209A92846CDE909A8CDE90B9475
:1019E00003F044FE4FF40C730893089B0C934FF6DE
:1019F000FF7209A92846CDE909980B9603F036FE37
:101A000040F26A51284603F04FFE34220DEB0200EB
:101A100021461FF0D8FF2C4D2C4B2C61C5E900341A
:101A20000923C5E905361D23C5E9073A40F20D1122
:101A300040F24313C5E9091340F2171040F247136F
:101A4000C5E90B032846C5E90244AC8685F8364053
:101A500003F0CCF8FF214FF4806CF022CDE9121492
:101A60000521CDE914C14FF4A0730DA9CDE90E24D1
:101A7000CDE9164228462246154D1893CDE9103778
:101A80000D94ADF864408DF8664003F07AF9114B7F
:101A90002B6025E00038024000100240881C002026
:101AA00000080240000C0240000002401C1D002003
:101AB00000300240A0860100881B0020541B00203B
:101AC000481B0020400100A0E01B002000680140EE
:101AD000441B00201400002000500140005C004026
:101AE0001B6898472B68154DDB689847144B2846B0
:101AF000C5E90034C5E90274C5E90A47C5E90C44E3
:101B000002F080F93146284602F032FAFEF7D0FDA5
:101B1000FEF7CDFD04F052FB0A4A0B48214604F0C3
:101B200079FB0A4B0A4A186021460A4804F072FB06
:101B3000094B186004F054FBFEE700BFDC1C0020DA
:101B400000B00240FC330208B1160008501B002010
:101B5000D8330208BF0600084C1B002070477047AE
:101B60007FB5094B8DF817201B6802930DF1170202
:101B70000123009201930A460146044802F0DCFD6D
:101B800007B05DF804FB00BF10000020881C002097
:101B90007FB500238DF81730084B1B6802930A4667
:101BA00001230DF11701009101930146044802F051
:101BB00053FE9DF8170007B05DF804FB10000020ED
:101BC000881C00201FB5084C24680092CDE9013420
:101BD0000A4601230146054802F03EFE003818BFC0
:101BE000012004B010BD00BF10000020881C0020A0
:101BF00002F092B810B5064C00222046042102F0F3
:101C0000E5FA20460122BDE81040042102F0DEBAC8
:101C10000008024038B50B4D044601220A484FF433
:101C2000005102F0D3FA00220421284602F0CEFA35
:101C30002046FFF72BFD28460122BDE8384004214D
:101C400002F0C4BA00080240000C024038B50B4D47
:101C5000044600220A484FF4005102F0B7FA00226D
:101C60000421284602F0B2FA2046FFF70FFD28466D
:101C70000122BDE83840042102F0A8BA0008024061
:101C8000000C0240F7B5144E144F05460C46304682
:101C90000022042102F09AFA00224FF40051384643
:101CA00002F094FA2846FFF7F1FC0D4B0D481B6833
:101CB000224601A903F0DEFF384601224FF400510D
:101CC000019C02F083FA30460122042102F07EFAE0
:101CD000204603B0F0BD00BF00080240000C0240E7
:101CE0000C000020881B002002F016B80268034B8D
:101CF0009A4201D101F0FEBF704700BF00100040C2
:101D00007047000082B00E4B00220092596C41F4E3
:101D100080415964596C01F480410091009901920D
:101D2000196C41F0805119641B6C03F080530193CE
:101D3000019B0F216FF0010002B002F013B800BF49
:101D4000003802400268094B9A4282B00BD100234E
:101D50000193074B1A6B42F480521A631B6B03F416
:101D600080530193019B02B0704700BF00300240D6
:101D70000038024007B50F4B02689A4216D1002284
:101D8000A3F5F0430192196B41F4000119631B6B39
:101D900003F40003019305215A20019B01F0E2FFA7
:101DA0005A2003B05DF804EB02F00EB803B05DF802
:101DB00004FB00BF00B002402DE9F043044689B0A7
:101DC0001422002103A81FF0FEFD2268244B9A4232
:101DD00043D1244C244800250095236B43F0040391
:101DE0002363236B03F004030093009B0195236B93
:101DF00043F001032363236B03F001030193019B71
:101E00004FF012094FF400734FF001080327042626
:101E100003A9CDE90339CDE90587079602F0ECF86F
:101E20004FF480731148079603A9CDE90339CDE932
:101E3000058702F0E1F80295236C43F40003236464
:101E4000236C03F400030293029B236A43F4000310
:101E50002362236A23F40003236209B0BDE8F08300
:101E6000005C0040003802400008024000000240D0
:101E7000F0B599B004461422002107A81FF0A3FD75
:101E800030220DEB020000211FF09DFD22685E4B09
:101E90009A4240F0B78008230C93C0231093042388
:101EA00012930CA84FF40033159303F093FA08B182
:101EB000FFF726FF554B5648002400945A6C42F019
:101EC00080625A645A6C02F080620092009A019417
:101ED0001A6B42F020021A631A6B02F02002019280
:101EE000019A02941A6B42F001021A631A6B02F013
:101EF00001020292029A03941A6B42F002021A63E0
:101F00001A6B02F002020392039A04941A6B42F0D5
:101F100040021A631A6B02F040020492049A05947C
:101F20001A6B42F004021A631A6B02F00402059263
:101F3000059A06941A6B42F008021A631B6B03F0B1
:101F40000803069302250E26069B0B964FF480632A
:101F500007A9CDE90735CDE9094502F04DF841F66D
:101F600058032C480B9607A9CDE907350927CDE979
:101F7000094502F041F8032327480B9707A9CDE94B
:101F80000735CDE9094502F037F84FF47063224870
:101F90000B9607A9CDE90735CDE9094502F02CF8E4
:101FA0004FF40C631D480B9607A9CDE90735CDE921
:101FB000094502F021F8C02319480B9607A9CDE97D
:101FC0000735CDE9094502F017F8082315480B96A7
:101FD00007A9CDE90735CDE9094502F00DF84FF421
:101FE000A0530E480B9707A9CDE90735CDE9094560
:101FF00002F002F858202246052101F0B3FE5820D5
:1020000001F0E2FE19B0F0BD006801400038024066
:102010000014024000000240000402400018024088
:1020200000080240000C024010B5044688B014229B
:10203000002103A81FF0C7FC2268144B9A4223D149
:1020400003F56843002101915A6C114842F4801253
:102050005A645A6C02F480120192019A02911A6B2E
:1020600042F020021A631B6B03F020030293029BD1
:102070004FF4607202230321CDE903230523CDE948
:10208000061303A901F0B8FF08B010BD00500140CD
:10209000001402402DE9F04186B0002303932B4B3E
:1020A0001C68002C4FD14FF00108C3F80080284B6A
:1020B00000949A6B274842EA08029A639B6B03EAF2
:1020C00008030093022703260C25009B01A94FF665
:1020D0003F03CDE90137CDE9046501F08DFF1E48CE
:1020E000059501A9CDE90187CDE9034601F084FFFB
:1020F00048F233131948059501A9CDE90137CDE917
:10210000034601F079FF4FF683731548059501A941
:10211000CDE90137CDE9034601F06EFF4CF20373C0
:102120001048059501A9CDE90137CDE9034601F035
:1021300063FF60230C48059501A9CDE90137CDE97E
:10214000034601F059FF06B0BDE8F081241D0020D0
:10215000003802400014024000080240001802400B
:1021600000100240000C02400004024070B588B02C
:1021700000230293204B1A6C42F010021A641B6C6D
:1021800003F010030293054601A903A8029B03F084
:1021900003F9069B4BBB03F0EFF8184E184B336066
:1021A00040F2E733F360174BB0FBF3F3013B73608E
:1021B000304600233361B360B36103F02BFF044664
:1021C00080B9304603F0FCFD044658B9362001F0D2
:1021D000FBFD0F2D0DD822462946362001F0C2FD09
:1021E000094B1D60204608B070BD03F0C5F84000E3
:1021F000D3E70124F6E700BF00380240281D002085
:102200000010004040420F007C0000207047FEE7B5
:10221000FEE7FEE7FEE77047014803F00FBE00BF90
:10222000281D0020014802F04FBD00BFE01B002028
:10223000014801F013BE00BFDC1C002001207047E4
:1022400008B51FF063FC162303604FF0FF3008BD94
:1022500008B51FF05BFC16230360FEE770B50D4662
:1022600014460E46731B9C4201DC204670BDAFF342
:10227000008006F8010BF5E770B50D4614460E46D2
:10228000731B9C4201DC204670BD16F8010BAFF3B6
:102290000080F5E74FF0FF3070474FF400534B607C
:1022A0000020704701207047002070470A4A1168DB
:1022B00008B5034609B90949116010686946034425
:1022C0008B4206D91FF022FC0C2303604FF0FF3035
:1022D00008BD1360FCE700BF701D0020003901201D
:1022E000704710B5042104461EF029FA204610BD9F
:1022F00008B5032913D8DFE801F002060A0E00F042
:1023000031FE006808BD00F02DFE4068FAE700F0DD
:1023100029FE8068F6E700F025FEC068F2E700209D
:10232000F0E700000048704734340208022070478C
:1023300013B5002451B1036801948DF8034001AA3C
:102340009C680DF10303A04702B010BD0846FBE7EF
:10235000C0897047008A7047C0887047808870477E
:10236000807A00F07F007047807AC00970470020B3
:10237000704700009FED010A704700BF0000000099
:102380007047704770477047704770477047704795
:1023900010B5082104461EF0D2F9204610BD10B534
:1023A0004FF4577104461EF0CAF9204610BD70B5AF
:1023B000036804461B6B1546984723682946204648
:1023C0005B6BBDE87040184770B504461D46BDF90B
:1023D0001060FFF7ECFF2368294620469B6B984767
:1023E000236831462046DB6BBDE87040184700008B
:1023F0000022C0E90122C0E90322C0E90522C0E9A8
:1024000007224FF480728284014A0260704700BF45
:102410006434020810B52622044600211FF0D3FAC6
:102420002046FFF7E5FF044B2360FF2384F82630A6
:102430000023A362204610BDFC39020838B52622CD
:1024400004460D4600211FF0BEFA2046FFF7D0FFDC
:10245000064B23602B88E384FF23204684F8283032
:10246000294609F001FB204638BD00BFCC3A0208DE
:1024700010B52622044600211FF0A5FA2046FFF7DA
:10248000B7FF0A4B23600A4BA3624FF6FF73A38585
:102490004FF47F020023C4E90C3223874FF0FF3250
:1024A000C4E91023E363204610BD00BF6C39020865
:1024B000CC3402082DE9F04F044695B0274600259C
:1024C0000DF0D2FED84BE56347F8403B04F16C0BAE
:1024D00038464FF6FF76FFF79DFF04F1980812A9E2
:1024E000584604F1C40AADF84860FFF7A7FF12A9E7
:1024F000404604F1F009ADF84860FFF79FFF12A9CC
:102500005046ADF84860FFF799FF12A94846ADF86C
:102510004860FFF793FF04F58E7312A918460693DF
:10252000ADF84860FFF78AFF04F5A47312A91846B6
:102530000793ADF84860FFF781FF04F5BA7312A95D
:1025400018460893ADF84860FFF778FF04F5D0739C
:1025500012A918460993ADF84860FFF76FFF04F51C
:10256000E67312A918460A93ADF84860FFF766FFB4
:1025700004F5FC7312A918460B93ADF84860FFF7F9
:102580005DFF04F5097312A918460C93ADF8486075
:10259000FFF754FF04F5147318460393FFF768FF21
:1025A00004F5267318460493FFF762FF04F53873A9
:1025B00018460D93FFF72EFF9C4BC4F8E03204F54C
:1025C0004573C4F80C53A4F8105318460593FFF74D
:1025D0004FFF4FF4A0732A46009329463846F02354
:1025E000261DFFF7F1FE4FF07F43A36639463046C4
:1025F00005F0D6FE2A4629465846FFF7D8FE12A90E
:102600005846ADF8485009F02FFA5946304605F0C3
:10261000C7FE2A4629464046FFF7C9FE12A9404692
:10262000ADF8485009F020FA4146304605F0B8FEB2
:10263000FE2250461B214FF00108FFF7B8FE12A9F9
:102640005046ADF8488009F00FFA5146304605F083
:10265000A7FEFE2248466A21FFF7A9FE12A94846B6
:10266000ADF8488009F000FA4946304605F098FE7A
:10267000FE220698DFF8BC91B721FFF798FE069876
:10268000ADF8488012A909F0EFF90699304605F037
:1026900087FE882207986921FFF789FE0798ADF821
:1026A000488012A909F0E0F90799304605F078FE54
:1026B00088220898B621FFF77AFE0898ADF848807E
:1026C00012A909F0D1F90899304605F069FEC22235
:1026D00009981B21FFF76BFE0998ADF8488012A9F5
:1026E00009F0C2F90999304605F05AFEC2220A984B
:1026F0006A21FFF75CFE0A98ADF8488012A909F03C
:10270000B3F90A99304605F04BFE88220B981B213D
:10271000FFF74DFE0B98ADF8488012A909F0A4F917
:102720000B99304605F03CFEC2220C98B721FFF70A
:102730003EFE0C98ADF8488012A909F095F94FF0CB
:10274000230B0C99304605F02BFE0EAF0398CDF805
:1027500000B0CA2336224FF0FF3A1421FFF734FEAF
:102760000399C4F880A23846A4F8845208F0E4FD26
:1027700097E8070004F5237383E807000223039812
:10278000ADF84C3012A9CDF8489009F07DF80399C6
:10279000304605F005FE0498CDF800B0CA23362275
:1027A0001421FFF711FE0499C4F8C8A23846A4F812
:1027B000CC5208F0C1FD97E8070004F5357383E8B3
:1027C00007000498CDF8489012A9ADF84C8009F0A4
:1027D0005BF8049984F8BD52304605F0E1FD3223E0
:1027E0000D9800938822D9230D21FFF7EDFD104BA2
:1027F0000D9984F80553C4E9C2330523A4F81033B6
:10280000304605F0CDFD059898222721FFF7CFFD32
:102810004FF07F430599C4F844333846A4F8485331
:1028200008F08AFD08E000BFDC340208643A0208C0
:1028300027E881FFCC34020897E8070004F55473B9
:1028400083E807000598CDF8489012A9ADF84C50E0
:1028500009F01AF83046059984F8395305F0A0FDBF
:10286000204615B0BDE8F08F7047704700F59873AB
:102870000868496803C370477047704741607047F4
:1028800070477047064BC0F84C310023C0F85031F8
:1028900000F5A273C0F84801C0F84031704700BF8E
:1028A00045290008012303727047704710B4C268BD
:1028B00041685410034601EB6200D20748BF0A5931
:1028C0009B685DF8044B48BFD358184703464068DF
:1028D00030B19A681AB9D86800F001007047012039
:1028E000704710B50C2104461DF029FF204610BD8D
:1028F00010B5102104461DF022FF204610BD10B572
:102900004FF4AE7104461DF01AFF204610BD10B5FD
:102910000BF0A6FC0368BDE81040DB6B184710B550
:102920000446D0F8400158B10368DB68984738B1D5
:10293000D4F8400103689B6898470023C4F84031ED
:1029400010BD00002DE9F14FD0E9556A0746B06887
:1029500003681B6A984740F23B63984205D8444B92
:10296000444AA32144481EF027FE706803681B6A8E
:1029700098470F2803D8414B3E4AA421F2E7F0685C
:1029800003681B6A98470B2803D83D4B394AA52199
:10299000E8E70BF065FCDFF8F09004300BF085FC05
:1029A000D9F8000010B10368DB689847D9F8000037
:1029B00010B103681B689847DFF8D080D8F8000092
:1029C00010B103685B699847D7F83C0110B1036800
:1029D0005B689847D8F8000010B103681B689847F7
:1029E000D7F83C0110B103689B689847F06803680A
:1029F00000215B6A98474FF0000B224BC0F804B0EF
:102A0000044680F808B00360B068036859465B6A02
:102A10009847054600F0B0FB7068036859465B6A4A
:102A200098472946064600F0CFFA331DC7F83C61A7
:102A3000C9F80040C8F80050CAF800302B68C6F842
:102A400008A02846DB68EE639847336830461B6869
:102A50009847214628460DF0B3FD236820461B69A0
:102A6000984723685B69204601B0BDE8F04F1847DE
:102A7000BF2B02084D2C0208192D0208602D0208F8
:102A8000032E02087C350208082C0120042C0120AA
:102A9000044B1B6893F858200AB1D86C00B99868A9
:102AA000704700BFC02B0120F8B5174604460E46FC
:102AB0000BF098FC124B1C60124B2360124B00254C
:102AC000C4E95135114BC4E9535518680368012115
:102AD0009B68C4E94F55C4E955769847284600F0ED
:102AE000F5F9FFF7D5FF15F046FDFFF7D1FF15F01B
:102AF000BDFDFFF7CDFF15F0C5FD2046F8BD00BFB9
:102B0000142C01202835020810350208C02B0120A2
:102B1000064BC0F84C310023C0F8503100F5A273C9
:102B2000C0F84801C0F84031704700BF452900088F
:102B3000406A7047806A704770478A880B8810B572
:102B4000D20A4C88C1699BB251F8220043EA04437F
:102B5000184410BD10B50446BAB1107B68B1537B60
:102B6000D27A1B0203F4E0631A43236A03EB820365
:102B70001A888A4202D193F9020010BD05D80138A3
:102B800080B204330028F3D1F7E70020F5E710B551
:102B90002C2104461DF0D3FD204610BD30B58BB06E
:102BA0000446BDF860500895BDF85C5007959DF847
:102BB000505006959DF84C5005959DF84850049549
:102BC0009DF8445003959DF8405002959DF83C5067
:102BD0000195BDF8385000950DF04CF9064B236077
:102BE000159BE361169B2362199B63621A9BA36288
:102BF00020460BB030BD00BFA03502087047000072
:102C000030B5164D2C6814F001048FB0BFF35B8F04
:102C100020D128461DF095FDE0B13F230993104BCC
:102C20000893104B104911480A940122CDE906433C
:102C30000423CDE903320A230093CDE90B44CDE907
:102C400001440594FFF7AAFF09481EF0D3FC28466B
:102C50001DF083FD05480FB030BD00BF741D00207E
:102C60005C4A0208784A0208DC480208781D002005
:102C7000FD2B00087047000030B5174D2C6814F08C
:102C800001048FB0BFF35B8F22D128461DF059FDA0
:102C9000F0B13F230993114B0893114B0793012384
:102CA000CDE9054304930423CDE902430F230D49E5
:102CB000009318221223CDE90B440B480A94019487
:102CC000FFF76CFF09481EF095FC28461DF045FDF6
:102CD00005480FB030BD00BFA41D0020604A0208A7
:102CE0007C4A0208EC480208A81D0020752C000848
:102CF0007047000030B5164D2C6814F001048FB0F9
:102D0000BFF35B8F20D128461DF01BFDE0B13F23B0
:102D10000993104B0893104B104911480A94012253
:102D2000CDE906430423CDE9033214230093CDE912
:102D30000B44CDE901440594FFF730FF09481EF02C
:102D400059FC28461DF009FD05480FB030BD00BFF5
:102D5000D41D0020704A0208804A02083C4A02083A
:102D6000D81D0020F12C00087047000030B5164D2A
:102D70002C6814F001048FB0BFF35B8F20D128467C
:102D80001DF0DFFCE0B13F230993104B0893104B7B
:102D9000104911480A940122CDE906430423CDE9E4
:102DA000033228230093CDE90B44CDE90144059477
:102DB000FFF7F4FE09481EF01DFC28461DF0CDFC6F
:102DC00005480FB030BD00BF041E0020744A020841
:102DD000844A02084C4A0208081E0020692D000897
:102DE00000207047002070470EB403B503AB0021EC
:102DF00053F8042B01930CF0BBFA02B05DF804EB1E
:102E000003B070470CB407B504AB53F8042B01931F
:102E10000CF0AEFA03B05DF804EB02B070470000AE
:102E2000436C10B5044673B3038F2BB9184B194A82
:102E3000C52119481EF0C0FBC38E00EB43035B8C19
:102E40000BB30EF016F9238F012B03D8134B144A42
:102E5000CB21EEE7E28E531C9BB2092B194688BFAB
:102E6000A3F10A0104EB410140F63F10498C814275
:102E700009D10A2B04EB420228BF002304EB4303D1
:102E8000508C588451842046BDE810400DF0F4BFAA
:102E9000A62E0208AF2E02085A2F0208A42F0208FD
:102EA000B22F02080DF0AFBF10B586B002AC84E8B7
:102EB00006001A460AAB05930193099B009321462D
:102EC000089B0AF06BFD06B010BD000038B518BBBA
:102ED000124B13481C681349B4B1226822440260A3
:102EE000626822440A60A26814440F4B00221A80D0
:102EF00000F038F8054600F033F80C4B1C600C4B22
:102F00001D600C4B188007E00B4B03600B4B0B60F4
:102F10000B4B1C68002CE8D138BD00BF401E0020C0
:102F2000381E0020341E00203C1E0020182C0120DA
:102F3000202C01201C2C0120944A0208884A0208F7
:102F40002C4B0208044B1B6853F82100034B1B68F1
:102F500003EB4000704700BF341E0020381E0020E5
:102F60000320704700487047441E002010B5FFF74B
:102F7000C1FE064C2060FFF7F9FE6060FFF740FEDF
:102F8000A060FFF779FEE06010BD00BF441E002086
:102F900010B5002404600C6014601C6010BD704704
:102FA00004387047704710B5102104461DF0C7FB68
:102FB000204610BDA0F10400F5E7C06800F070BA2B
:102FC000A0F10400FFF7F9BF00228260024A02600C
:102FD0001C324260C1607047083602084C4B2DE934
:102FE000F04F0446186803688DB0DB6A9847039079
:102FF000002800F08980A56AD4F830B0E16AD4F8DE
:1030000034E0B4F9043007935D45ACBF4FF0FF32B4
:10301000012205927145ACBF4FF0FF3201220692AA
:10302000ABEB050282EAE27AAEEB0106AAEBE27AAA
:1030300086EAE672A2EBE672029252420892029A85
:10304000B4F90630AAEB0200A26B02EBD272521066
:10305000C2F1000CACEB030304920B93079BEB1A39
:103060006344E146049A914532DC0B9ACDF804C0E2
:10307000571825E0002B1FDBB4F908209A421BDD0E
:10308000002F19DBB4F90A20BA4215DD214EB4F93C
:10309000062036880996B4F904600A96099E3A44D7
:1030A00006FB02320A9E3244E66BADF82460039EB2
:1030B000BDF8248026F81280019A0132019201376E
:1030C000049A019E9642D5DD09F101090133C9E751
:1030D000AB4501D18E450FD0089AB2EB400F4FEAB5
:1030E000400305DC029A801A059A9A451544B5DB1F
:1030F000069B50441944B1E7054B186803681B6BE5
:103100000DB0BDE8F04F18470DB0BDE8F08F00BF1F
:10311000C02B0120B42B01204A6802608A684260FB
:1031200070477047704710B5402104461DF007FBFB
:10313000204610BD38B5094B036004464FF4BF6507
:10314000B5F55E7F05D0635960191B689847403D0F
:10315000F6E72046FFF71AF9204638BDA0360208E8
:1031600010B50446FFF7E6FF204640F23C611DF033
:10317000E6FA204610BD0000F8B507461F4CFFF7E1
:1031800099F91F4B3B600FCC002507F55C7687F85B
:103190006E530FC60FCC0FC654F8043B33600FCCF0
:1031A00007F565760FC60FCC0FC623681548336048
:1031B00007F5C76207F56E73012404219D80DD8049
:1031C0001D815D819D81DD811D825D82DD611D84AA
:1031D0005D8483F8245083F825401860C3E90555C1
:1031E000C3E90A55C3E90C55C3E90E1540339342B0
:1031F000E4D1C7F838563846F8BD00BF0C2602089F
:10320000A036020838360208002380F86E33C0F872
:103210006533C0F8693380F86D337047F8B50546FB
:1032200000F56E7400F5C7670026236884F82560F2
:1032300020465B6940349847BC42F6D185F8386631
:10324000F8BDF8B50E79012E04466BD190F86E33B7
:10325000032B00F5267004F5147710D884F8BD62AE
:103260000CF0B0F9002384F8753238460CF0AAF956
:103270002046FFF7C9FFBDE8F840FFF7CFBF0025A4
:1032800084F8BD520CF09EF9384684F875520CF063
:1032900099F92046FFF7C2FF04F5FC7084F81D522F
:1032A0000CF090F904F5A47084F86D510CF08AF9D3
:1032B00004F5BA7084F899510CF084F904F5D070D3
:1032C00084F8C5510CF07EF904F5E67084F8F151EC
:1032D0000CF078F904F5097084F849520CF072F991
:1032E00004F1C40084F8E9500CF06CF904F1F0002A
:1032F00084F815510CF066F904F58E7084F841518C
:103300000CF060F904F5387084F805630CF05AF994
:1033100084F8396304F545700CF054F984F8396683
:10332000A4F83A56F8BD38B590F839360446002B63
:103330005DD0B0F83A3601339BB2B3F5967FA0F872
:103340003A3654D3002580F83956A0F83A5680F81A
:10335000055300F538700CF035F984F8395304F54D
:10336000457001250CF02EF904F5FC7084F81D520F
:103370000CF028F904F5A47084F86D510CF022F9D2
:1033800004F5BA7084F899510CF01CF904F5D0706A
:1033900084F8C5510CF016F904F5E67084F8F15183
:1033A0000CF010F904F5097084F849520CF00AF990
:1033B00004F1C40084F8E9500CF004F904F1F000C1
:1033C00084F815510CF0FEF804F58E7084F8415124
:1033D0000CF0F8F804F5147084F875520CF0F2F85B
:1033E0002046FFF711FFBDE83840FFF717BF38BD93
:1033F00038B50446002580F8BD5200F526700CF063
:10340000E1F804F5147084F875520CF0DBF804F55B
:10341000457084F839530CF0D5F884F8055304F559
:103420003870BDE838400CF0CDB838B504460D46CC
:1034300080F81D1200F5FC700CF0C4F804F5A470BF
:1034400084F86D510CF0BEF804F5BA7084F8995107
:103450000CF0B8F804F5D07084F8C5510CF0B2F84F
:1034600004F5E67084F8F1510CF0ACF804F509703D
:1034700084F849520CF0A6F804F1C40084F8E9502D
:103480000CF0A0F804F1F00084F815510CF09AF853
:1034900084F8415104F58E70BDE838400CF092B8C4
:1034A00010B50123044680F86F33FFF7ADFEFFF738
:1034B000B5FE2046FFF79CFF20460021BDE81040E6
:1034C000FFF7B3BF10B50446FEF761FF2046FFF7D4
:1034D0009BFEBDE81040FFF7A1BE2DE9F04F90F82C
:1034E0006E33012B87B0044640F2AF8090F8385617
:1034F000092D00F2AA80034400EB851693F85A23A5
:1035000093F85B3300EB820200EB8303D2F86C1379
:10351000D2F8902302F10F09D3F86C23D3F890333B
:103520000F3301F10F0B02F10F0A0193019AD345FA
:10353000C6E9FAA35B46A8BF53469BB24A45A8BF5B
:103540004A460293B6F8F033059392B203925A00BA
:1035500092B20492029A40274FF46E78D11A17FB68
:103560000585D6F8B82305442846126B09B2C6E98A
:10357000F8B99047039A059BD11AD6F8B833284674
:103580005A6B09B290470499029BD345ACBF59448A
:103590005144C91AD6F8B83328469B6B09B29847EC
:1035A000019B04999945ACBF4944C918039BC91AAA
:1035B000D6F8B83309B22846DB6B9847D6F8B8334B
:1035C00028465B69984794F8380604EB8013042278
:1035D000C3F8F023D3F8B83317FB00805B692044AD
:1035E000984794F8380604EB80130022C3F8F423BC
:1035F000D3F8B83317FB00805B692044984794F8F0
:10360000381604EB81130122251D17FB018183F875
:10361000DD232144284604F004FF94F8381617FBF4
:1036200001812144284604F0BBFE94F8383617FB8C
:10363000038004EB83132044D3F8B8335B699847C5
:1036400094F83836013384F8383607B0BDE8F08F87
:1036500030B44418034694F8652382B990F86E2379
:10366000082A0CD81344551C013180F86E5383F896
:103670005C13012384F8653330BCFFF72EBF30BCE8
:1036800070472DE9F041B1F90A60B1F90C7080463C
:1036900000F55B75002455F8043F6A6A0F320F335A
:1036A000BA1AF31A524303FB0323E02B03DCE1B203
:1036B0004046FFF7CDFF0134092CECD1BDE8F08185
:1036C000704710B54FF4AE7104461DF038F820462F
:1036D00010BD10B50446D0F8580100F037F8204668
:1036E000BDE810400AF03EBE10B50446FFF7DCF915
:1036F000014B2360204610BDD43602080022026030
:103700007047000038B50F480F4D012100F058FDFB
:103710000128044612D12B6823B900F0F7FA28607B
:10372000002038BD00F0F2FA2B68C01A40F6B7331B
:103730009842F5D900232B602046F2E700232B6046
:10374000EEE700BF00000240541E002010B5044602
:10375000FFF7D8FF28B120680368BDE810409B68D8
:10376000184710BDF02070474FF4A0707047292013
:10377000FEF76CBA2820FEF769BA08B5FEF73AFAE8
:10378000CA20FEF763FAC320FEF744FA0820FEF7CA
:1037900041FA5020FEF73EFACF20FEF757FA0020FC
:1037A000FEF738FAC120FEF735FA3020FEF732FA7C
:1037B000ED20FEF74BFA6420FEF72CFA0320FEF70B
:1037C00029FA1220FEF726FA8120FEF723FAE820D4
:1037D000FEF73CFA8520FEF71DFA0020FEF71AFAE4
:1037E0007820FEF717FACB20FEF730FA3920FEF7E3
:1037F00011FA2C20FEF70EFA0020FEF70BFA342007
:10380000FEF708FA0220FEF705FAF720FEF71EFA87
:103810002020FEF7FFF9EA20FEF718FA0020FEF755
:10382000F9F90020FEF7F6F9B120FEF70FFA0020B3
:10383000FEF7F0F91B20FEF7EDF9B620FEF706FAC9
:103840000A20FEF7E7F9A220FEF7E4F9C020FEF710
:10385000FDF91020FEF7DEF9C120FEF7F7F9102080
:10386000FEF7D8F9C520FEF7F1F94520FEF7D2F9A9
:103870001520FEF7CFF9C720FEF7E8F99020FEF7F4
:10388000C9F93620FEF7E2F9C820FEF7C3F9F220A5
:10389000FEF7DCF90020FEF7BDF9B020FEF7D6F9FF
:1038A000C220FEF7B7F9B620FEF7D0F90A20FEF7DE
:1038B000B1F9A720FEF7AEF92720FEF7ABF90420F7
:1038C000FEF7A8F92A20FEF7C1F90020FEF7A2F9B9
:1038D0000020FEF79FF90020FEF79CF9EF20FEF78D
:1038E00099F92B20FEF7B2F90020FEF793F900209A
:1038F000FEF790F90120FEF78DF93F20FEF78AF9D7
:10390000F620FEF7A3F90120FEF784F90020FEF768
:1039100081F90620FEF77EF92C20FEF797F9C820E2
:10392000FEF7E2F92620FEF791F90120FEF772F981
:10393000E020FEF78BF90F20FEF76CF92920FEF747
:1039400069F92420FEF766F90C20FEF763F90E20D2
:10395000FEF760F90920FEF75DF94E20FEF75AF9EF
:103960007820FEF757F93C20FEF754F90920FEF7BE
:1039700051F91320FEF74EF90520FEF74BF91720F9
:10398000FEF748F91120FEF745F90020FEF742F94D
:10399000E120FEF75BF90020FEF73CF91620FEF768
:1039A00039F91B20FEF736F90420FEF733F9112010
:1039B000FEF730F90720FEF72DF93120FEF72AF93E
:1039C0003320FEF727F94220FEF724F90520FEF701
:1039D00021F90C20FEF71EF90A20FEF71BF928201A
:1039E000FEF718F92F20FEF715F90F20FEF712F950
:1039F0001120FEF72BF9C820FEF776F92920FEF7F3
:103A000025F9BDE808402C20FEF720B908B5FEF7DF
:103A1000F1F80321D320FEF735F980B208BD10B5C7
:103A2000C4B2022203212046FEF79AF80A20FEF7CC
:103A3000DFF8204600220321FEF792F8BDE810408F
:103A40000220FEF7D5B838B50446E4B2FEF786F892
:103A500000212046FEF79CF8012105462046FEF78E
:103A600097F840EA052080B238BD10B5C4B24021B5
:103A70002046FEF78DF8030607D54C212046FEF7B9
:103A800087F8003818BF012010BD01224B212046C5
:103A9000FEF766F8204600224B21FEF761F8002071
:103AA000F2E773B50423C4B20E461546D7210DEBD9
:103AB00003022046FEF786F8019B1BBA1A0DC3F3DA
:103AC0000B23328020462B8001224B21FEF748F841
:103AD00000224B212046FEF743F802B070BD0000E3
:103AE00010B50A4A1378984204460DD0517888429E
:103AF0000AD00BB141B90123D454FEF72FF8204668
:103B0000BDE81040FFF78BBF10BD00BF581E00205E
:103B100010B5C4B209212046FEF73AF840F0010280
:103B2000D2B220460921BDE81040FEF719B810B501
:103B3000C4B209212046FEF72BF8092100F0FE024D
:103B40002046BDE81040FEF70BB838B5C4B20D46AC
:103B500020460A21FEF71CF840EA0502D2B22046B0
:103B60000A21BDE83840FDF7FBBF10B50446FDF75C
:103B7000F6FF20461F21FFF7E8FF2046BDE8104072
:103B8000FFF7C6BF38B5C4B20D4620460A21FDF77F
:103B9000FFFF20EA0502D2B220460A21BDE83840E4
:103BA000FDF7DEBF10B50446FFF7C1FF20461F2119
:103BB000BDE81040FFF7E6BF10B5C0B20C460B21C0
:103BC000FDF7E6FF204010BD1F21FFF7F5BF0A46B5
:103BD000C0B20B21FDF7C4BF1F21FFF7F8BF38B5F6
:103BE000C4B20D4620461721FDF7D2FF20EA050298
:103BF000D2B220461721BDE83840FDF7B1BF70B5FD
:103C0000C4B2064604212046FDF7C2FF042100F09D
:103C1000FB0205462046FDF7A3FF3046F021FFF7E3
:103C2000DEFF05F0F80220460421FDF799FF492246
:103C300020212046FDF794FF0220FDF7D9FF204602
:103C400001222121FDF78CFF20469A224121FDF718
:103C500087FF204601224A21FDF782FF20460122EC
:103C60004B21FDF77DFF204600224B21FDF778FF19
:103C7000204601225621FDF773FF204601225821DC
:103C8000FDF76EFF204601224021FDF769FF204627
:103C9000FF220B21FDF764FFBDE870400220FDF715
:103CA000A7BF0000054BD3F8882042F47002C3F888
:103CB00088204FF000629A60704700BF00ED00E07E
:103CC00008B50B4B1A6842F400721A601A6842F485
:103CD00080621A601A6842F480721A60032000F051
:103CE0002FF80020FEF742FAFEF70CF8002008BD7E
:103CF000003C0240034A044B11681B780B441360DC
:103D0000704700BF5C1E002078000020014B18683F
:103D1000704700BF5C1E002038B50446FFF7F6FF71
:103D2000631C1CBF054B1B78054618BFE418FFF742
:103D3000EDFF431BA342FAD338BD00BF780000203B
:103D40000749CA6822F4E0620302120403F4E06344
:103D5000120C134343F0BF6343F40033CB6070474E
:103D600000ED00E0164B30B5DC68C4F30224C4F16A
:103D70000703251D042B28BF0423062D4FF0FF3514
:103D80008CBF033C002405FA03F321EA0303A5409A
:103D900022EA0502A340002843EA0203ACBF00F177
:103DA0006040084A4FEA0313B8BF00F00F00DBB2CF
:103DB000AABF00F56140135480F8003330BD00BF46
:103DC00000ED00E014ED00E0002807DB044A4109A3
:103DD000012300F01F00834042F82130704700BFEC
:103DE00000E100E010B5044650B1437903F0FF0252
:103DF00013B90271FDF7A6FF01236371002010BD06
:103E00000120FCE710B5044620B390F8393003F0E8
:103E1000FF021BB980F83820FDF7ACFF022384F8BD
:103E20003930236861681A6822F440320A431A6004
:103E30005A6BA16822F007020A435A631A6CE168C0
:103E40006FF30D020A431A6400200123E06384F833
:103E5000393010BD0120FCE770477047036870B52A
:103E60005E681D68F207044614D5E90512D51A6884
:103E700022F480721A60C26B42F00102C263012216
:103E80009A60042380F83930002380F83830436981
:103E900003B19847B20616D5AB0414D523681A6847
:103EA00022F400521A6020229A60E36B43F002036E
:103EB000E363042384F83930002384F838306369DD
:103EC0000BB120469847300716D5290514D523682D
:103ED0001A6822F400621A6008229A60E36B43F0C9
:103EE0000403E363042384F83930002384F8383072
:103EF00063690BB12046984772070BD56B0509D54E
:103F000023681A6822F480621A6004229A602046AC
:103F1000FFF7A2FFB00714D5A90512D523681A68C8
:103F200022F400721A6002229A60E36BE3630123B9
:103F300084F83930002384F8383023690BB12046E7
:103F40009847F20613D5EB0411D523681A6822F4BA
:103F500080521A6010229A60E36BE363012384F8B5
:103F60003930002384F838302046FFF776FF70BDE3
:103F7000F0B590F83820012A03464FF002002BD00C
:103F8000012283F8382083F8390003EB0112D2E9CB
:103F90000740556A174F44EA0040093C012C9CBF7A
:103FA00005F07F4210434FEA01161A6888BF40EAC5
:103FB000056091B9516A394001435162012C9969F8
:103FC000916103D8596A21F07F419162012200205A
:103FD00083F8392083F83800F0BDD16939400143B6
:103FE000D1619919012C896911619CBF25F07F4528
:103FF0001562EBE7F0FFFC002DE9F74FDFF8BC910D
:104000006C4A00230D6801249C4004EA0506AC4379
:1040100040F0B7804D68032705F003044FEA4308DA
:1040200007FA08FC671E012F6FEA0C0C34D887686A
:1040300007EA0C0ECF6807FA08F747EA0E07876011
:10404000476827EA060EC5F300179F4047EA0E07A8
:104050004760C76807EA0C0E8F6807FA08F747EA57
:104060000E07022CC76019D14FEAD30A00EB8A0A67
:1040700003F0070BDAF820704FEA8B0B4FF00F0EAE
:104080000EFA0BFE27EA0E0E0F6907FA0BF747EA46
:104090000E07CAF8207001E0032CDAD1076804FA91
:1040A00008F407EA0C073C4315F4403F046068D06D
:1040B00000240194D9F8444044F48044C9F84440B1
:1040C000D9F8444023F0030707F1804704F4804403
:1040D00007F59C37019403F0030C019CD7F808E026
:1040E0004FEA8C0C0F2404FA0CF42EEA040E324C26
:1040F000A0424DD004F58064A0424BD004F580640A
:10410000A04249D004F58064A04247D004F5806401
:10411000A04245D004F58064A04243D004F58064F9
:10412000A04241D004F58064A0423FD004F58064F1
:10413000A0423DD004F58064A04214BF0A240924A3
:1041400004FA0CF444EA0E04BC609468F74315F4D6
:10415000801F0CBF3C4034439460D46815F4001FAA
:104160000CBF3C403443D460546815F4003F0CBF8E
:104170003C40344354601468ED0354BF3C40344326
:1041800014600133102B7FF43DAF03B0BDE8F08F16
:104190000024D5E70124D3E70224D1E70324CFE7A5
:1041A0000424CDE70524CBE70624C9E70724C7E7A5
:1041B0000824C5E7003C01400000024000380240EE
:1041C0000369194214BF0120002070470AB18161C0
:1041D00070470904FBE7436901EA030221EA03018E
:1041E00041EA02418161704701684B6913F48063C1
:1041F0004FF0000210D06FF480634B612023026304
:1042000080F83D3080F83E20036C80F83C2043F07D
:104210000403036401207047184670472DE9F846EF
:1042200006460F4691461D464FEA114A3368BAF1D9
:10423000010F0CBF5C699C6927EA0404A4B2B4FABC
:1042400084F46409A14501D0002025E06A1CEED069
:10425000FFF75CFD089BC01AA84201D8002DE5D1EC
:104260003368BAF1010F0CBF5B699B6927EA03034E
:104270009BB2B3FA83F35B099945D7D1002320227F
:10428000336386F83D2086F83E30326C86F83C3049
:1042900042F0200232640120BDE8F8862DE9F041A9
:1042A00004460F46164698462568686927EA0000C6
:1042B00080B2C0B16B695A0517D52B6843F40073FF
:1042C0002B606FF480636B6120220023236384F8EA
:1042D0003D2084F83E30236C43F004032364002324
:1042E00084F83C300120BDE8F081731CDDD0FFF77D
:1042F0000DFDA0EB0800B04201D8002ED4D12368F8
:104300005A6927EA020292B2002ACDD00023202265
:10431000236384F83D2084F83E30236C1343DDE7AB
:1043200070B504460D46164623685B691B0601D529
:1043300000201EE02046FFF757FFC8B96A1CF3D0E3
:10434000FFF7E4FC801BA84201D8002DECD12368C4
:104350005B6913F08003E7D12022236384F83D20BA
:1043600084F83E30226C84F83C3042F02002226413
:10437000012070BD2DE9F0431546026885B0DDE9E6
:104380000C789946136843F4807313600E463B46DD
:10439000CDF8008000224FF001110446FFF73EFFE8
:1043A000236838B11B68DB0502D54FF40073236422
:1043B000032620E006F0FE061E611A4943463A46EF
:1043C0002046FFF76BFFA8B9236803905A69039250
:1043D0009B690393424639462046039BFFF7A0FFA3
:1043E000064660B1236C042B01BF2268136843F4B6
:1043F000007313600126304605B0BDE8F083B9F1C3
:10440000010F236802D1EDB21D61F4E72A0A1A6197
:10441000394642462046FFF783FF0028E2D1236851
:10442000F1E700BF020001002DE9FF479A4603684B
:1044300015461A6842F480621A601A68DDE90C7841
:1044400042F480721A600E463B46CDF8008000228E
:104450004FF001110446FFF7E1FE236838B11B68F5
:10446000DB0544BF4FF400732364032021E05FFAAF
:1044700086F906F0FE061E612B4943463A46204661
:10448000FFF70CFFA0B9236803905A6903929B6958
:104490000393424639462046039BFFF741FF58B13C
:1044A000236C042B01BF2268136843F4007313606C
:1044B000012004B0BDE8F087BAF1010F23681AD1DA
:1044C000EDB242461D6139462046FFF729FF0246FC
:1044D0000028E5D121680B6843F480730B60204607
:1044E000CDF800803B464FF00111FFF797FE2268A0
:1044F00060B11368B4E72A0A1A6139464246204679
:10450000FFF70EFF0028CBD12368D9E749F001035C
:104510001361054943463A462046FFF7BFFE00387F
:1045200018BF0120C5E700BF0200010070B50446B6
:104530000D46164623685B695B0701D500201EE027
:104540002046FFF751FEC8B96A1CF3D0FFF7DEFB27
:10455000801BA84201D8002DECD123685B6913F0C1
:104560000403E7D12022236384F83D2084F83E3001
:10457000226C84F83C3042F020022264012070BD9D
:1045800070B504460D46164621684B6913F040038A
:1045900001D0002011E04A69D2060FD56FF0100259
:1045A0004A612022236384F83D2084F83E30236C46
:1045B0002364002384F83C30012070BDFFF7A6FB84
:1045C000801BA84201D8002DDED123685B6913F05F
:1045D0004003D9D12022236384F83D2084F83E3063
:1045E000236C1343E4E7000070B5044608B90120CA
:1045F00070BD90F83D3003F0FF021BB980F83C20FD
:10460000FDF7DAFB242384F83D3023681A6822F092
:1046100001021A601A6842F400421A601A6822F411
:1046200000421A6000F0A8FE3F4B65689D4294BFAF
:104630003E4B3F4B98428CBF00230123002BD6D129
:104640002268394E51683B4BB0FBF3F321F03F0138
:104650001943B542516088BF4FF49676116A88BFFE
:10466000734321F03F0184BF4FF47A76B3FBF6F336
:1046700001330B431362D169431E2B4821F44F4190
:10468000854221F0FF0132D86D0040F6FC70B3FB8B
:10469000F5F30133034242D0C3F30B031943D16155
:1046A000D4E907301168034321F0C0010B431360C4
:1046B0009168D4E9030321F40341034321F0FF018E
:1046C0000B439360D4E90530D168034321F0FF0127
:1046D0000B43D360136843F00103136000202023D1
:1046E000206484F83D30206384F83E0080E7A068B1
:1046F00050B905EB4505B3FBF5F30133C3F30B03E9
:104700007BB143F40043C9E719206843B3FBF0F3DE
:104710000133C3F30B0323B143F44043BEE7042347
:10472000BCE70123BAE700BFA08601007F841E001A
:10473000FF083D0040420F002DE9F743044699462B
:104740000C9E0F469046FFF7E1FA94F83D30202B7F
:10475000054603D0022003B0BDE8F08300903C4939
:10476000192301222046FFF759FD0028F2D194F8C1
:104770003C30012BEED02068012384F83C300368E4
:10478000D9075EBF036843F001030360036823F4A5
:1047900000630360212384F83D30402384F83E30D9
:1047A000002323640A9B6362BDF82C306385638D0C
:1047B0002385284BE3624246CDE900654B463946E6
:1047C0002046FFF7D7FD00282AD00120C3E7FFF7D6
:1047D000A7FD40B1236C042B01BF2268136843F48A
:1047E00000731360F1E7636A27681A4612F8011B29
:1047F00039616262628D218D013A92B262857A6975
:10480000481E80B2520720850AD548B15A783A61CD
:1048100002336362638D013B02399BB2218563855C
:10482000238D2A4631462046002BD0D1FFF77EFE4D
:104830000028CFD12268136843F40073136020234B
:1048400084F83D3084F83C0084F83E0083E700BFE4
:10485000020010000000FFFF2DE9F043044687B07E
:104860009946109F0D469046FFF750FA94F83D3058
:10487000202B064604D00225284607B0BDE8F08369
:1048800000907A49192301222046FFF7C7FC00282F
:10489000F1D194F83C30012BEDD02068012384F84D
:1048A0003C300368DB075EBF036843F0010303602D
:1048B000036823F400630360222384F83D3040231F
:1048C00084F83E30002323640E9B6362BDF83C30C5
:1048D0006385638D2385664BE3622946CDE90076C7
:1048E0004B4642462046FFF79FFD054608B101258D
:1048F000C2E7228D2368B2B902905A6902929A697E
:104900000292029A1A6842F400721A60DFF8648117
:10491000238D002B2CD1202284F83D2084F83C30BC
:1049200084F83E30A8E7012A0AD11A6822F480628E
:104930001A6003905A6903929A690392039AE1E715
:10494000022A0ED11A6822F480621A601A6842F4B0
:1049500000621A6004905A6904929B690493049B54
:10496000D4E705905A6905929B690593059BCDE7AD
:10497000032B56D8012B15D1324639462046FFF776
:10498000FFFD0028B3D123681A69636A1A70636A4D
:1049900001336362238D013B2385638D013B9BB211
:1049A0006385B5E7022B00963B464FF00002414677
:1049B000204619D1FFF732FC002898D123681A68E5
:1049C00042F400721A601A69636A1A70626A531CB0
:1049D0006362238D013B2385638D013B9BB263851D
:1049E00023681B695370D2E7FFF718FC02460028C2
:1049F0007FF47DAF2368196821F48061196019691B
:104A0000636A1970636A01336362238D013B2385F6
:104A1000638D013B9BB26385414600963B46204631
:104A2000C8E7324639462046FFF7AAFD00287FF442
:104A30005EAF23681A69636A1A70628D616A013A0F
:104A400092B24B1C628522686362238D5069013BE0
:104A50009BB2400723857FF55BAF032B02BF136832
:104A600023F48063136013694B7090E70200100019
:104A70000000FFFF0400010010B590F83D30202B2E
:104A8000DCB216D1242380F83D3003681A6822F086
:104A900001021A605A6A22F010025A625A6A1143DD
:104AA00059621A6842F001021A6080F83D40002005
:104AB00010BD0220FCE730B590F83D30202BDCB271
:104AC00016D10268242380F83D30136823F00103D7
:104AD0001360556A4FF6F0732B400B439BB2536241
:104AE000136843F00103136080F83D40002030BD9F
:104AF0000220FCE70068D1F800C0D201843283189C
:104B00002DE9F043C6685D684C68D1F8189005F44B
:104B100070455D60C5680CF10107C5F30B45C6F330
:104B20000B4626443D4445EA06455D60C668CD68AF
:104B3000C6F30A062E449D6805F470459D60C7685B
:104B40008D68C7F30A0701353D4445EA06459D6077
:104B50001D690E6925F007051D614FF0000E1E61ED
:104B600091F832709D6991F83180C3F818E091F89E
:104B7000305045EA096545EA082545EA07459D6143
:104B80005D6925F0FF055D614D695D61DD6925F4B5
:104B9000E06525F00705DD61D1E907573D43DD619B
:104BA0009D6A4D6AC3F828E0072E9D629CBF0E4D9A
:104BB000AE5DDD6A05F0E025DD6288BF01268D6A05
:104BC000C96AA4EB0C0474437543033444EA0544F6
:104BD000DC621C6B6FF30A041C631963835843F097
:104BE00001038350BDE8F0833837020838B5044626
:104BF000002863D090F8A13003F0FF021BB980F8C1
:104C0000A020FDF735F9022384F8A13023689A69C2
:104C100022F070429A61D4E901200243E068996968
:104C20000243206902430A439A619A6824496069F1
:104C30000A409A609A6842EA0042A06902439A6078
:104C4000DA68E0690A40DA60DA6842EA0042206A1B
:104C50000243DA601A69606A0A401A611A6942EA14
:104C60000042A06A02431A615A690A405A615A69AD
:104C7000E16A42EA0142216B0A435A61DA6A94F816
:104C8000350094F8361002F07F42DA62DD6A94F85B
:104C900034202A4342EA002242EA0142DA625A6B95
:104CA00042F006025A639A6942F001029A610020BA
:104CB0000123C4F8A40084F8A13038BD0120FCE72A
:104CC00000F800F070477047036870B59E6B5D6B2D
:104CD0007207044614D5690712D55A6B22F00402F4
:104CE0005A630422DA63D0F8A43043F00103C0F819
:104CF000A430002380F8A12080F8A030FFF7E2FF65
:104D0000B20716D5AB0714D523685A6B22F00202FE
:104D10005A630222DA63D4F8A4301343C4F8A430EF
:104D2000042384F8A130002384F8A0302046FFF744
:104D3000C9FFF00710D5E9070ED523685A6B22F09A
:104D400001025A630122DA63002384F8A12084F867
:104D5000A0302046FCF760FC320711D52B070FD599
:104D600023685A6B22F008025A630822DA6301238F
:104D700084F8A130002384F8A0302046FFF7A3FF79
:104D800070BD2DE9F04190F8A030012B06460F468A
:104D900094464FF002001FD04FF0010886F8A08023
:104DA00086F8A10034240D4604FB02640FCD38348C
:104DB0000FC40FCD0FC40FCD0FC42B682360304636
:104DC00062463946FFF796FE33680020C3F8248018
:104DD00086F8A18086F8A000BDE8F08190F8A020B8
:104DE000012A03464FF0020012D01A6883F8A1008E
:104DF000506B20F00100506306480164516B41F094
:104E0000010151630020012283F8A12083F8A00052
:104E1000704700BF0068014037B500230193184B6D
:104E2000184D1A6C42F080521A641B6C03F08053C8
:104E30000193019B144B01221A64FEF767FF04469D
:104E40006B68DA030BD5104B0E4D01225A64FEF746
:104E50005DFF04466B689B030AD5002006E0FEF761
:104E600055FF001BB0F57A7FEAD9032003B030BDAF
:104E7000FEF74CFF001BB0F57A7FEBD9F5E700BFDA
:104E8000003802400070004000000E422DE9F3415E
:104E9000044640B30368DE0710D423689D075BD443
:104EA0002368190700F19D8023685A0700F1BD802F
:104EB000A369002B40F0248100202CE08D4B9A68E0
:104EC00002F00C02042A07D09A6802F00C02082AA9
:104ED0000BD15B68590208D5864B1B689A03DCD559
:104EE0006368002BD9D1012015E06368814DB3F5CB
:104EF000803F13D12B6843F480332B60FEF706FF0D
:104F00007C4E054633689B03C7D4FEF7FFFE401B6B
:104F10006428F7D9032002B0BDE8F081B3F5A02FD3
:104F200004D12B6843F480232B60E3E72A6822F442
:104F300080322A602A6822F480222A60002BDDD188
:104F4000FEF7E4FE06462B689F03A6D5FEF7DEFEBD
:104F5000801B6428F7D9DDE7664B9A6812F00C0FC6
:104F600007D09A6802F00C02082A11D15B685D0232
:104F70000ED4604A1368990702D5E368012BB2D1B9
:104F80001368216923F0F80343EAC103136087E73C
:104F9000E268594BB2B101221A60FEF7B7FE554DD7
:104FA00006462B689B0707D52B68226923F0F80378
:104FB00043EAC2032B6073E7FEF7A8FE801B0228BA
:104FC000EFD9A7E71A60FEF7A1FE4A4E05463368FF
:104FD0009F077FF565AFFEF799FE401B0228F6D9C3
:104FE00098E76269444B82B10122C3F8802EFEF734
:104FF0008DFE404E0546736F9B073FF555AFFEF79C
:1050000085FE401B0228F6D984E7C3F8802EFEF700
:105010007DFE384E0546736F9F077FF545AFFEF75F
:1050200075FE401B0228F6D974E7324B1A6C12F059
:10503000805228D101921A6C42F080521A641B6C83
:1050400003F080530193019B01272C4D2B68D80559
:105050001BD5A368274D012B27D12B6F43F00103EC
:105060002B67FEF753FE234E054641F28838336F17
:105070009A0739D5002F3FF41BAF1E4A136C23F05B
:105080008053136414E70027DFE72B6843F4807331
:105090002B60FEF73BFE06462B68D905D9D4FEF7F8
:1050A00035FE801B0228F7D934E7052B04D12B6F7E
:1050B00043F004032B67D0E72A6F22F001022A672E
:1050C0002A6F22F004022A67002BCAD1FEF71EFEC7
:1050D00041F2883806462B6F9B07CBD5FEF716FEAC
:1050E000801B4045F7D915E7FEF710FE401B4045F1
:1050F000BDD90FE700380240000047420070004071
:10510000374DAA6802F00C02082A3ED0022B354B1C
:105110004FF000021A662BD1FEF7F8FD06462B6809
:1051200099011FD4D4E907321343626A43EA821318
:10513000E26A43EA0263A26A5208013A43EA02437E
:105140006B60284B264D01221A66FEF7DFFD0446F0
:105150002B689A013FF5B0AEFEF7D8FD001B022880
:10516000F6D9D7E6FEF7D2FD801B0228D7D9D1E6C3
:10517000FEF7CCFD04462B689B017FF59DAEFEF744
:10518000C5FD001B0228F6D9C4E6012B3FF4ABAEE7
:105190006B68E26903F4800191427FF4A4AE216A56
:1051A00003F03F028A427FF49EAE616A47F6C07206
:1051B0001A40B2EB811F7FF496AEA26A520803F444
:1051C0004031013AB1EB024F7FF48DAEE26A03F059
:1051D0007063B3EB026F14BF012000209BE600BF99
:1051E0000038024000004742134908B58B6803F0BD
:1051F0000C03042B1CD0082B1CD14A684B6849684F
:1052000013F4800314BF0D480D48C1F3881118BF73
:10521000002302F03F02A1FB0001FBF789F8064BD7
:105220005B68C3F3014301335B00B0FBF3F008BDDF
:105230000248FCE70248FAE70038024000127A0010
:105240000024F4002DE9F0410D46044610B9012078
:10525000BDE8F081434B1A6802F00F028A4228D35E
:1052600021688F072DD4C80740D43E4B1A6802F03E
:105270000F02AA4265D8226851076BD4130707D5DD
:10528000394A2169936823F4604343EAC103936078
:10529000FFF7AAFF344B354A9B68C3F30313D35C73
:1052A000D840334B1860334B1868FCF75FFF002081
:1052B000CEE7CAB21A701B6803F00F038B42C6D147
:1052C000CEE7294B11F0040F1EBF9A6842F4E0525A
:1052D0009A600E0742BF9A6842F460429A609A68E8
:1052E000A06822F0F00202439A60BCE762681E4B9D
:1052F000012A1CD11B6813F4003FA8D01A4EB368D2
:1053000023F003031343B360FEF700FD41F2883836
:105310000746B368626803F00C03B3EB820FA4D0B6
:10532000FEF7F4FCC01B4045F3D9032090E7911E23
:1053300001291B6802D813F0007FDEE713F0020F8B
:10534000DBE7EAB21A701B6803F00F03AB427FF48D
:105350007EAF90E70449E0688B6823F4E053034391
:105360008B608BE7003C024000380240283702087F
:10537000740000207C000020044B054A9B68C3F3A6
:105380008223D35C034A1068D8407047003802403B
:1053900020370208740000200F2303600B4B9A682B
:1053A00002F0030242609A6802F0F00282609A689A
:1053B00002F4E052C2609B68DB0803F4E05303612F
:1053C000034B1B6803F00F030B607047003802406B
:1053D000003C0240036813F0430FF7B5044640F069
:1053E0008880236813F00C0F45D08C4B8C4D002225
:1053F0001A67FEF78BFC06462B68990000F1CB80FC
:1054000021684A0715D5D4E90403D5F888201B067E
:1054100002F0E04243EA80131343C5F88830D5F820
:105420008C30226A23F4F853013A43EA0223C5F888
:105430008C300B0714D57A4AA369D2F888102069FA
:105440001B0701F0706143EA80130B43C2F88830F8
:10545000D2F88C30616A23F440330B43C2F88C30AD
:105460006E4B6F4E01221A67FEF750FC05463368FB
:105470009F0040F197802368980634D5002301935C
:10548000674B684D1A6C42F080521A641B6C03F033
:1054900080530193019B2B6843F480732B60FEF7CC
:1054A00035FC06462B68D80540F183805C4DA26A26
:1054B0002B6F13F4407340F08380A36A03F44072AF
:1054C000B2F5407F564A40F09E80916823F07040CC
:1054D00021F4F81120F4407001439160116FC3F37F
:1054E0000B030B4313672368DB0600F19080002059
:1054F0004FE04A4B4A4E00229A66FEF707FC0546EB
:1055000033681F013FD42168C80741BFD4E9012394
:105510001B0743EA8213C6F884308A0715D5404A30
:10552000E368D2F8840065681B0600F0E04043EAB7
:1055300085130343C2F88430D2F88C00E36920F06D
:105540001F00013B0343C2F88C304B060AD5E368C9
:1055500062681B0643EA8213A26843EA0273304A78
:10556000C2F884302D4B2E4E01229A66FEF7CEFBF8
:10557000054633681F013FF534AFFEF7C7FB401BFC
:105580000228F6D904E0FEF7C1FB401B0228B7D978
:10559000032003B0F0BDFEF7B9FB801B02287FF6A5
:1055A0002BAFF5E7FEF7B2FB401B02287FF65FAF9B
:1055B000EEE7FEF7ABFB801B02287FF673AFE7E751
:1055C00002F4407293423FF478AF2B6F134A0121EB
:1055D000C2F8401E23F440730021C2F8401E2B671E
:1055E0002B6FD9077FF569AFFEF790FB41F2883743
:1055F00006462B6F9A073FF560AFFEF787FB801BCF
:10560000B842F6D9C4E7916821F4F81165E7064B72
:1056100094F82C20C3F8E02169E700BF000047425E
:1056200000380240007000400010474238B50D4677
:105630000446C8B190F82C3003F0FF021BB980F883
:105640002D20FCF727FD022384F82C30211D206833
:1056500000F00EFD62682068294600F03FFD01233E
:1056600084F82C30002038BD0120FCE770B590F89C
:105670002C30022B05460E46D8B212D000F0FB04A7
:10568000012C0FD1022385F82C30286800F05CFD36
:105690003368022B06BF052385F82C3085F82C4093
:1056A000002070BD0120FCE738B590F82C30022BAB
:1056B0000446D8B20DD094F82C30012BDDB209D1BC
:1056C0000223206884F82C3000F062FD84F82C500E
:1056D000002038BD0120FCE72DE9F3471F4689462D
:1056E00090460446FEF712FB0A9D3D442D1AFEF734
:1056F0000DFB264B1E68C6F3CB366E4382460196E1
:105700002268936839EA03030CBF01230023434551
:1057100001D100202EE07B1CF3D0FEF7F7FAA0EBBE
:105720000A00A84229D323685A6822F0E0025A608E
:105730006268B2F5827F0AD1A268B2F5004F02D04A
:10574000B2F5806F03D11A6822F040021A60A26A93
:10575000B2F5005F07D11A6822F400521A601A6885
:1057600042F400521A60012384F85130002384F877
:105770005030032002B0BDE8F087019A019B002A57
:1057800003F1FF33019308BF1546B9E77400002009
:10579000F0B585B00B4600920E4617460221012255
:1057A0000446FFF799FF054628B1636D43F02003D7
:1057B0006365032515E0124B1868124BB0FBF3F03C
:1057C0004FF47A73584363680390B3F5827F0BD12B
:1057D000009733462A4680212046FFF77DFF0028A8
:1057E000E3D1284605B0F0BD039B002BF9D0039B05
:1057F000013B039323689B681B06F5D4F1E700BFC8
:105800007400002000366E0137B50B464168B1F5D3
:10581000827F044608D0009201210022FFF75CFF3E
:10582000D0B9002003B030BD8168B1F5004F02D07F
:10583000B1F5806F07D125682868B1F5806F20F039
:105840004000286004D00092802100222046E5E735
:10585000009201210022F9E7636D43F020036365A4
:105860000320DFE710B50446002855D0436A002B1B
:105870004ED14268B2F5827F00D0C3610023A3629B
:1058800094F8513003F0FF0223B984F850202046E9
:10589000FCF7CAFB2168A068A269022384F8513092
:1058A0000B6823F040030B60636800F4044003F4CA
:1058B00082730343E06800F400600343206900F052
:1058C00002000343606900F00100034302F400702A
:1058D0000343E06900F038000343206A00F08000D1
:1058E0000343A06A00F4005003430B60636A120C88
:1058F00003F0100302F004021A434A60CB6923F458
:105900000063CB6100200123606584F8513010BD35
:105910000023C0E90433B1E70120F8E72DE9F7439C
:1059200004461F460D469046FEF7F0F994F85130B4
:10593000012B8146D8B240F09F80002D74D0B8F181
:10594000000F71D094F85030012B00F095800323A4
:1059500084F8513000236365C4E91033A4F836801D
:10596000A363A387E387A368266884F85000B3F590
:10597000004F2563A4F8348007D1336823F0400337
:105980003360336843F4804333603368E2685B0616
:105990005EBF336843F040033360B2F5006F636865
:1059A00045D113B1B8F1010F07D135F8023BF360CF
:1059B0002563E38E013B9BB2E386E38E9BB2D3B9B2
:1059C0004A4639462046FFF7E3FE002851D1A36836
:1059D00033B901932368DA6801929B680193019BB4
:1059E000012384F85130606D0023C01A84F85030D0
:1059F00018BF012018E022689368980705D5236B2B
:105A000033F8021BD1602363D3E7FEF77FF9A0EBE5
:105A10000900B842D1D3791CCFD0012384F851308A
:105A2000002384F85030032003B0BDE8F08313B1A5
:105A3000B8F1010F08D12B783373236B0133236343
:105A4000E38E013B9BB2E386E38E9BB2002BB7D083
:105A500023689A68920703D5226B12781A73ECE7D1
:105A6000FEF754F9A0EB0900B842EDD37B1CEBD054
:105A7000D3E720236365AAE70220D5E72DE9F743A2
:105A800004460D4691461E46DDF82880FEF73EF995
:105A900094F851306268012B0746D9B20AD0B2F5AA
:105AA000827F40F0E580A368002B40F0E18004296C
:105AB00040F0DE80002D4BD0B9F1000F48D0002E11
:105AC00046D094F85030012B00F0D280012384F8A6
:105AD000503094F85130C4F83890042B1CBF052383
