:020000040800F2
:10000000000003205D0600080D2200080F220008F2
:100010001122000813220008152200080000000029
:100020000000000000000000000000005172000805
:100030001722000800000000E1720008756B00083C
:10004000AD060008AD060008AD060008AD060008C4
:10005000AD060008AD060008AD060008AD060008B4
:10006000AD060008AD060008AD060008AD060008A4
:10007000AD060008AD060008AD060008AD06000894
:10008000AD060008AD060008AD060008AD06000884
:10009000AD060008AD060008AD060008AD06000874
:1000A000AD060008AD060008AD060008AD06000864
:1000B000AD060008AD060008AD060008AD06000854
:1000C000AD060008AD060008AD060008AD06000844
:1000D000AD060008AD060008AD060008AD06000834
:1000E000AD060008AD060008AD060008AD06000824
:1000F000AD060008AD060008AD060008AD06000814
:10010000AD060008AD060008AD060008AD06000803
:10011000AD060008AD06000819220008AD0600086B
:10012000AD060008AD060008AD060008AD060008E3
:10013000AD060008AD060008AD060008AD060008D3
:10014000AD060008AD060008AD060008AD060008C3
:10015000AD060008AD060008AD060008AD060008B3
:10016000AD060008AD060008AD060008AD060008A3
:10017000AD060008AD060008AD060008000000004E
:10018000AD060008AD060008AD060008AD06000883
:10019000AD060008AD060008AD060008AD06000873
:0C01A00025220008AD06000831220008EE
:1001B00010B5054C237833B9044B13B10448AFF3A1
:1001C00000800123237010BD800300200000000088
:1001D0000037020808B5034B1BB103490348AFF3CE
:1001E000008008BD000000008403002000370208E2
:1001F00001F0FF01102A2BDB10F0070F08D010F8D8
:10020000013B013A8B422DD010F0070F42B3F6D1DB
:10021000F0B441EA012141EA014122F007047FF0F4
:1002200000070023F0E80256083C85EA010586EA4B
:10023000010685FA47F5A3FA87F586FA47F6A5FA87
:1002400087F68EB9EED1F0BC01F0FF0102F0070293
:1002500032B110F8013B013A83EA010313B1F8D13E
:100260000020704701387047002D06BF354603381F
:10027000073815F0010F07D1013015F4807F02BF58
:10028000013015F4C03F0130F0BC0138704700BFA9
:100290007BB972B90029BEBF00204FF0004106E0D3
:1002A00008BF00281CBF6FF000414FF0FF3000F086
:1002B000D3B9ADF1080C6DE904CE002909DB002BA0
:1002C0001ADB00F04DF8DDF804E0DDE9022304B0AC
:1002D0007047404261EB4101002B1BDB00F040F80E
:1002E000DDF804E0DDE9022304B0404261EB4101A6
:1002F000524263EB43037047524263EB430300F007
:100300002FF8DDF804E0DDE9022304B0404261EBA0
:1003100041017047524263EB430300F021F8DDF8DE
:1003200004E0DDE9022304B0524263EB430370476B
:1003300053B94AB9002908BF00281CBF4FF0FF314C
:100340004FF0FF3000F088B9ADF1080C6DE904CE34
:1003500000F006F8DDF804E0DDE9022304B07047A0
:100360002DE9F047089D8E4604468846002B4AD169
:100370008A42174662D9B2FA82F64EB1C6F120031C
:1003800001FA06F820FA03F3B74043EA0808B4403C
:100390004FEA174E1FFA87FCB8FBFEF1230C0EFB49
:1003A000118843EA084301FB0CF29A4209D9FB1871
:1003B00001F1FF3080F0EA809A4240F2E780023992
:1003C0003B449A1AA3B2B2FBFEF00EFB102243EAA2
:1003D000024300FB0CFC9C4509D9FB1800F1FF32DD
:1003E00080F0D6809C4540F2D3803B44023840EAFE
:1003F0000140A3EB0C0300211DB1F3400022C5E92D
:100400000032BDE8F0878B4205D90DB1C5E9000186
:1004100000210846F5E7B3FA83F1002946D1734578
:1004200002D3824200F20581841A6EEB030201209E
:100430009046002DE5D0C5E90048E2E7002A00F02B
:100440009080B2FA82F6002E40F0A4808A1A030C43
:100450004FEA174E80B2BCB20121B2FBFEFC0EFB8C
:100460001C2243EA024304FB0CF29A4207D9FB1810
:100470000CF1FF3802D29A4200F2E080C4469B1A87
:10048000B3FBFEF20EFB123340EA034302FB04F41B
:100490009C4207D9FB1802F1FF3002D29C4200F2C5
:1004A000CA8002461B1B42EA0C40A5E7C1F12006A8
:1004B0008B4022FA06F71F430EFA01F420FA06F3E6
:1004C0002EFA06FE4FEA1749234300FA01F81FFAF5
:1004D00087FCBEFBF9F01C0C09FB10EE44EA0E444D
:1004E00000FB0CFEA64502FA01F209D93C1900F105
:1004F000FF3A80F09C80A64540F2998002383C4447
:10050000A4EB0E041FFA83FEB4FBF9F309FB1344BA
:100510004EEA044403FB0CFCA44508D93C1903F142
:10052000FF3E80F08280A4457FD9023B3C4443EAF1
:100530000040A4EB0C04A0FB02EC64457346E146CA
:1005400062D35FD05DB1B8EB030264EB090404FA37
:1005500006F622FA01F31E43CC40C5E900640021EF
:100560004FE7B1FBF2FC010C41EA0E4180B240EAD8
:1005700001423B4638463C46B846BE462026B1FBC3
:10058000F7F1A2EB080241EA0C4166E7014618E7E1
:1005900010462CE7C6F120022EFA02F3B740B14014
:1005A00020FA02F24FEA174E0A43B3FBFEF8BCB240
:1005B0000EFB1833110C41EA034108FB04F9B0406B
:1005C00089454FEA104380B23ED9791808F1FF3CC3
:1005D00001D289451FD8A1EB0901B1FBFEF909FB46
:1005E00004F80EFB191192B242EA0142424529D2A7
:1005F000BA1809F1FF31C4D24245C2D2A9F10201B1
:100600003A44BEE7F0459DD2BEEB02036CEB070C0B
:100610000138E14696E7A7EB09094944A8F1020C25
:10062000B1FBFEF909FB04F8DBE773467FE75046B0
:1006300066E70846FDE63B44023A33E7ACF1020CBC
:100640003B441CE749469CE7A1EB0901C446B1FBCA
:10065000FEF909FB04F8C4E7704700BFDFF834D0A7
:10066000002103E00C4B5B58435004310B480C4B0A
:1006700042189A42F6D30B4A02E0002342F8043BA8
:10068000094B9A42F9D303F02FFE22F0CBFA01F086
:1006900063F8704700000320E4C80408000000204D
:1006A0006401002080030020E03A0120FEE770474B
:1006B00008B500F0BBFDBDE8084000F03FBD00F00C
:1006C000B7BD704710B50421044621F0AEF82046AE
:1006D00010BD000038B50C4B0C4C18800C4B822020
:1006E00019806368984740F6110398420AD1094D72
:1006F00023682C60822098472B688220DB6898470B
:10070000002038BD0120FCE7A60300204C0000209B
:10071000A4030020A80300204FF4A071F020FFF7ED
:10072000D9BF0000F7B5394D2B6804461B698220FC
:100730009847208000284ED02B680DF106025B6997
:1007400001A982209847324B1B78002B4BD0BDF873
:10075000062040F674639A423FD9ADF80630BDF8E2
:1007600006209B1A9BB20A2B42D90B22B3FBF2F351
:10077000284A1288934201D9013A93B2BDF8042065
:10078000254840F6B8318A4234D8C2F571620E323B
:10079000016892B20F25B2FBF5F2204D2D88AA42D6
:1007A00084BF05F1FF35AAB28A4215468EB22AD916
:1007B000921B91B21A4E3768BB42BAB28CBF9A1ADA
:1007C000D21A92B211440529C4BF05603360036890
:1007D00063803368A38003B0F0BDB32A9CBFB4220A
:1007E000ADF80620BBE7BDF80630A3F5B473B9E752
:1007F0000023C3E7C2F56D62083292B20E2A016887
:10080000C8D800252A46891A89B2D3E7A803002050
:10081000081D0020A4030020A0030020A603002040
:100820009C03002037B568460D461446FFF77AFF53
:10083000BDF8000030B1BDF802302B60BDF80430C7
:100840002360012003B030BD032821D8DFE800F089
:10085000020B12190F4B1A68B2FA82F252090421E4
:100860000D4804F09DB90B4B5A68B2FA82F2520956
:100870000821F5E7074B9A68B2FA82F25209102173
:10088000EEE7044BDA68B2FA82F252092021E7E778
:10089000704700BFAC03002000100240032821D89D
:1008A000DFE800F0020B12190F4B1A68003A18BF6C
:1008B000012204210D4804F073B90B4B5A68003A29
:1008C00018BF01220821F5E7074B9A68003A18BFC4
:1008D00001221021EEE7044BDA68003A18BF01222A
:1008E0002021E7E7704700BFAC0300200010024062
:1008F00003280DD8DFE800F00206080A04210548A5
:1009000004F053B90821FAE71021F8E72021F6E7AF
:10091000704700BF0010024008B5032811D8DFE877
:1009200000F0020A0C0E0421074804F033F9431EBC
:100930005842584108BD0821F6E71021F4E720216C
:10094000F2E70020F3E700BF0010024070B5084D49
:1009500000240126E0B2FFF7DFFF18B12B68012B5E
:1009600018BF2E600134052C05F10405F2D170BDCD
:10097000AC030020012380F8781080F879307047AC
:100980007047002070470000034B4164003918BFD6
:1009900001211970704700BF9F2D01207047002072
:1009A0007047836B0BB10846184770474FF6FF70CE
:1009B0007047406803689B691847704770477047E5
:1009C0007047704710B5044600F048FD236803499E
:1009D000D3F890302046BDE810401847000000D002
:1009E00008B503680446D3F8843098472368204646
:1009F000DB6F984700F0ECF8236820465B6F984760
:100A0000292001F023F900F0E3F8236820465B6F0A
:100A10009847F8E710B5044609F012FA2368204613
:100A2000D3F8BC30BDE81040184700F0FBBC00F024
:100A3000FFBC00F031BD00F0D1BC00F041BD00F0C2
:100A400049BD00F0D5BC08F029BC10B5842104468E
:100A500020F0EBFE204610BD10B590F8341090F851
:100A600078400C4B8C421A7809D03AB90A4A0B49A3
:100A70001488088810800C8001221A7010BD002A8A
:100A8000FCD0054A05491488088810800C80002293
:100A9000F3E700BF982D0120942D0120962D012011
:100AA00070B50D46194635B9094B0A4A0A4840F255
:100AB000FF2121F0F7FDC0E90F52084B003A18BFA3
:100AC00001221A700368BDE87040D3F890301847CF
:100AD000B8370208F03702083E3802089E2D012080
:100AE00008B5094B1B888B4203D8084B1B889342DF
:100AF00005D9074B074A0848A32121F0D3FD074B2E
:100B00001980074B1A8008BD942D0120962D0120D5
:100B100083380208E63802083E3802089A2D012080
:100B20009C2D0120034690F87A0018B1586803689C
:100B30001B68184770470000012108B500220846CD
:100B400006F0A2F80A4B186028B90A4B0A4A282175
:100B50000A4821F0A7FD00220421012006F033F904
:100B6000074B186018B9074B034A2C21F0E708BD62
:100B7000C00300202939020872390208A13902088D
:100B8000BC0300200B3A0208024B4FF0FF311868FB
:100B900006F0C4B8C0030020014B186806F0EAB89C
:100BA000C0030020024B0021186806F0B7B800BF50
:100BB000C0030020FFF7F0BF03480449006800238A
:100BC0001A4606F03BB900BFBC0300200400002019
:100BD00013B5084C00231A4601A9206806F05FF9F6
:100BE00020684FF0FF33002201A906F058F902B047
:100BF00010BD00BFBC03002003685B6C18470120D8
:100C0000704703689B6A1847FEE740F2EF30704771
:100C1000054B0360054B4FF08062C3F88820BFF39B
:100C20004F8FBFF36F8F70472044020800E100E050
:100C300010B504464FF45A61FFF7EAFF204620F052
:100C4000F4FD204610BD000082B0002301930E4B3E
:100C50001A6B42F400021A631A6B02F4000201924A
:100C6000019A1A6942F400021A611A6922F4000218
:100C70001A61064B064A1A61064A5A61064B4FF042
:100C800080629A6002B07047003802409C1E0020CB
:100C9000E90E0008090C000800E100E008B50A2888
:100CA00009D8DFE800F006100E0808080810101038
:100CB0001000022008BD054B054A0648902121F08E
:100CC000F1FC0020F6E70120F4E700BF4D3A0208EE
:100CD000683A0208B33A020838B50C46887FFFF735
:100CE000DDFFA58AE28A164B2169586342EA054274
:100CF0005A64628BD963521B1A642568082D0ED181
:100D00009A611A615862207F0E4A42EA0062DA61F3
:100D1000E2681A620C4A5961D9601A6038BD002233
:100D2000D8611A61E1680A0A480902F4784200F4BD
:100D3000FC600243C1F3C4010A439A63034AECE72F
:100D400000B002400900010001230200012303005A
:100D500008B50B280BD8DFE800F00612100A0A0AC3
:100D60000A0808080808022008BD0520FCE7054B12
:100D7000054A06486F2121F095FC0020F4E7012088
:100D8000F2E700BF4D3A02081B3B0208B33A0208E3
:100D90002DE9F04191F81D800C464046FFF7D8FF41
:100DA000A77F05463846FFF7D3FF06463846FFF7CC
:100DB00075FFA18A628B444B521A1A649A61228B86
:100DC000521A1A61E28A586342EA01425A6421695E
:100DD0006268D963DA602068802828D0227F0FD823
:100DE000202867D0402865D004281AD0364B45EA21
:100DF000026545F40035B845DD6161D0334A44E011
:100E0000B0F5807F04D0B0F5007FEFD1304800E02E
:100E1000304840EA0262DA61E2681A625E62596151
:100E200032E045EA026242F40032DA61F6E7A06895
:100E3000021DDA62227F45EA026545F40035DD6174
:100E40005E625961017841B1012921D0224B234AC8
:100E500023484FF48D7121F025FCDA69418822F492
:100E60007F42013922F0100242EA0122DA610121B7
:100E7000154BDA6942F02002DA61DA699206FCD495
:100E800010229A600029B9D0164A1A60BDE8F08194
:100E9000B2F1FF01DA69408822F47F4200F1FF30AD
:100EA00022F0100242EA002242F0100218BF012193
:100EB000DA61DDE745EA0262034B42F40032B4E74F
:100EC00042F20132E1E700BF00B00240012301001D
:100ED000090002000A000200653B02087F3B02088D
:100EE000B33A020801230200024B1B6858680368EA
:100EF0005B691847A02D012070B5044625460A4BB2
:100F00000C30002660602672667245F8203B602235
:100F1000294609F0EBF804F55A63EE6024359D424A
:100F2000FBD1204670BD00BF20440208034B1A6865
:100F3000D207FCD423229A60704700BF00B0024061
:100F40007047000030B50F4C2568ED07FCD4232511
:100F50000904A56041F001010225FF2B656361646E
:100F6000E0630AD00849656241EA0363E361074B25
:100F700022626061E060236030BDE561039BA36392
:100F8000034BF8E700B00240090001000100020035
:100F90000100030030B50E4C2568ED07FCD4232575
:100FA0001204A56042F001020225FF2B6563626412
:100FB000E063E16008D01B0643F00213E361054BD8
:100FC00065626061236030BD034BE3610123F9E793
:100FD00000B0024001000200020002FF30B50B4CDD
:100FE0002568ED07FCD4232512041B06A56043F4F5
:100FF0000033022542F0010265636264E063E16050
:10100000E361034B65626061236030BD00B0024064
:1010100001000200012070470C2070470C2303FBE5
:101020000100083070470C2303FB010008307047B3
:101030000120704740F2FC70704740F2FC7303FBE4
:1010400001000830704740F2FC7303FB01000830D8
:101050007047012070471020704700EB01100830E6
:10106000704700EB011008307047084601F0BABE27
:1010700010B5034B0360044607F065FE204610BD23
:10108000D844020810B50446FFF7F2FF20461421A9
:1010900020F0CBFB204610BD10B5034B0360044687
:1010A00007F051FE204610BDA444020810B50446C6
:1010B000FFF7F2FF204640F6040120F0B6FB204681
:1010C00010BD000010B5034B0360044607F03BFE63
:1010D000204610BD7044020810B50446FFF7F2FF29
:1010E0002046182120F0A1FB204610BD10B5084B6A
:1010F0000360044600F50360FFF7BAFF04F12C001B
:10110000FFF7CAFF04F11400FFF7DCFF204610BD13
:101110000C45020808B50248FFF7E8FF08BD00BF0C
:101120009C12002010B50446FFF7E0FF204640F671
:10113000A41120F07AFB204610BD00002DE9F341F8
:1011400001F0F0F8054601F0F1F8002401462346CD
:1011500028462246009411F0D5FA274B274A1A60F8
:10116000204602F01DF8264D264B274A27489A6054
:1011700011F030FA2B68BFF35B8FDB0735D42846BC
:1011800020F055FB88B3224C224B236004F648061E
:1011900004F1140004F12C0804F503676060C4F83E
:1011A0000880E760266107F0CFFD1B4B6361404676
:1011B00007F0CAFD194BE362384607F0C5FD184B2E
:1011C000C4F8303804F6440002F062FD224604F60A
:1011D0004401304602F052FD304601F003FE114852
:1011E00021F07EFA284620F02EFB0F4802B0BDE821
:1011F000F041FFF7E7BB00BF042E012048040020A8
:1012000098120020680400204C04002008000020F0
:101210009C1200200C45020870440208A4440208F5
:10122000D844020815110008C403002070470000CC
:101230000148FFF7D5BB00BFC403002070B5264EA0
:10124000264C274D274B23603046FFF755FE284696
:1012500016F05EFB24480EF065FF244B2448DC604A
:1012600000224FF48071C3E9121222491A86C3E9A1
:101270001A12214983F85820C3E91E011F49C3F8F7
:1012800080101F491F480B60F021C3E90422C3E905
:101290000622C3E90822C3E90A22C3E90E22C3E9F0
:1012A0001022C3E91422C3E917225A6683F870207A
:1012B0005A67C3E9016501801348018013484FF460
:1012C000A07101801248018012490A70012283F83E
:1012D0003420114A1A6070BDF404002094120020DA
:1012E00068040020A83702084C040020C403002032
:1012F0000000010101000001000450001A00140068
:10130000A02D0120942D01209A2D0120962D012041
:101310009C2D0120982D0120344302080148FFF73D
:1013200077BC00BFF4040020002070478180704724
:10133000C180704701817047418170477047704795
:1013400070477047704710B4C4880368121B8488C4
:101350005B6D091B12B25DF8044B09B218474FF6DA
:10136000FF7383814FF0FF3303621368C361106022
:101370007047002070478B8883800120704770473A
:1013800080F82610704790F82600704710B50022AC
:10139000B1F90840B1F90A10028042808480C1800E
:1013A00010BD0022028042808280C2807047017797
:1013B000704780ED080A704780F82410704780F865
:1013C0002510704701207047983070478C30704767
:1013D000843070477047704770470000034B90227D
:1013E00083F85A2383F85823704700BF00E100E0D8
:1013F000094A0A49D3680A48C3F30A03013B9BB26E
:101400000B801169C1F30A01013901801364536B28
:1014100043F001035363704700680140421C002001
:10142000401C0020014BD3F8AC007047006801401D
:10143000024B0122C3F8AC105A62704700680140A9
:1014400010B52C21044620F0F0F9204610BD10B54F
:10145000BC21044620F0E9F9204610BD70B50446D1
:1014600007F071FF23689D6E0DF0F4FB01462046E6
:10147000A8472368054AD3F88C502046AC46002381
:10148000BDE87040A2F51631604700BF00B004D03F
:1014900007F040BF07F04ABF07F006BF08F075B875
:1014A00090F8252012B103685B691847704790F8DF
:1014B00025201AB190F8242002B11860704700006E
:1014C000034B4FF080629A604FF080729A607047D1
:1014D00000E100E0084B4FF08062C3F88820BFF3C2
:1014E0004F8FBFF36F8F4FF08072C3F88820BFF328
:1014F0004F8FBFF36F8F704700E100E070B500239E
:10150000124E8380124B0360336893F858200546CF
:101510000AB1D86C00B998680368DB6A98473368E9
:10152000B0FA80F4D86C640930B10368DB6A98477C
:10153000002808BF44F001042CB9064B064A0748AE
:101540002C2121F0AFF8284670BD00BFA02D01204E
:1015500020450208BD3B02081B3C0208543C02081F
:1015600070B5254E3568BFF35B8F15F0010540D18E
:10157000304620F05CF900283BD0204C204B256100
:1015800004F13400C4E90035C4E90255E584A562DC
:10159000A5850FF0ACF804F158000AF05DFA194B7C
:1015A000A3652046184B40F8843BFFF7A7FF174B75
:1015B000C4F884302433C4F88C304FF4C803C4E931
:1015C00028350023C4F8AC30C4F8B030C4F8B430C7
:1015D000C4F8B8300E480F4BC4F89050C4F89C5073
:1015E000C4F8A850C4F8983021F07AF8304620F0BA
:1015F0002AF9024870BD00BF441C0020481C00208E
:101600005C4B020840450208B8450208104B02082E
:10161000D9130008F04A020838B5184C23685BB3A8
:10162000174B184A1B6C11888B4216D1164B198820
:1016300004F0BEF8236893F86A200025013283F88D
:101640006A2083F87C50FFF7B7FA206808F0F8FBAF
:101650002846BDE83840FFF7F7B804F0A9F8246839
:10166000236820461B6A9847012384F87C300020B9
:10167000BDE83840FFF712B938BD00BFA02D0120EA
:1016800000680140421C0020401C002007B5064BAA
:10169000ADF806001B68054801220DF1060104F0B3
:1016A00027FE03B05DF804FB0C000020481D00205D
:1016B00008B5642005F0DCFAFBE7000030B595B012
:1016C000102200210AA821F004FA1422002103A804
:1016D00021F0FFF900241E4B01941A6C42F0805255
:1016E0001A641B6C03F080530193019B194B029405
:1016F0001A6842F440421A601B6803F440430293A4
:101700000122029B4FF48033CDE9082302254FF4D8
:1017100080030821CDE90E534FF4B473CDE91013C3
:1017200008A804231393129504F09AF804F05EF8C5
:101730000F23CDE903354FF4A0504FF48053CDE98A
:101740000603052103A8059404F066FA15B030BD20
:10175000003802400070004080B59AB002F0D2FD1F
:10176000FFF7ACFF142200210DA821F0B2F90024EC
:10177000C84B00941A6BC848C84DDFF85C8342F030
:1017800010021A631A6B02F010020092009A019480
:101790001A6B42F020021A631A6B02F020020192C7
:1017A000019A02941A6B42F080021A631A6B02F0DB
:1017B00080020292029A03941A6B42F004021A63A6
:1017C0001A6B02F004020392039A04941A6B42F01B
:1017D00001021A631A6B02F001020492049A059442
:1017E0001A6B42F002021A631A6B02F002020592AF
:1017F000059A06941A6B42F040021A631A6B02F0C3
:1018000040020692069A07941A6B42F008021A6385
:101810001B6B03F00803224607933C21079B03F050
:10182000BFF99F480122022103F0BAF922469C48E1
:10183000042103F0B5F922469A484FF4405103F0D1
:10184000AFF901263C23CDE90D3693480F940323CD
:101850000DA90227109303F0B9F891480DA9CDE91D
:101860000D76CDE90F4403F0B1F804238C480DA99F
:10187000CDE90D36CDE90F4703F0A8F88A480F945B
:101880000DA9CDE90D6403F0A1F80DA94FF4405363
:101890008448CDE90D36CDE90F4703F097F883482A
:1018A000834B036002F0C0FDDFF830E2814B2C6215
:1018B000C5E900E328464FF48043C5E90434C5E98F
:1018C0000244C5E9064403F079FB1021284603F0E1
:1018D000BDFD21462846784D03F0D7FD4FF48273B5
:1018E000C5E900834FF400791823C5E9069328461B
:1018F0000A23C5E90244C5E90444C5E90844AC62C9
:10190000EB6204F099FC8F232246394664488DF837
:1019100024308DF8344003F043F932464FF47A73A3
:1019200009A9284604F0E4FC4FF47A7332460DA965
:10193000284604F089FE3246394659485F4D03F087
:101940002FF99DF83430D32B04BF5D4B1E705D4BD7
:101950000126C5E90036102240230024C5E90423EE
:101960004FF4C073C5E906344FF40063C5E9083489
:101970004FF4005302274FF00409AB624FF0030A03
:1019800007230DA92846CDE90D73CDE90F934FF03C
:101990000808C5E90249CDE911A7139704F030FB07
:1019A0004FF6FF7209A92846CDE90A8608940996E0
:1019B0000C9404F045FB304602F0D0FC4FF6FF7269
:1019C00009A92846CDE90978CDE90B6404F038FB74
:1019D0004FF6FF7209A92846CDE909A8CDE90B9475
:1019E00004F02EFB4FF40C730893089B0C934FF6F6
:1019F000FF7209A92846CDE909980B9604F020FB4F
:101A000040F26A51284604F039FB34220DEB020003
:101A1000214621F05EF82C4D2C4B2C61C5E9003499
:101A20000923C5E905361D23C5E9073A40F20D1122
:101A300040F24313C5E9091340F2171040F247136F
:101A4000C5E90B032846C5E90244AC8685F8364053
:101A500003F0B6FDFF214FF4806CF022CDE91214A3
:101A60000521CDE914C14FF4A0730DA9CDE90E24D1
:101A7000CDE9164228462246154D1893CDE9103778
:101A80000D94ADF864408DF8664003F064FE114B90
:101A90002B6025E00038024000100240481E002064
:101AA00000080240000C024000000240DC1E002042
:101AB00000300240A0860100481D0020141D0020B7
:101AC000081D0020400100A0A01D0020006801406A
:101AD000041D00201400002000500140005C004064
:101AE0001B6898472B68154DDB689847144B2846B0
:101AF000C5E90034C5E90274C5E90A47C5E90C44E3
:101B000002F0A2FC3146284602F054FDFEF7D0FD5B
:101B1000FEF7CDFD05F03CF80A4A0B48214605F0DA
:101B200063F80A4B0A4A186021460A4805F05CF837
:101B3000094B186005F03EF8FEE700BF9C1E002030
:101B400000B0024020460208B1160008101D002017
:101B5000FC450208BF0600080C1D002070477047B6
:101B60007FB5094B8DF817201B6802930DF1170202
:101B70000123009201930A460146044803F0C6FA85
:101B800007B05DF804FB00BF10000020481E0020D5
:101B90007FB500238DF81730084B1B6802930A4667
:101BA00001230DF11701009101930146044803F050
:101BB0003DFB9DF8170007B05DF804FB1000002006
:101BC000481E00201FB5084C24680092CDE901345E
:101BD0000A4601230146054803F028FB003818BFD8
:101BE000012004B010BD00BF10000020481E0020DE
:101BF00002F0B4BB10B5064C00222046042102F0CE
:101C0000CFFF20460122BDE81040042102F0C8BFEA
:101C10000008024038B50B4D044601220A484FF433
:101C2000005102F0BDFF00220421284602F0B8FF57
:101C30002046FFF72BFD28460122BDE8384004214D
:101C400002F0AEBF00080240000C024038B50B4D58
:101C5000044600220A484FF4005102F0A1FF00227E
:101C60000421284602F09CFF2046FFF70FFD28467E
:101C70000122BDE83840042102F092BF0008024072
:101C8000000C0240F7B5144E144F05460C46304682
:101C90000022042102F084FF00224FF40051384654
:101CA00002F07EFF2846FFF7F1FC0D4B0D481B6844
:101CB000224601A904F0C8FC384601224FF4005125
:101CC000019C02F06DFF30460122042102F068FF02
:101CD000204603B0F0BD00BF00080240000C0240E7
:101CE0000C000020481D002002F038BB0268034BA6
:101CF0009A4201D102F020BB704700BF00100040A3
:101D00007047000082B00E4B00220092596C41F4E3
:101D100080415964596C01F480410091009901920D
:101D2000196C41F0805119641B6C03F080530193CE
:101D3000019B0F216FF0010002B002F035BB00BF24
:101D4000003802400268094B9A4282B00BD100234E
:101D50000193074B1A6B42F480521A631B6B03F416
:101D600080530193019B02B0704700BF00300240D6
:101D70000038024007B50F4B02689A4216D1002284
:101D8000A3F5F0430192196B41F4000119631B6B39
:101D900003F40003019305215A20019B02F004FB88
:101DA0005A2003B05DF804EB02F030BB03B05DF8DD
:101DB00004FB00BF00B002402DE9F043044689B0A7
:101DC0001422002103A820F084FE2268244B9A42AA
:101DD00043D1244C244800250095236B43F0040391
:101DE0002363236B03F004030093009B0195236B93
:101DF00043F001032363236B03F001030193019B71
:101E00004FF012094FF400734FF001080327042626
:101E100003A9CDE90339CDE90587079602F0D6FD80
:101E20004FF480731148079603A9CDE90339CDE932
:101E3000058702F0CBFD0295236C43F40003236475
:101E4000236C03F400030293029B236A43F4000310
:101E50002362236A23F40003236209B0BDE8F08300
:101E6000005C0040003802400008024000000240D0
:101E7000F0B599B004461422002107A820F029FEED
:101E800030220DEB0200002120F023FE22685E4B81
:101E90009A4240F0B78008230C93C0231093042388
:101EA00012930CA84FF40033159303F07DFF08B193
:101EB000FFF726FF554B5648002400945A6C42F019
:101EC00080625A645A6C02F080620092009A019417
:101ED0001A6B42F020021A631A6B02F02002019280
:101EE000019A02941A6B42F001021A631A6B02F013
:101EF00001020292029A03941A6B42F002021A63E0
:101F00001A6B02F002020392039A04941A6B42F0D5
:101F100040021A631A6B02F040020492049A05947C
:101F20001A6B42F004021A631A6B02F00402059263
:101F3000059A06941A6B42F008021A631B6B03F0B1
:101F40000803069302250E26069B0B964FF480632A
:101F500007A9CDE90735CDE9094502F037FD41F67E
:101F600058032C480B9607A9CDE907350927CDE979
:101F7000094502F02BFD032327480B9707A9CDE95C
:101F80000735CDE9094502F021FD4FF47063224881
:101F90000B9607A9CDE90735CDE9094502F016FDF5
:101FA0004FF40C631D480B9607A9CDE90735CDE921
:101FB000094502F00BFDC02319480B9607A9CDE98E
:101FC0000735CDE9094502F001FD082315480B96B8
:101FD00007A9CDE90735CDE9094502F0F7FC4FF433
:101FE000A0530E480B9707A9CDE90735CDE9094560
:101FF00002F0ECFC58202246052102F0D5F95820C9
:1020000002F004FA19B0F0BD006801400038024047
:102010000014024000000240000402400018024088
:1020200000080240000C024010B5044688B014229B
:10203000002103A820F04DFD2268144B9A4223D1C1
:1020400003F56843002101915A6C114842F4801253
:102050005A645A6C02F480120192019A02911A6B2E
:1020600042F020021A631B6B03F020030293029BD1
:102070004FF4607202230321CDE903230523CDE948
:10208000061303A902F0A2FC08B010BD00500140E5
:10209000001402402DE9F04186B0002303932B4B3E
:1020A0001C68002C4FD14FF00108C3F80080284B6A
:1020B00000949A6B274842EA08029A639B6B03EAF2
:1020C00008030093022703260C25009B01A94FF665
:1020D0003F03CDE90137CDE9046502F077FC1E48E6
:1020E000059501A9CDE90187CDE9034602F06EFC13
:1020F00048F233131948059501A9CDE90137CDE917
:10210000034602F063FC4FF683731548059501A959
:10211000CDE90137CDE9034602F058FC4CF20373D8
:102120001048059501A9CDE90137CDE9034602F034
:102130004DFC60230C48059501A9CDE90137CDE997
:10214000034602F043FC06B0BDE8F081E41E002027
:10215000003802400014024000080240001802400B
:1021600000100240000C02400004024070B588B02C
:1021700000230293204B1A6C42F010021A641B6C6D
:1021800003F010030293054601A903A8029B03F084
:10219000EDFD069B4BBB03F0D9FD184E184B336089
:1021A00040F2E733F360174BB0FBF3F3013B73608E
:1021B000304600233361B360B36104F015FC04467C
:1021C00080B9304604F0E6FA044658B9362002F0E9
:1021D0001DF90F2D0DD822462946362002F0E4F8CD
:1021E000094B1D60204608B070BD03F0AFFD4000F4
:1021F000D3E70124F6E700BF00380240E81E0020C4
:102200000010004040420F007C0000207047FEE7B5
:10221000FEE7FEE7FEE77047014804F0F9BA00BFA9
:10222000E81E0020014803F039BA00BFA01D0020BD
:10223000014802F035B900BF9C1E00200120704704
:1022400008B520F0E9FC162303604FF0FF3008BD0D
:1022500008B520F0E1FC16230360FEE770B50D46DB
:1022600014460E46731B9C4201DC204670BDAFF342
:10227000008006F8010BF5E770B50D4614460E46D2
:10228000731B9C4201DC204670BD16F8010BAFF3B6
:102290000080F5E74FF0FF3070474FF400534B607C
:1022A0000020704701207047002070470A4A1168DB
:1022B00008B5034609B90949116010686946034425
:1022C0008B4206D920F0A8FC0C2303604FF0FF30AE
:1022D00008BD1360FCE700BF301F0020E03A01207A
:1022E000704710B5042104461FF09FFA204610BD28
:1022F00008B5032913D8DFE801F002060A0E00F042
:102300009BFF006808BD00F097FF4068FAE700F007
:1023100093FF8068F6E700F08FFFC068F2E70020C7
:10232000F0E7000000487047584602080220704756
:1023300013B5002451B1036801948DF8034001AA3C
:102340009C680DF10303A04702B010BD0846FBE7EF
:10235000C0897047008A7047C0887047808870477E
:10236000807A00F07F007047807AC00970470020B3
:10237000704700009FED010A704700BF0000000099
:1023800070477047704770477047704730B50368B3
:1023900085B06D460181D3F8843001460446284655
:1023A000984795E807003C3484E8070005B030BD45
:1023B00030B5036885B06D464181D3F8843001465D
:1023C00004462846984795E807003C3484E807000F
:1023D00005B030BD0022028042808280C2807047FA
:1023E00080F83610704770B5036804461B6B1546BD
:1023F00098472368294620465B6EBDE87040184721
:1024000000207047806C704770477047704710B568
:10241000082104461FF009FA204610BD10B54C21D2
:1024200004461FF002FA204610BD10B540F20451D8
:1024300004461FF0FAF9204610BD08B5FFF730F842
:1024400008BD0000036870B55E6B124B1B68044644
:102450008DB22BB9104B114A6C21114820F022F992
:102460001049828D0988914203D80F4B0B4A6D2188
:10247000F3E713F812200D4B1B6853F82200036892
:102480001B6B9847291A3346204609B2BDE87040B5
:10249000184700BFF82D0120CB3C02080D3D020873
:1024A000483D0208FC2D01208F3D0208002E01202E
:1024B00000224FF0FF31C0E900218260704770B503
:1024C000036804461B6B1546984723682946204637
:1024D0005B6BBDE87040184770B504461D46BDF9FA
:1024E0001060FFF7ECFF2368294620469B6B984756
:1024F000236831462046DB6BBDE87040184700007A
:102500000022C0E90122C0E90322C0E90522C0E996
:1025100007224FF480728284014A0260704700BF34
:102520008846020810B526220446002120F0D1FA80
:102530002046FFF7E5FF044B2360FF2384F8263095
:102540000023A362204610BDB04C020838B52622F5
:1025500004460D46002120F0BCFA2046FFF7D0FFCC
:10256000064B23602B88E384FF23204684F8283021
:10257000294609F073FF204638BD00BF804D020890
:1025800010B526220446002120F0A3FA2046FFF7CA
:10259000B7FF0A4B23600A4BA3624FF6FF73A38574
:1025A0004FF47F020023C4E90C3223874FF0FF323F
:1025B000C4E91023E363204610BD00BF204C02088D
:1025C000F04602082DE9F04F044699B02646002552
:1025D0000EF044FBD74BE56346F8403B3046FFF72F
:1025E000A1FF04F16C034FF6FF7704F19808184639
:1025F00016A9089304F1C40AADF85870FFF7A6FFB6
:1026000016A9404604F1F009ADF85870FFF79EFF97
:1026100016A95046ADF85870FFF798FF16A948461E
:10262000ADF85870FFF792FF04F58E7316A918469F
:102630000993ADF85870FFF789FF04F5A47316A944
:1026400018460A93ADF85870FFF780FF04F5BA7387
:1026500016A918460B93ADF85870FFF777FF04F5ED
:10266000D07316A918460C93ADF85870FFF76EFF9B
:1026700004F5E67316A918460D93ADF85870FFF7E8
:1026800065FF04F5FC7316A918460E93ADF8587053
:10269000FFF75CFF04F5097316A918460F93ADF810
:1026A0005870FFF753FF04F5147304F5267B1846A2
:1026B0000293FFF765FF5846FFF762FF04F5387392
:1026C00018461193FFF72EFF9B4BC4F8E03204F538
:1026D0004573C4F80C53A4F8105318460393FFF73E
:1026E0004FFF04F5577318460493FFF749FF04F5AD
:1026F000697318460593FFF743FF04F57B7318468B
:102700000693FFF73DFF04F2344318460793FFF7A3
:1027100037FF04F27C4318461093FFF731FF874BD5
:10272000C4F87C344FF4A0732A46C4F8C454294634
:1027300000933046F023271DFFF7CEFE4FF07F4376
:10274000A3663146384606F013FB2A460898294608
:10275000FFF7B5FE0898ADF8585016A909F07EFEAF
:102760000899384606F004FB2A4629464046FFF7FA
:10277000A6FE16A94046ADF8585009F06FFE414636
:10278000384606F0F5FAFE2250461B214FF00108AC
:10279000FFF795FE16A95046ADF8588009F05EFE89
:1027A0005146384606F0E4FAFE2248466A21FFF711
:1027B00086FE16A94846ADF8588009F04FFE4946F6
:1027C000384606F0D5FAFE220998DFF87491B72151
:1027D000FFF775FE0998ADF8588016A909F03EFE7E
:1027E0000999384606F0C4FA88220A986921FFF749
:1027F00066FE0A98ADF8588016A909F02FFE0A99CE
:10280000384606F0B5FA88220B98B621FFF757FE36
:102810000B98ADF8588016A909F020FE0B993846A0
:1028200006F0A6FAC2220C981B21FFF748FE0C986E
:10283000ADF8588016A909F011FE0C99384606F03B
:1028400097FAC2220D986A21FFF739FE0D98ADF86C
:10285000588016A909F002FE0D99384606F088FA4C
:1028600088220E981B21FFF72AFE0E98ADF858809B
:1028700016A909F0F3FD0E99384606F079FAC2223E
:102880000F98B721FFF71BFE0F98ADF8588016A9D7
:1028900009F0E4FD0F99384606F06AFA232312AED8
:1028A0004FF0FF3A029800933622CA231421FFF713
:1028B00013FE0299C4F880A23046A4F8845209F0AD
:1028C000C9F996E8070004F5237383E80700072396
:1028D0000298ADF85C3016A9CDF8589009F062FC6A
:1028E0000299384606F044FA232300933622CA237D
:1028F00058461421FFF7F0FD59463046C4F8C8A2E7
:10290000A4F8CC5209F0A6F996E8070004F535734F
:1029100083E80700062316A95846ADF85C30CDF8C9
:10292000589009F03FFC5946384684F8BD5206F0ED
:102930001FFA07E090470208184D020800470208F6
:10294000F04602083223119800938822D9230D21E2
:10295000FFF7C2FD774B119984F805534FF0050B33
:10296000C4E9C233A4F810B3384606F001FA03985C
:1029700098222721FFF7A3FD4FF07F430399C4F866
:1029800044333046A4F8485309F064F996E8070048
:1029900004F5547383E807000398ADF85CB016A9FA
:1029A000CDF8589009F0FEFB039984F83953384666
:1029B00006F0DEF92323049800933622CA2314215B
:1029C000FFF78AFD0499C4F88CA33046A4F890530D
:1029D00009F040F996E8070004F5667383E80700FC
:1029E00004230498ADF85C3016A9CDF8589009F08E
:1029F000D9FB049984F88153384606F0B9F92323AA
:102A0000059800933622CA231421FFF765FD059926
:102A1000C4F8D4A33046A4F8D85309F01BF996E8BB
:102A2000070004F5787383E8070003230598ADF8E1
:102A30005C3016A94FF0120BCDF8589009F0B2FB9C
:102A4000059984F8C953384606F092F90698CDF8EE
:102A500000B09722B3231F21FFF73EFD4FF07F43C5
:102A60000699C4F81C343046A4F8205409F0F2F852
:102A700096E8070004F5856383E8070002230698BB
:102A8000ADF85C3016A9CDF8589009F08BFB06998B
:102A900084F81154384606F06BF90798CDF800B069
:102AA00097227E233A21FFF717FD234B0799C4F89D
:102AB00064343046A4F8685409F0CCF896E807006E
:102AC00004F58E6383E807000798CDF8589016A99F
:102AD000ADF85C8009F066FB079984F859543846D4
:102AE00006F046F923233622109800932221B323BF
:102AF000FFF7F2FC04F599631098C4F8C43416A9E2
:102B0000C4F8ACA4A4F8B054C4F8B854C4F8BCA435
:102B1000C4F8C054A4F8C854CDF85890ADF85C502F
:102B200009F040FB3846109906F022F9204619B00A
:102B3000BDE8F08F27E881FF0000FFFF7047704776
:102B400000F598730868496803C370477047704779
:102B50004160704770477047064BC0F84C31002306
:102B6000C0F8503100F5A273C0F84801C0F84031F8
:102B7000704700BF192C000801230372704770478B
:102B800010B4C26841685410034601EB6200D207DA
:102B900048BF0A599B685DF8044B48BFD358184793
:102BA0000346406830B19A681AB9D86800F001004D
:102BB00070470120704710B50C2104461EF035FE09
:102BC000204610BD10B5102104461EF02EFE2046F2
:102BD00010BD10B54FF4AE7104461EF026FE20461F
:102BE00010BD10B50CF036F80368BDE81040DB6B83
:102BF000184710B50446D0F8400158B10368DB68A7
:102C0000984738B1D4F8400103689B68984700237F
:102C1000C4F8403110BD00002DE9F14FD0E9556AEC
:102C20000746B06803681B6A984740F2FB739842F6
:102C300005D8444B444AA32144481FF033FD706833
:102C400003681B6A98470F2803D8414B3E4AA421CA
:102C5000F2E7F06803681B6A98470B2803D83D4BDE
:102C6000394AA521E8E70BF0F5FFDFF8F0900430D2
:102C70000CF015F8D9F8000010B10368DB6898472C
:102C8000D9F8000010B103681B689847DFF8D080BE
:102C9000D8F8000010B103685B699847D7F83C0189
:102CA00010B103685B689847D8F8000010B103685A
:102CB0001B689847D7F83C0110B103689B68984798
:102CC000F068036800215B6A98474FF0000B224BC5
:102CD000C0F804B0044680F808B00360B068036828
:102CE00059465B6A9847054600F0B0FB7068036878
:102CF00059465B6A98472946064600F0CFFA331DCD
:102D0000C7F83C61C9F80040C8F80050CAF8003064
:102D10002B68C6F808A02846DB68EE63984733683E
:102D200030461B689847214628460EF043F9236831
:102D300020461B69984723685B69204601B0BDE8BF
:102D4000F04F1847CD3D02085B3E0208273F0208BE
:102D50006E3F02081140020830480208E82D0120A9
:102D6000E42D0120044B1B6893F858200AB1D86C5D
:102D700000B99868704700BFA02D0120F8B517462C
:102D800004460E460CF028F8124B1C60124B2360D0
:102D9000124B0025C4E95135114BC4E9535518684D
:102DA000036801219B68C4E94F55C4E955769847EB
:102DB000284600F0F5F9FFF7D5FF16F052FCFFF7B3
:102DC000D1FF16F0C9FCFFF7CDFF16F0D1FC20466D
:102DD000F8BD00BFF42D0120DC470208C4470208FB
:102DE000A02D0120064BC0F84C310023C0F8503113
:102DF00000F5A273C0F84801C0F84031704700BF29
:102E0000192C0008406A7047806A704770478A88AA
:102E10000B8810B5D20A4C88C1699BB251F82200C8
:102E200043EA0443184410BD10B50446BAB1107B00
:102E300068B1537BD27A1B0203F4E0631A43236A1E
:102E400003EB82031A888A4202D193F9020010BD73
:102E500005D8013880B204330028F3D1F7E7002009
:102E6000F5E710B52C2104461EF0DFFC204610BD0E
:102E700030B58BB00446BDF860500895BDF85C5085
:102E800007959DF8505006959DF84C5005959DF876
:102E9000485004959DF8445003959DF84050029584
:102EA0009DF83C500195BDF8385000950DF0DCFCC4
:102EB000064B2360159BE361169B2362199B63629B
:102EC0001A9BA36220460BB030BD00BF54480208D5
:102ED0007047000030B5164D2C6814F001048FB017
:102EE000BFF35B8F20D128461EF0A1FCE0B13F2349
:102EF0000993104B0893104B104911480A94012272
:102F0000CDE906430423CDE903320A230093CDE93A
:102F10000B44CDE901440594FFF7AAFF09481FF0CF
:102F2000DFFB28461EF08FFC05480FB030BD00BF08
:102F3000341F0020CC6002081C610208785E020881
:102F4000381F0020D12E00087047000030B5174D03
:102F50002C6814F001048FB0BFF35B8F22D1284698
:102F60001EF065FCF0B13F230993114B0893114B00
:102F700007930123CDE9054304930423CDE90243DC
:102F80000F230D49009327221223CDE90B440B4850
:102F90000A940194FFF76CFF09481FF0A1FB284633
:102FA0001EF051FC05480FB030BD00BF641F00206B
:102FB000D060020820610208885E0208681F0020B5
:102FC000492F00087047000030B5164D2C6814F0EA
:102FD00001048FB0BFF35B8F20D128461EF027FC81
:102FE000E0B13F230993104B0893104B104911484F
:102FF0000A940122CDE906430423CDE903321423C8
:103000000093CDE90B44CDE901440594FFF730FF6F
:1030100009481FF065FB28461EF015FC05480FB057
:1030200030BD00BF941F0020146102082461020813
:10303000AC600208981F0020C52F000870470000F0
:1030400030B5164D2C6814F001048FB0BFF35B8FC0
:1030500020D128461EF0EBFBE0B13F230993104B33
:103060000893104B104911480A940122CDE90643F8
:103070000423CDE9033228230093CDE90B44CDE9A5
:1030800001440594FFF7F4FE09481FF029FB284688
:103090001EF0D9FB05480FB030BD00BFC41F002093
:1030A0001861020828610208BC600208C81F0020DD
:1030B0003D30000800207047002070470EB403B573
:1030C00003AB002153F8042B01930CF04BFE02B02C
:1030D0005DF804EB03B070470CB407B504AB53F8CC
:1030E000042B01930CF03EFE03B05DF804EB02B03C
:1030F00070470000436C10B5044673B3038F2BB9BF
:10310000184B194AC52119481FF0CCFAC38E00EBA1
:1031100043035B8C0BB30EF0A6FC238F012B03D86B
:10312000134B144ACB21EEE7E28E531C9BB2092BC2
:10313000194688BFA3F10A0104EB410140F63F1094
:10314000498C814209D10A2B04EB420228BF00239B
:1031500004EB4303508C588451842046BDE8104052
:103160000EF084BBB4400208BD400208684102086A
:10317000B2410208C04102080EF03FBB10B586B054
:1031800002AC84E806001A460AAB05930193099B3A
:1031900000932146089B0BF0FBF806B010BD000021
:1031A00038B518BB124B13481C681349B4B12268D8
:1031B00022440260626822440A60A26814440F4BF1
:1031C00000221A8000F038F8054600F033F80C4B66
:1031D0001C600C4B1D600C4B188007E00B4B036010
:1031E0000B4B0B600B4B1C68002CE8D138BD00BFAB
:1031F00000200020F81F0020F41F0020FC1F0020EA
:10320000F82D0120002E0120FC2D01204C61020828
:103210002C6102089C620208044B1B6853F82100D1
:10322000034B1B6803EB4000704700BFF41F0020F6
:10323000F81F002008207047004870470420002035
:1032400010B5FFF7C1FE064C2060FFF7F9FE606085
:10325000FFF740FEA060FFF779FEE06010BD00BF01
:103260000420002010B5002404600C6014601C6071
:1032700010BD704704387047704710B510210446E0
:103280001EF0D3FA204610BDA0F10400F5E7C06897
:1032900000F0AABBA0F10400FFF7F9BF0022826092
:1032A000024A02601C324260C1607047BC4802089A
:1032B0004C4B2DE9F04F0446186803688DB0DB6A6B
:1032C00098470390002800F08980A56AD4F830B0B0
:1032D000E16AD4F834E0B4F9043007935D45ACBF3B
:1032E0004FF0FF32012205927145ACBF4FF0FF3223
:1032F00001220692ABEB050282EAE27AAEEB01060E
:10330000AAEBE27A86EAE672A2EBE67202925242F7
:103310000892029AB4F90630AAEB0200A26B02EB03
:10332000D2725210C2F1000CACEB030304920B9367
:10333000079BEB1A6344E146049A914532DC0B9AF1
:10334000CDF804C0571825E0002B1FDBB4F9082086
:103350009A421BDD002F19DBB4F90A20BA4215DDB1
:10336000214EB4F9062036880996B4F904600A960D
:10337000099E3A4406FB02320A9E3244E66BADF8DF
:103380002460039EBDF8248026F81280019A013241
:1033900001920137049A019E9642D5DD09F1010997
:1033A0000133C9E7AB4501D18E450FD0089AB2EB86
:1033B000400F4FEA400305DC029A801A059A9A45AD
:1033C0001544B5DB069B50441944B1E7054B18681A
:1033D00003681B6B0DB0BDE8F04F18470DB0BDE89A
:1033E000F08F00BFA02D0120942D01204A680260BB
:1033F0008A68426070477047704710B540210446A4
:103400001EF013FA204610BD38B5094B0360044680
:103410004FF4F465B5F5A46F05D0635960191B68C6
:103420009847403DF6E72046FEF7EFFF204638BDBF
:103430005449020810B50446FFF7E6FF204640F263
:10344000FC711EF0F2F9204610BD0000F8B50646EA
:10345000274CFFF7B7F8274B33600FCC002506F554
:10346000A36786F816550FC70FCC0FC754F8043B57
:103470003B600FCC06F23C570FC70FCC0FC7236839
:103480001D483B6006F5FC6206F5AC63012404218F
:103490009D80DD801D815D819D81DD811D825D823C
:1034A000DD611D845D8483F8245083F82540186015
:1034B000C3E90555C3E90A55C3E90C55C3E90E151F
:1034C00040339342E4D11E23C6F8E05786F8EE5706
:1034D000C6F8F457C6F8E557C6F8E95786F8ED5729
:1034E00086F8E457C6F8F057C6F8F8373046F8BD06
:1034F0001837020854490208EC480208002380F8F3
:103500001635C0F80D35C0F8113580F815357047FF
:10351000F8B5054600F5AC6400F5FC6700262368A5
:1035200084F8256020465B6940349847BC42F6D158
:1035300085F8E067F8BD38B50446002580F8BD522F
:1035400000F526700CF038FD04F5147084F87552FF
:103550000CF032FD04F5457084F839530CF02CFD65
:1035600004F5577084F881530CF026FD04F569705A
:1035700084F8C9530CF020FD04F57B7084F81154D5
:103580000CF01AFD04F2344084F859540CF014FD88
:1035900004F27C4084F8A1540CF00EFD84F805532D
:1035A00004F53870BDE838400CF006BD38B5044667
:1035B0000D4680F81D1200F5FC700CF0FDFC04F5C2
:1035C000A47084F86D510CF0F7FC04F5BA7084F81F
:1035D00099510CF0F1FC04F5D07084F8C5510CF051
:1035E000EBFC04F5E67084F8F1510CF0E5FC04F511
:1035F000097084F849520CF0DFFC04F1C40084F82F
:10360000E9500CF0D9FC04F1F00084F815510CF0ED
:10361000D3FC84F8415104F58E70BDE838400CF0BD
:10362000CBBC2DE9F843D0F8F06704460EBB90F808
:10363000165500F204512A4600F2E5701FF019FBFE
:1036400084F8EE5701252046C4F8F057FFF773FFC2
:1036500029462046FFF7AAFF04F5697084F8C9538C
:103660000CF0AAFC2046FFF749FFBDE8F843FFF73E
:103670004FBF012E34D190F8163590F8EE779F4267
:1036800000F538782ED100F2045900F2E5713A467F
:1036900048461FF00EFA054620BB3946484600F062
:1036A0003FFB2046FFF747FF2046FFF731FF20464C
:1036B0002946FFF723FFFFF779FF04F57B7084F8B5
:1036C00011640CF079FC84F8056340460CF074FC3E
:1036D00084F8E457C4F8F05784F8F467A4F8E25784
:1036E000BDE8F8832046FFF726FF2046FFF710FFCE
:1036F000012520460021FFF701FFFFF757FF04F2E5
:10370000344084F859540CF057FC84F80553404673
:103710000CF052FC002384F8F557C4F8F037DFE7CB
:10372000F8B50D79012D044673D190F8F737002BC9
:103730006FD190F8E137002B6BD190F8F437002B64
:1037400067D190F8F537002B63D190F8E4671EB18C
:10375000BDE8F840FFF765BF90F8161500F2045079
:1037600000F006FB0746B0BB2046FFF7E4FE84F8F6
:10377000BD5204F526700CF01FFC94F8F6370133A7
:10378000DBB2042B84F8F6371ED91E26204684F8B7
:10379000F757C4F8F867FFF7CEFE2046FFF7B8FEEC
:1037A00020463946FFF7AAFEFFF700FFB4F8F837C6
:1037B000184A314604F599600EF0FEFE84F8A154D3
:1037C00004F27C400CF0F8FB2046FFF797FEBDE8C2
:1037D000F840FFF79DBE204684F8F667FFF7ABFE82
:1037E0002046FFF795FE20463146FFF787FEFFF79C
:1037F000DDFE04F5387084F805530CF0DDFB84F829
:10380000395304F545700CF0D7FB84F8E157A4F860
:10381000E267F8BD9242020838B590F8E1370446F5
:10382000002B5BD0B0F8E23701339BB2B3F5967F43
:10383000A0F8E23752D3002580F8E157A0F8E2570C
:1038400080F8055300F538700CF0B6FB84F8395356
:1038500004F5457001250CF0AFFB04F5FC7084F80D
:103860001D520CF0A9FB04F5A47084F86D510CF006
:10387000A3FB04F5BA7084F899510CF09DFB04F594
:10388000D07084F8C5510CF097FB04F5E67084F80D
:10389000F1510CF091FB04F5097084F849520CF0D9
:1038A0008BFB04F1C40084F8E9500CF085FB04F1B3
:1038B000F00084F815510CF07FFB04F58E7084F84D
:1038C00041510CF079FB04F5147084F875520CF03A
:1038D00073FB2046FFF712FEFFF71AFE94F8F73746
:1038E0003BB1B4F8FA3701339BB23B2B4AD8A4F86A
:1038F000FA3794F8F437FBB1B4F8E23701339BB2EE
:10390000952BA4F8E23717D9002384F8F437A4F8EC
:10391000E2372046FFF70FFE01212046FFF746FE63
:10392000012384F8753204F514700CF045FB204631
:10393000FFF7E4FDFFF7ECFD94F8F537002B50D0CE
:10394000B4F8E23701339BB2952BA4F8E23748D99B
:10395000002384F8F537A4F8E2372046FFF7EBFDA3
:1039600020460121FFF722FE012384F8813304F56C
:1039700057700CF021FB2046FFF7C0FDBDE8384032
:10398000FFF7C6BD0023A4F8FA37B4F8F8378BB1B7
:10399000013B9BB2A4F8F837124A1E2104F5996046
:1039A0000EF00AFE012384F8A13404F27C400CF0EE
:1039B00003FB9EE7A4F8F6371E23A4F8F837204649
:1039C000FFF7B9FD2046FFF799FDFFF7A1FD20465F
:1039D0000121FFF7EBFD012384F8753204F5147023
:1039E000E5E738BD9242020870B50446002501267D
:1039F00080F8E15780F8F75780F8E467C0F8F0578F
:103A0000A0F8F457FFF77AFDFFF782FD2046C4F8CF
:103A1000E557C4F8E95784F8ED57FFF78CFD2046C9
:103A20003146FFF7C3FD84F8816304F55770BDE8A4
:103A300070400CF0C1BA10B50446FEF7E7FC204612
:103A4000FFF75CFDBDE81040FFF762BD2DE9F04FC8
:103A500090F81635012B87B0044640F2B38090F8F9
:103A6000E057092D00F2AE80034400EB851693F871
:103A7000022593F8033500EB820200EB8303D2F8B2
:103A80001415D2F8382502F10F09D3F81425D3F80C
:103A90003835C6F88C950F3301F10F0B02F10F0A80
:103AA0000193019AC6F89435D3455B46A8BF5346A7
:103AB0009BB24A45A8BF4A460293B6F8983505938B
:103AC00092B203925A0092B20492029AC6F888B552
:103AD00040274FF4AC68D11A17FB0585D6F860254E
:103AE000C6F890A505442846126B09B29047039A80
:103AF000059BD11AD6F8603528465A6B09B2904713
:103B00000499029BD345ACBF59445144C91AD6F815
:103B1000603528469B6B09B29847019B04999945EB
:103B2000ACBF4944C918039BC91AD6F8603509B21D
:103B30002846DB6B9847D6F8603528465B6998477E
:103B400094F8E00704EB80130422C3F89825D3F817
:103B5000603517FB00805B692044984794F8E007C4
:103B600004EB80130022C3F89C25D3F8603517FBC3
:103B700000805B692044984794F8E01704EB8113B8
:103B80000122251D17FB018183F885252144284644
:103B900005F02FF994F8E01717FB0181214428461E
:103BA00005F0E6F894F8E03717FB038004EB831385
:103BB0002044D3F860355B69984794F8E0370133C7
:103BC00084F8E03707B0BDE8F08F30B444180346FE
:103BD00094F80D2582B990F81625082A0CD81344BC
:103BE000551C013180F8165583F80415012384F81B
:103BF0000D3530BCFFF72ABF30BC704790F8F7375F
:103C00002DE9F041044613BB90F8E137FBB990F879
:103C1000F437E3B990F8F557CDB9B1F90A70B1F9B5
:103C20000C8000F2145656F8043F726A0F320F33BC
:103C3000A8EB0202FB1A524303FB0323E02B03DC35
:103C4000E9B22046FFF7C1FF0135092DEBD1BDE8F0
:103C5000F081704710B54FF4AE7104461DF0E5FDDC
:103C6000204610BD10B50446D0F8580100F038F8D1
:103C70002046BDE810400BF06FB8000010B50446B8
:103C8000FFF77CF8014B2360204610BD88490208ED
:103C9000002202607047000038B50F480F4D012127
:103CA00000F078FF0128044612D12B6823B900F0F8
:103CB0004FFB2860002038BD00F04AFB2B68C01A7B
:103CC00040F6B7339842F5D900232B602046F2E73F
:103CD00000232B60EEE700BF00000240142000200C
:103CE00010B50446FFF7D8FF28B120680368BDE887
:103CF00010409B68184710BD7FB500F01FFD0023E2
:103D000001930B210123CDE9031301A80223694686
:103D1000059300F007FE00F023FD07B05DF804FBFB
:103D20004B1E082B70B504460D461BD8FFF7E4FF69
:103D300000F004FD00230C492A46184600F042FD1D
:103D400060B90A4E2544361B00233119184614F871
:103D5000012B00F037FD08B9AC42F5D1BDE8704049
:103D600000F0FEBC70BD00BF00000E0801000E0890
:103D7000F8B50C4F06460D460024E2B2531EDBB2E6
:103D8000FD2B07D8954205D12A463146E0191EF091
:103D900090FE28B10A34B4F5FA7FEED10020F8BDC8
:103DA0000120FCE701000E08F02070474FF4A070DE
:103DB00070472920FDF74ABF2820FDF747BF08B507
:103DC000FDF718FFCA20FDF741FFC320FDF722FFD2
:103DD0000820FDF71FFF5020FDF71CFFCF20FDF747
:103DE00035FF0020FDF716FFC120FDF713FF30203F
:103DF000FDF710FFED20FDF729FF6420FDF70AFF16
:103E00000320FDF707FF1220FDF704FF8120FDF7D7
:103E100001FFE820FDF71AFF8520FDF7FBFE0020DB
:103E2000FDF7F8FE7820FDF7F5FECB20FDF70EFF3D
:103E30003920FDF7EFFE2C20FDF7ECFE0020FDF70A
:103E4000E9FE3420FDF7E6FE0220FDF7E3FEF72051
:103E5000FDF7FCFE2020FDF7DDFEEA20FDF7F6FE73
:103E60000020FDF7D7FE0020FDF7D4FEB120FDF7BE
:103E7000EDFE0020FDF7CEFE1B20FDF7CBFEB620A9
:103E8000FDF7E4FE0A20FDF7C5FEA220FDF7C2FE05
:103E9000C020FDF7DBFE1020FDF7BCFEC120FDF7C2
:103EA000D5FE1020FDF7B6FEC520FDF7CFFE45205C
:103EB000FDF7B0FE1520FDF7ADFEC720FDF7C6FEED
:103EC0009020FDF7A7FE3620FDF7C0FEC820FDF7C5
:103ED000A1FEF220FDF7BAFE0020FDF79BFEB02008
:103EE000FDF7B4FEC220FDF795FEB620FDF7AEFE4D
:103EF0000A20FDF78FFEA720FDF78CFE2720FDF797
:103F000089FE0420FDF786FE2A20FDF79FFE002093
:103F1000FDF780FE0020FDF77DFE0020FDF77AFE14
:103F2000EF20FDF777FE2B20FDF790FE0020FDF738
:103F300071FE0020FDF76EFE0120FDF76BFE3F20B5
:103F4000FDF768FEF620FDF781FE0120FDF762FE19
:103F50000020FDF75FFE0620FDF75CFE2C20FDF73C
:103F600075FEC820FDF7C0FE2620FDF76FFE01207C
:103F7000FDF750FEE020FDF769FE0F20FDF74AFE39
:103F80002920FDF747FE2420FDF744FE0C20FDF715
:103F900041FE0E20FDF73EFE0920FDF73BFE4E20C0
:103FA000FDF738FE7820FDF735FE3C20FDF732FEA8
:103FB0000920FDF72FFE1320FDF72CFE0520FDF74D
:103FC00029FE1720FDF726FE1120FDF723FE002015
:103FD000FDF720FEE120FDF739FE0020FDF71AFE77
:103FE0001620FDF717FE1B20FDF714FE0420FDF739
:103FF00011FE1120FDF70EFE0720FDF70BFE31200C
:10400000FDF708FE3320FDF705FE4220FDF702FE16
:104010000520FDF7FFFD0C20FDF7FCFD0A20FDF754
:10402000F9FD2820FDF7F6FD2F20FDF7F3FD0F2009
:10403000FDF7F0FD1120FDF709FEC820FDF754FE45
:104040002920FDF703FEBDE808402C20FDF7FEBD4A
:1040500008B5FDF7CFFD0321D320FDF713FE80B295
:1040600008BD10B5C4B2022203212046FDF778FD39
:104070000A20FDF7BDFD204600220321FDF770FD5B
:10408000BDE810400220FDF7B3BD38B50446E4B2E8
:10409000FDF764FD00212046FDF77AFD012105466C
:1040A0002046FDF775FD40EA052080B238BD10B509
:1040B000C4B240212046FDF76BFD030607D54C2115
:1040C0002046FDF765FD003818BF012010BD012214
:1040D0004B212046FDF744FD204600224B21FDF7F1
:1040E0003FFD0020F2E773B50423C4B20E46154627
:1040F000D7210DEB03022046FDF764FD019B1BBA9F
:104100001A0DC3F30B23328020462B8001224B2152
:10411000FDF726FD00224B212046FDF721FD02B0D0
:1041200070BD000010B50A4A1378984204460DD0BD
:10413000517888420AD00BB141B90123D454FDF71C
:104140000DFD2046BDE81040FFF78BBF10BD00BF3E
:104150001820002010B5C4B209212046FDF718FD33
:1041600040F00102D2B220460921BDE81040FDF71F
:10417000F7BC10B5C4B209212046FDF709FD09219D
:1041800000F0FE022046BDE81040FDF7E9BC38B55E
:10419000C4B20D4620460A21FDF7FAFC40EA0502AA
:1041A000D2B220460A21BDE83840FDF7D9BC10B58F
:1041B0000446FDF7D4FC20461F21FFF7E8FF204608
:1041C000BDE81040FFF7C6BF38B5C4B20D46204663
:1041D0000A21FDF7DDFC20EA0502D2B220460A21C1
:1041E000BDE83840FDF7BCBC10B50446FFF7C1FF81
:1041F00020461F21BDE81040FFF7E6BF10B5C0B252
:104200000C460B21FDF7C4FC204010BD1F21FFF719
:10421000F5BF0A46C0B20B21FDF7A2BC1F21FFF774
:10422000F8BF38B5C4B20D4620461721FDF7B0FCE3
:1042300020EA0502D2B220461721BDE83840FDF73A
:104240008FBC70B5C4B2064604212046FDF7A0FC21
:10425000042100F0FB0205462046FDF781FC3046B4
:10426000F021FFF7DEFF05F0F80220460421FDF7FC
:1042700077FC492220212046FDF772FC0220FDF741
:10428000B7FC204601222121FDF76AFC20469A2234
:104290004121FDF765FC204601224A21FDF760FC23
:1042A000204601224B21FDF75BFC204600224B21DA
:1042B000FDF756FC204601225621FDF751FC204611
:1042C00001225821FDF74CFC204601224021FDF738
:1042D00047FC2046FF220B21FDF742FCBDE8704061
:1042E0000220FDF785BC0000054BD3F8882042F47E
:1042F0007002C3F888204FF000629A60704700BFD8
:1043000000ED00E008B50B4B1A6842F400721A6029
:104310001A6842F480621A601A6842F480721A6065
:10432000032000F02FF80020FDF720FFFDF7EAFC46
:10433000002008BD003C0240034A044B11681B7872
:104340000B441360704700BF1C2000207800002041
:10435000014B1868704700BF1C20002038B5044688
:10436000FFF7F6FF631C1CBF054B1B78054618BF03
:10437000E418FFF7EDFF431BA342FAD338BD00BF9B
:10438000780000200749CA6822F4E06203021204A0
:1043900003F4E063120C134343F0BF6343F40033B0
:1043A000CB60704700ED00E0164B30B5DC68C4F31D
:1043B0000224C4F10703251D042B28BF0423062D66
:1043C0004FF0FF358CBF033C002405FA03F321EACC
:1043D0000303A54022EA0502A340002843EA0203A2
:1043E000ACBF00F16040084A4FEA0313B8BF00F0C9
:1043F0000F00DBB2AABF00F56140135480F8003310
:1044000030BD00BF00ED00E014ED00E0002807DB48
:10441000044A4109012300F01F00834042F8213083
:10442000704700BF00E100E010B5044650B1437989
:1044300003F0FF0213B90271FDF784FC01236371DD
:10444000002010BD0120FCE710B5044620B390F811
:10445000393003F0FF021BB980F83820FDF78AFCE1
:10446000022384F83930236861681A6822F44032E4
:104470000A431A605A6BA16822F007020A435A6382
:104480001A6CE1686FF30D020A431A6400200123DD
:10449000E06384F8393010BD0120FCE770477047B5
:1044A000036870B55E681D68F207044614D5E90517
:1044B00012D51A6822F480721A60C26B42F00102AF
:1044C000C26301229A60042380F83930002380F807
:1044D0003830436903B19847B20616D5AB0414D5FA
:1044E00023681A6822F400521A6020229A60E36B53
:1044F00043F00203E363042384F83930002384F893
:10450000383063690BB120469847300716D5290526
:1045100014D523681A6822F400621A6008229A608F
:10452000E36B43F00403E363042384F8393000238E
:1045300084F8383063690BB12046984772070BD571
:104540006B0509D523681A6822F480621A60042278
:104550009A602046FFF7A2FFB00714D5A90512D52F
:1045600023681A6822F400721A6002229A60E36BD0
:10457000E363012384F83930002384F83830236959
:104580000BB120469847F20613D5EB0411D52368EA
:104590001A6822F480521A6010229A60E36BE36377
:1045A000012384F83930002384F838302046FFF79F
:1045B00076FF70BDF0B590F83820012A03464FF021
:1045C00002002BD0012283F8382083F8390003EB56
:1045D0000112D2E90740556A174F44EA0040093CEE
:1045E000012C9CBF05F07F4210434FEA01161A6868
:1045F00088BF40EA056091B9516A39400143516270
:10460000012C9969916103D8596A21F07F41916227
:104610000122002083F8392083F83800F0BDD169E9
:1046200039400143D1619919012C896911619CBFFD
:1046300025F07F451562EBE7F0FFFC00094910B556
:104640000C6924F440740C610C6944F440740C61EE
:104650000C6944F001040C610260BFF36F8F43608A
:1046600010BD00BF003C0240074B1A6922F44072A3
:104670001A611A6942F400721A611A6942F0010261
:104680001A610160704700BF003C0240074B1A6985
:1046900022F440721A611A6942F480721A611A692E
:1046A00042F001021A610180704700BF003C0240E5
:1046B000204BDA68D00606D51F49CA6942F01002BD
:1046C000CA611022DA60DA68910606D51A49CA6909
:1046D00042F00802CA612022DA60164BDA685206FC
:1046E00006D51549CA6942F00402CA614022DA605F
:1046F000DA68100606D51049CA6942F00202CA619A
:104700008022DA600B4BDA68D10507D50A49CA69FD
:1047100042F00102CA614FF48072DA60DA689207EF
:1047200006D50549CA6942F02002CA610222DA6050
:10473000704700BF003C024020200020064B1A6951
:10474000002ABFBF054A5A6002F188325A60BABFD8
:104750001869C00F00207047003C024023016745E4
:10476000034A136943F0004313610020704700BF00
:10477000003C0240114B70B500220446DA61FFF79D
:10478000E7FD0F4D0646EB68DA030CD4EB68DB0758
:1047900044BF0123EB60E86810F4F97007D0FFF71D
:1047A00087FF012003E0611CEDD00CB9032070BD30
:1047B000FFF7CEFD801BA042E5D9F7E720200020BF
:1047C000003C02402DE9F0411F4E9846337E012BFC
:1047D00007460D46144635D001234CF2503033764F
:1047E000FFF7C8FFB0B9CFB9184B1A6922F440726D
:1047F0001A611A691A611A69E4B242F001021A6177
:104800002C704CF25030FFF7B5FF104A136923F0BB
:104810000103136100233376BDE8F081012F04D139
:10482000A1B22846FFF732FFEBE7022F04D1214661
:104830002846FFF719FFE4E7224643462846FFF7DC
:10484000FDFEDEE70220E7E720200020003C0240DA
:104850000C4B1A6922F440721A6103291A690BD1B0
:1048600042F4004242F004021A611A6942EA00204E
:1048700040F48030186170470129F3D042F40042BF
:10488000F2E700BF003C02400F4B1A6922F440726D
:104890001A611A69022994BF09024FF440710A4350
:1048A0001A611A6922F0F8021A611A690B2888BF86
:1048B000043042EAC00242F002021A611A6942F46C
:1048C00080321A61704700BF003C0240144B1A68E6
:1048D00091050FD51A6822F400721A601A6842F422
:1048E00000621A601A6822F400621A601A6842F4C0
:1048F00000721A600A4B1A6852050FD51A6822F422
:1049000080621A601A6842F480521A601A6822F4AF
:1049100080521A601A6842F480621A60704700BFC1
:10492000003C02402DE9F843DFF89C8098F81830ED
:10493000012B05460F4642D001234CF2503088F837
:104940001830FFF717FF0446B8B94FF0FF333B604C
:104950002B68012B17D16968287CFFF779FF4CF28F
:104960005030FFF707FF174A136923F4004323F081
:10497000040304461361FFF7A9FF002388F81830E9
:104980002046BDE8F883AE68DFF83890D5E9022309
:104990001344B342EFD9297C3046FFF775FF4CF240
:1049A0005030FFF7E7FED9F8103023F0FA03C9F8CA
:1049B000103010B13E600446DDE70136E6E7022420
:1049C000DEE700BF003C0240202000202DE9F74F29
:1049D000DFF8BC916C4A00230D6801249C4004EA76
:1049E0000506AC4340F0B7804D68032705F003048B
:1049F0004FEA430807FA08FC671E012F6FEA0C0C08
:104A000034D8876807EA0C0ECF6807FA08F747EA38
:104A10000E078760476827EA060EC5F300179F4018
:104A200047EA0E074760C76807EA0C0E8F6807FA67
:104A300008F747EA0E07022CC76019D14FEAD30ADC
:104A400000EB8A0A03F0070BDAF820704FEA8B0BB1
:104A50004FF00F0E0EFA0BFE27EA0E0E0F6907FA43
:104A60000BF747EA0E07CAF8207001E0032CDAD1F1
:104A7000076804FA08F407EA0C073C4315F4403FC2
:104A8000046068D000240194D9F8444044F4804480
:104A9000C9F84440D9F8444023F0030707F18047A0
:104AA00004F4804407F59C37019403F0030C019C47
:104AB000D7F808E04FEA8C0C0F2404FA0CF42EEA25
:104AC000040E324CA0424DD004F58064A0424BD07D
:104AD00004F58064A04249D004F58064A04247D028
:104AE00004F58064A04245D004F58064A04243D020
:104AF00004F58064A04241D004F58064A0423FD018
:104B000004F58064A0423DD004F58064A04214BF47
:104B10000A24092404FA0CF444EA0E04BC609468E4
:104B2000F74315F4801F0CBF3C4034439460D468B5
:104B300015F4001F0CBF3C403443D460546815F496
:104B4000003F0CBF3C40344354601468ED0354BF35
:104B50003C40344314600133102B7FF43DAF03B06D
:104B6000BDE8F08F0024D5E70124D3E70224D1E784
:104B70000324CFE70424CDE70524CBE70624C9E7C7
:104B80000724C7E70824C5E7003C014000000240B5
:104B9000003802400369194214BF01200020704709
:104BA0000AB1816170470904FBE7436901EA030226
:104BB00021EA030141EA02418161704701684B69C2
:104BC00013F480634FF0000210D06FF480634B61E8
:104BD0002023026380F83D3080F83E20036C80F88B
:104BE0003C2043F0040303640120704718467047DB
:104BF0002DE9F84606460F4691461D464FEA114AF2
:104C00003368BAF1010F0CBF5C699C6927EA0404A0
:104C1000A4B2B4FA84F46409A14501D0002025E0CF
:104C20006A1CEED0FFF794FB089BC01AA84201D87B
:104C3000002DE5D13368BAF1010F0CBF5B699B69A8
:104C400027EA03039BB2B3FA83F35B099945D7D1F3
:104C500000232022336386F83D2086F83E30326CF4
:104C600086F83C3042F0200232640120BDE8F8862C
:104C70002DE9F04104460F461646984625686869B6
:104C800027EA000080B2C0B16B695A0517D52B68BE
:104C900043F400732B606FF480636B612022002368
:104CA000236384F83D2084F83E30236C43F00403F2
:104CB0002364002384F83C300120BDE8F081731C9C
:104CC000DDD0FFF745FBA0EB0800B04201D8002E75
:104CD000D4D123685A6927EA020292B2002ACDD0C1
:104CE00000232022236384F83D2084F83E30236C87
:104CF0001343DDE770B504460D46164623685B692D
:104D00001B0601D500201EE02046FFF757FFC8B95B
:104D10006A1CF3D0FFF71CFB801BA84201D8002DB2
:104D2000ECD123685B6913F08003E7D12022236371
:104D300084F83D2084F83E30226C84F83C3042F008
:104D400020022264012070BD2DE9F043154602685F
:104D500085B0DDE90C789946136843F480731360DD
:104D60000E463B46CDF8008000224FF0011104466C
:104D7000FFF73EFF236838B11B68DB0502D54FF40F
:104D800000732364032620E006F0FE061E611A4924
:104D900043463A462046FFF76BFFA8B923680390C5
:104DA0005A6903929B690393424639462046039B06
:104DB000FFF7A0FF064660B1236C042B01BF2268F9
:104DC000136843F4007313600126304605B0BDE854
:104DD000F083B9F1010F236802D1EDB21D61F4E750
:104DE0002A0A1A61394642462046FFF783FF002807
:104DF000E2D12368F1E700BF020001002DE9FF477F
:104E00009A46036815461A6842F480621A601A6866
:104E1000DDE90C7842F480721A600E463B46CDF80C
:104E2000008000224FF001110446FFF7E1FE2368E5
:104E300038B11B68DB0544BF4FF4007323640320C3
:104E400021E05FFA86F906F0FE061E612B49434613
:104E50003A462046FFF70CFFA0B9236803905A6931
:104E600003929B690393424639462046039BFFF712
:104E700041FF58B1236C042B01BF2268136843F42F
:104E800000731360012004B0BDE8F087BAF1010F90
:104E900023681AD1EDB242461D6139462046FFF71C
:104EA00029FF02460028E5D121680B6843F480738E
:104EB0000B602046CDF800803B464FF00111FFF714
:104EC00097FE226860B11368B4E72A0A1A6139466E
:104ED00042462046FFF70EFF0028CBD12368D9E7D2
:104EE00049F001031361054943463A462046FFF75E
:104EF000BFFE003818BF0120C5E700BF0200010057
:104F000070B504460D46164623685B695B0701D5FC
:104F100000201EE02046FFF751FEC8B96A1CF3D0FE
:104F2000FFF716FA801BA84201D8002DECD12368A8
:104F30005B6913F00403E7D12022236384F83D204A
:104F400084F83E30226C84F83C3042F02002226427
:104F5000012070BD70B504460D46164621684B69A8
:104F600013F0400301D0002011E04A69D2060FD5AA
:104F70006FF010024A612022236384F83D2084F8F8
:104F80003E30236C2364002384F83C30012070BD44
:104F9000FFF7DEF9801BA84201D8002DDED123687F
:104FA0005B6913F04003D9D12022236384F83D20AC
:104FB00084F83E30236C1343E4E7000070B50446E8
:104FC00008B9012070BD90F83D3003F0FF021BB915
:104FD00080F83C20FCF7F0FE242384F83D30236861
:104FE0001A6822F001021A601A6842F400421A603C
:104FF0001A6822F400421A6000F0A8FE3F4B656870
:105000009D4294BF3E4B3F4B98428CBF00230123EF
:10501000002BD6D12268394E51683B4BB0FBF3F3DD
:1050200021F03F011943B542516088BF4FF4967695
:10503000116A88BF734321F03F0184BF4FF47A7631
:10504000B3FBF6F301330B431362D169431E2B48C4
:1050500021F44F41854221F0FF0132D86D0040F626
:10506000FC70B3FBF5F30133034242D0C3F30B03EF
:105070001943D161D4E907301168034321F0C0011D
:105080000B4313609168D4E9030321F40341034304
:1050900021F0FF010B439360D4E90530D16803434D
:1050A00021F0FF010B43D360136843F00103136049
:1050B00000202023206484F83D30206384F83E00E3
:1050C00080E7A06850B905EB4505B3FBF5F3013364
:1050D000C3F30B037BB143F40043C9E719206843D2
:1050E000B3FBF0F30133C3F30B0323B143F44043A9
:1050F000BEE70423BCE70123BAE700BFA086010096
:105100007F841E00FF083D0040420F002DE9F74359
:10511000044699460C9E0F469046FFF719F994F8FD
:105120003D30202B054603D0022003B0BDE8F083BC
:1051300000903C49192301222046FFF759FD002821
:10514000F2D194F83C30012BEED02068012384F892
:105150003C300368D9075EBF036843F00103036076
:10516000036823F400630360212384F83D30402367
:1051700084F83E30002323640A9B6362BDF82C3020
:105180006385638D2385284BE3624246CDE9006544
:105190004B4639462046FFF7D7FD00282AD001208C
:1051A000C3E7FFF7A7FD40B1236C042B01BF2268C2
:1051B000136843F400731360F1E7636A27681A46C3
:1051C00012F8011B39616262628D218D013A92B23F
:1051D00062857A69481E80B2520720850AD548B197
:1051E0005A783A6102336362638D013B02399BB2A4
:1051F00021856385238D2A4631462046002BD0D158
:10520000FFF77EFE0028CFD12268136843F40073B5
:105210001360202384F83D3084F83C0084F83E007D
:1052200083E700BF020010000000FFFF2DE9F043FC
:10523000044687B09946109F0D469046FFF788F8C0
:1052400094F83D30202B064604D00225284607B0AE
:10525000BDE8F08300907A49192301222046FFF728
:10526000C7FC0028F1D194F83C30012BEDD0206828
:10527000012384F83C300368DB075EBF036843F01A
:1052800001030360036823F400630360222384F8AE
:105290003D30402384F83E30002323640E9B63623C
:1052A000BDF83C306385638D2385664BE3622946F8
:1052B000CDE900764B4642462046FFF79FFD054666
:1052C00008B10125C2E7228D2368B2B902905A695C
:1052D00002929A690292029A1A6842F400721A6063
:1052E000DFF86481238D002B2CD1202284F83D200F
:1052F00084F83C3084F83E30A8E7012A0AD11A68C5
:1053000022F480621A6003905A6903929A690392A8
:10531000039AE1E7022A0ED11A6822F480621A6029
:105320001A6842F400621A6004905A6904929B69F8
:105330000493049BD4E705905A6905929B690593F1
:10534000059BCDE7032B56D8012B15D132463946A4
:105350002046FFF7FFFD0028B3D123681A69636A6E
:105360001A70636A01336362238D013B2385638D69
:10537000013B9BB26385B5E7022B00963B464FF09D
:1053800000024146204619D1FFF732FC002898D18F
:1053900023681A6842F400721A601A69636A1A7004
:1053A000626A531C6362238D013B2385638D013B3D
:1053B0009BB2638523681B695370D2E7FFF718FC23
:1053C000024600287FF47DAF2368196821F48061CC
:1053D00019601969636A1970636A01336362238D06
:1053E000013B2385638D013B9BB26385414600965B
:1053F0003B462046C8E7324639462046FFF7AAFD1D
:1054000000287FF45EAF23681A69636A1A70628DA0
:10541000616A013A92B24B1C628522686362238DF5
:105420005069013B9BB2400723857FF55BAF032B9F
:1054300002BF136823F48063136013694B7090E715
:10544000020010000000FFFF0400010010B590F8FA
:105450003D30202BDCB216D1242380F83D30036888
:105460001A6822F001021A605A6A22F010025A6287
:105470005A6A114359621A6842F001021A6080F8B0
:105480003D40002010BD0220FCE730B590F83D30D3
:10549000202BDCB216D10268242380F83D3013683B
:1054A00023F001031360556A4FF6F0732B400B4352
:1054B0009BB25362136843F00103136080F83D40D0
:1054C000002030BD0220FCE70068D1F800C0D20106
:1054D000843283182DE9F043C6685D684C68D1F8C2
:1054E000189005F470455D60C5680CF10107C5F3BF
:1054F0000B45C6F30B4626443D4445EA06455D6030
:10550000C668CD68C6F30A062E449D6805F470454A
:105510009D60C7688D68C7F30A0701353D4445EAB9
:1055200006459D601D690E6925F007051D614FF058
:10553000000E1E6191F832709D6991F83180C3F8B8
:1055400018E091F8305045EA096545EA082545EA32
:1055500007459D615D6925F0FF055D614D695D61F0
:10556000DD6925F4E06525F00705DD61D1E9075720
:105570003D43DD619D6A4D6AC3F828E0072E9D62B8
:105580009CBF0E4DAE5DDD6A05F0E025DD6288BF93
:1055900001268D6AC96AA4EB0C0474437543033475
:1055A00044EA0544DC621C6B6FF30A041C63196354
:1055B000835843F001038350BDE8F083EC490208AF
:1055C00038B50446002863D090F8A13003F0FF02FC
:1055D0001BB980F8A020FCF74BFC022384F8A13013
:1055E00023689A6922F070429A61D4E9012002434B
:1055F000E06899690243206902430A439A619A6804
:10560000244960690A409A609A6842EA0042A069A7
:1056100002439A60DA68E0690A40DA60DA6842EACE
:105620000042206A0243DA601A69606A0A401A611D
:105630001A6942EA0042A06A02431A615A690A40A2
:105640005A615A69E16A42EA0142216B0A435A618E
:10565000DA6A94F8350094F8361002F07F42DA6284
:10566000DD6A94F834202A4342EA002242EA0142E9
:10567000DA625A6B42F006025A639A6942F00102FA
:105680009A6100200123C4F8A40084F8A13038BD39
:105690000120FCE700F800F070477047036870B520
:1056A0009E6B5D6B7207044614D5690712D55A6B61
:1056B00022F004025A630422DA63D0F8A43043F0E3
:1056C0000103C0F8A430002380F8A12080F8A030A6
:1056D000FFF7E2FFB20716D5AB0714D523685A6B64
:1056E00022F002025A630222DA63D4F8A430134390
:1056F000C4F8A430042384F8A130002384F8A03037
:105700002046FFF7C9FFF00710D5E9070ED523683B
:105710005A6B22F001025A630122DA63002384F8F3
:10572000A12084F8A0302046FBF776FF320711D580
:105730002B070FD523685A6B22F008025A63082200
:10574000DA63012384F8A130002384F8A0302046D6
:10575000FFF7A3FF70BD2DE9F04190F8A030012BB9
:1057600006460F4694464FF002001FD04FF0010846
:1057700086F8A08086F8A10034240D4604FB02645C
:105780000FCD38340FC40FCD0FC40FCD0FC42B680D
:105790002360304662463946FFF796FE33680020A4
:1057A000C3F8248086F8A18086F8A000BDE8F081C7
:1057B00090F8A020012A03464FF0020012D01A6888
:1057C00083F8A100506B20F001005063064801648B
:1057D000516B41F0010151630020012283F8A120A7
:1057E00083F8A000704700BF0068014037B5002370
:1057F0000193184B184D1A6C42F080521A641B6CBE
:1058000003F080530193019B144B01221A64FEF7AD
:105810009FFD04466B68DA030BD5104B0E4D012239
:105820005A64FEF795FD04466B689B030AD5002079
:1058300006E0FEF78DFD001BB0F57A7FEAD9032064
:1058400003B030BDFEF784FD001BB0F57A7FEBD9C5
:10585000F5E700BF003802400070004000000E4233
:105860002DE9F341044640B30368DE0710D42368F2
:105870009D075BD42368190700F19D8023685A07B0
:1058800000F1BD80A369002B40F0248100202CE0B2
:105890008D4B9A6802F00C02042A07D09A6802F035
:1058A0000C02082A0BD15B68590208D5864B1B688D
:1058B0009A03DCD56368002BD9D1012015E0636819
:1058C000814DB3F5803F13D12B6843F480332B60B7
:1058D000FEF73EFD7C4E054633689B03C7D4FEF7BA
:1058E00037FD401B6428F7D9032002B0BDE8F081E2
:1058F000B3F5A02F04D12B6843F480232B60E3E79A
:105900002A6822F480322A602A6822F480222A60DF
:10591000002BDDD1FEF71CFD06462B689F03A6D5A4
:10592000FEF716FD801B6428F7D9DDE7664B9A6801
:1059300012F00C0F07D09A6802F00C02082A11D15D
:105940005B685D020ED4604A1368990702D5E3686C
:10595000012BB2D11368216923F0F80343EAC10394
:10596000136087E7E268594BB2B101221A60FEF773
:10597000EFFC554D06462B689B0707D52B6822691F
:1059800023F0F80343EAC2032B6073E7FEF7E0FC61
:10599000801B0228EFD9A7E71A60FEF7D9FC4A4E10
:1059A000054633689F077FF565AFFEF7D1FC401BC6
:1059B0000228F6D998E76269444B82B10122C3F804
:1059C000802EFEF7C5FC404E0546736F9B073FF5E2
:1059D00055AFFEF7BDFC401B0228F6D984E7C3F89B
:1059E000802EFEF7B5FC384E0546736F9F077FF596
:1059F00045AFFEF7ADFC401B0228F6D974E7324BE9
:105A00001A6C12F0805228D101921A6C42F0805226
:105A10001A641B6C03F080530193019B01272C4DEA
:105A20002B68D8051BD5A368274D012B27D12B6FD9
:105A300043F001032B67FEF78BFC234E054641F232
:105A40008838336F9A0739D5002F3FF41BAF1E4AB1
:105A5000136C23F08053136414E70027DFE72B68EF
:105A600043F480732B60FEF773FC06462B68D90560
:105A7000D9D4FEF76DFC801B0228F7D934E7052B3B
:105A800004D12B6F43F004032B67D0E72A6F22F079
:105A900001022A672A6F22F004022A67002BCAD16A
:105AA000FEF756FC41F2883806462B6F9B07CBD594
:105AB000FEF74EFC801B4045F7D915E7FEF748FC82
:105AC000401B4045BDD90FE7003802400000474267
:105AD00000700040374DAA6802F00C02082A3ED040
